{
  "_format": "hh-sol-artifact-1",
  "contractName": "FlareGasAdaptor",
  "sourceName": "contracts/Adaptors/FlareAdaptor.sol",
  "abi": [
    {
      "inputs": [],
      "stateMutability": "nonpayable",
      "type": "constructor"
    },
    {
      "inputs": [
        {
          "internalType": "uint256",
          "name": "",
          "type": "uint256"
        }
      ],
      "name": "feedIndexes",
      "outputs": [
        {
          "internalType": "uint256",
          "name": "",
          "type": "uint256"
        }
      ],
      "stateMutability": "view",
      "type": "function"
    },
    {
      "inputs": [],
      "name": "getFtsoV2CurrentFeedValues",
      "outputs": [
        {
          "internalType": "uint256[]",
          "name": "_feedValues",
          "type": "uint256[]"
        },
        {
          "internalType": "int8[]",
          "name": "_decimals",
          "type": "int8[]"
        },
        {
          "internalType": "uint64",
          "name": "_timestamp",
          "type": "uint64"
        }
      ],
      "stateMutability": "view",
      "type": "function"
    },
    {
      "inputs": [],
      "name": "read",
      "outputs": [
        {
          "internalType": "uint256",
          "name": "",
          "type": "uint256"
        },
        {
          "internalType": "uint256",
          "name": "",
          "type": "uint256"
        }
      ],
      "stateMutability": "view",
      "type": "function"
    }
  ],
  "bytecode": "0x60a0604052600060809081526100199060029060016100ee565b5034801561002657600080fd5b50600080546001600160a01b03191673ad67fe66660fb8dfe9d6b1b4240d8650e30f601990811790915560405163413b07e560e11b815260206004820152600b60248201526a2330b9ba2ab83230ba32b960a91b60448201526382760fca90606401602060405180830381865afa1580156100a5573d6000803e3d6000fd5b505050506040513d601f19601f820116820180604052508101906100c99190610153565b600180546001600160a01b0319166001600160a01b0392909216919091179055610183565b82805482825590600052602060002090810192821561012e579160200282015b8281111561012e578251829060ff1690559160200191906001019061010e565b5061013a92915061013e565b5090565b5b8082111561013a576000815560010161013f565b60006020828403121561016557600080fd5b81516001600160a01b038116811461017c57600080fd5b9392505050565b6106cf806101926000396000f3fe608060405234801561001057600080fd5b50600436106100415760003560e01c806357de26a414610046578063dae2f4bc14610068578063f601bc8b14610089575b600080fd5b61004e6100a0565b604080519283526020830191909152015b60405180910390f35b61007b61007636600461021f565b61016b565b60405190815260200161005f565b61009161018c565b60405161005f93929190610238565b60008060008060006100b061018c565b9250925092506000836000815181106100cb576100cb6102ce565b602002602001015190506000836000815181106100ea576100ea6102ce565b602002602001015190506000808260000b126101275761010b8260126102fa565b61011690600a6103fd565b6101209084610413565b9050610153565b6101308261042a565b61013b906012610448565b61014690600a6103fd565b6101509084610461565b90505b9767ffffffffffffffff909316965091945050505050565b6002818154811061017b57600080fd5b600091825260209091200154905081565b600154604051631168574f60e21b815260609182916000918291829182916001600160a01b03909116906345a15d3c906101cb90600290600401610483565b600060405180830381865afa1580156101e8573d6000803e3d6000fd5b505050506040513d6000823e601f3d908101601f1916820160405261021091908101906105cd565b91989097509095509350505050565b60006020828403121561023157600080fd5b5035919050565b60608082528451908201819052600090602090608084019082880184805b8381101561027257825185529385019391850191600101610256565b5086840385880152885180855289860194860193509150805b828110156102a9578451820b8452938501939285019260010161028b565b50505067ffffffffffffffff8616604086015292506102c6915050565b949350505050565b634e487b7160e01b600052603260045260246000fd5b634e487b7160e01b600052601160045260246000fd5b60ff8281168282160390811115610313576103136102e4565b92915050565b600181815b8085111561035457816000190482111561033a5761033a6102e4565b8085161561034757918102915b93841c939080029061031e565b509250929050565b60008261036b57506001610313565b8161037857506000610313565b816001811461038e5760028114610398576103b4565b6001915050610313565b60ff8411156103a9576103a96102e4565b50506001821b610313565b5060208310610133831016604e8410600b84101617156103d7575081810a610313565b6103e18383610319565b80600019048211156103f5576103f56102e4565b029392505050565b600061040c60ff84168361035c565b9392505050565b8082028115828204841417610313576103136102e4565b600081810b6080810161043f5761043f6102e4565b60000392915050565b60ff8181168382160190811115610313576103136102e4565b60008261047e57634e487b7160e01b600052601260045260246000fd5b500490565b6020808252825482820181905260008481528281209092916040850190845b818110156104be578354835260019384019392850192016104a2565b50909695505050505050565b634e487b7160e01b600052604160045260246000fd5b604051601f8201601f1916810167ffffffffffffffff81118282101715610509576105096104ca565b604052919050565b600067ffffffffffffffff82111561052b5761052b6104ca565b5060051b60200190565b600082601f83011261054657600080fd5b8151602061055b61055683610511565b6104e0565b82815260059290921b8401810191818101908684111561057a57600080fd5b8286015b848110156105a5578051600081810b8214610597578081fd5b50835291830191830161057e565b509695505050505050565b805167ffffffffffffffff811681146105c857600080fd5b919050565b6000806000606084860312156105e257600080fd5b835167ffffffffffffffff808211156105fa57600080fd5b818601915086601f83011261060e57600080fd5b8151602061061e61055683610511565b82815260059290921b8401810191818101908a84111561063d57600080fd5b948201945b8386101561065b57855182529482019490820190610642565b9189015191975090935050508082111561067457600080fd5b5061068186828701610535565b925050610690604085016105b0565b9050925092509256fea2646970667358221220a7d57713128cd90702e78ed84c49c183f08781d574aa1a68a8cc7383dec2e11964736f6c63430008130033",
  "linkReferences": {},
  "deployedLinkReferences": {}
}