{
  "_format": "hh-sol-artifact-1",
  "contractName": "ABA",
  "sourceName": "contracts/LayerZeroABA.sol",
  "abi": [
    {
      "inputs": [
        {
          "internalType": "address",
          "name": "_endpoint",
          "type": "address"
        },
        {
          "internalType": "address",
          "name": "_owner",
          "type": "address"
        }
      ],
      "stateMutability": "nonpayable",
      "type": "constructor"
    },
    {
      "inputs": [
        {
          "internalType": "address",
          "name": "target",
          "type": "address"
        }
      ],
      "name": "AddressEmptyCode",
      "type": "error"
    },
    {
      "inputs": [
        {
          "internalType": "address",
          "name": "account",
          "type": "address"
        }
      ],
      "name": "AddressInsufficientBalance",
      "type": "error"
    },
    {
      "inputs": [],
      "name": "FailedInnerCall",
      "type": "error"
    },
    {
      "inputs": [],
      "name": "InvalidDelegate",
      "type": "error"
    },
    {
      "inputs": [],
      "name": "InvalidEndpointCall",
      "type": "error"
    },
    {
      "inputs": [],
      "name": "InvalidMsgType",
      "type": "error"
    },
    {
      "inputs": [
        {
          "internalType": "bytes",
          "name": "options",
          "type": "bytes"
        }
      ],
      "name": "InvalidOptions",
      "type": "error"
    },
    {
      "inputs": [],
      "name": "LzTokenUnavailable",
      "type": "error"
    },
    {
      "inputs": [
        {
          "internalType": "uint32",
          "name": "eid",
          "type": "uint32"
        }
      ],
      "name": "NoPeer",
      "type": "error"
    },
    {
      "inputs": [
        {
          "internalType": "uint256",
          "name": "msgValue",
          "type": "uint256"
        }
      ],
      "name": "NotEnoughNative",
      "type": "error"
    },
    {
      "inputs": [
        {
          "internalType": "address",
          "name": "addr",
          "type": "address"
        }
      ],
      "name": "OnlyEndpoint",
      "type": "error"
    },
    {
      "inputs": [
        {
          "internalType": "uint32",
          "name": "eid",
          "type": "uint32"
        },
        {
          "internalType": "bytes32",
          "name": "sender",
          "type": "bytes32"
        }
      ],
      "name": "OnlyPeer",
      "type": "error"
    },
    {
      "inputs": [
        {
          "internalType": "address",
          "name": "owner",
          "type": "address"
        }
      ],
      "name": "OwnableInvalidOwner",
      "type": "error"
    },
    {
      "inputs": [
        {
          "internalType": "address",
          "name": "account",
          "type": "address"
        }
      ],
      "name": "OwnableUnauthorizedAccount",
      "type": "error"
    },
    {
      "inputs": [
        {
          "internalType": "address",
          "name": "token",
          "type": "address"
        }
      ],
      "name": "SafeERC20FailedOperation",
      "type": "error"
    },
    {
      "anonymous": false,
      "inputs": [
        {
          "components": [
            {
              "internalType": "uint32",
              "name": "eid",
              "type": "uint32"
            },
            {
              "internalType": "uint16",
              "name": "msgType",
              "type": "uint16"
            },
            {
              "internalType": "bytes",
              "name": "options",
              "type": "bytes"
            }
          ],
          "indexed": false,
          "internalType": "struct EnforcedOptionParam[]",
          "name": "_enforcedOptions",
          "type": "tuple[]"
        }
      ],
      "name": "EnforcedOptionSet",
      "type": "event"
    },
    {
      "anonymous": false,
      "inputs": [
        {
          "indexed": false,
          "internalType": "string",
          "name": "message",
          "type": "string"
        },
        {
          "indexed": false,
          "internalType": "uint32",
          "name": "senderEid",
          "type": "uint32"
        },
        {
          "indexed": false,
          "internalType": "bytes32",
          "name": "sender",
          "type": "bytes32"
        }
      ],
      "name": "MessageReceived",
      "type": "event"
    },
    {
      "anonymous": false,
      "inputs": [
        {
          "indexed": false,
          "internalType": "string",
          "name": "message",
          "type": "string"
        },
        {
          "indexed": false,
          "internalType": "uint32",
          "name": "dstEid",
          "type": "uint32"
        }
      ],
      "name": "MessageSent",
      "type": "event"
    },
    {
      "anonymous": false,
      "inputs": [
        {
          "indexed": true,
          "internalType": "address",
          "name": "previousOwner",
          "type": "address"
        },
        {
          "indexed": true,
          "internalType": "address",
          "name": "newOwner",
          "type": "address"
        }
      ],
      "name": "OwnershipTransferred",
      "type": "event"
    },
    {
      "anonymous": false,
      "inputs": [
        {
          "indexed": false,
          "internalType": "uint32",
          "name": "eid",
          "type": "uint32"
        },
        {
          "indexed": false,
          "internalType": "bytes32",
          "name": "peer",
          "type": "bytes32"
        }
      ],
      "name": "PeerSet",
      "type": "event"
    },
    {
      "anonymous": false,
      "inputs": [
        {
          "indexed": false,
          "internalType": "string",
          "name": "message",
          "type": "string"
        },
        {
          "indexed": false,
          "internalType": "uint32",
          "name": "dstEid",
          "type": "uint32"
        }
      ],
      "name": "ReturnMessageSent",
      "type": "event"
    },
    {
      "inputs": [],
      "name": "SEND",
      "outputs": [
        {
          "internalType": "uint16",
          "name": "",
          "type": "uint16"
        }
      ],
      "stateMutability": "view",
      "type": "function"
    },
    {
      "inputs": [],
      "name": "SEND_ABA",
      "outputs": [
        {
          "internalType": "uint16",
          "name": "",
          "type": "uint16"
        }
      ],
      "stateMutability": "view",
      "type": "function"
    },
    {
      "inputs": [
        {
          "components": [
            {
              "internalType": "uint32",
              "name": "srcEid",
              "type": "uint32"
            },
            {
              "internalType": "bytes32",
              "name": "sender",
              "type": "bytes32"
            },
            {
              "internalType": "uint64",
              "name": "nonce",
              "type": "uint64"
            }
          ],
          "internalType": "struct Origin",
          "name": "origin",
          "type": "tuple"
        }
      ],
      "name": "allowInitializePath",
      "outputs": [
        {
          "internalType": "bool",
          "name": "",
          "type": "bool"
        }
      ],
      "stateMutability": "view",
      "type": "function"
    },
    {
      "inputs": [
        {
          "internalType": "uint32",
          "name": "_eid",
          "type": "uint32"
        },
        {
          "internalType": "uint16",
          "name": "_msgType",
          "type": "uint16"
        },
        {
          "internalType": "bytes",
          "name": "_extraOptions",
          "type": "bytes"
        }
      ],
      "name": "combineOptions",
      "outputs": [
        {
          "internalType": "bytes",
          "name": "",
          "type": "bytes"
        }
      ],
      "stateMutability": "view",
      "type": "function"
    },
    {
      "inputs": [],
      "name": "data",
      "outputs": [
        {
          "internalType": "string",
          "name": "",
          "type": "string"
        }
      ],
      "stateMutability": "view",
      "type": "function"
    },
    {
      "inputs": [
        {
          "internalType": "bytes",
          "name": "encodedMessage",
          "type": "bytes"
        }
      ],
      "name": "decodeMessage",
      "outputs": [
        {
          "internalType": "string",
          "name": "message",
          "type": "string"
        },
        {
          "internalType": "uint16",
          "name": "msgType",
          "type": "uint16"
        },
        {
          "internalType": "uint256",
          "name": "extraOptionsStart",
          "type": "uint256"
        },
        {
          "internalType": "uint256",
          "name": "extraOptionsLength",
          "type": "uint256"
        }
      ],
      "stateMutability": "pure",
      "type": "function"
    },
    {
      "inputs": [
        {
          "internalType": "string",
          "name": "_message",
          "type": "string"
        },
        {
          "internalType": "uint16",
          "name": "_msgType",
          "type": "uint16"
        },
        {
          "internalType": "bytes",
          "name": "_extraReturnOptions",
          "type": "bytes"
        }
      ],
      "name": "encodeMessage",
      "outputs": [
        {
          "internalType": "bytes",
          "name": "",
          "type": "bytes"
        }
      ],
      "stateMutability": "pure",
      "type": "function"
    },
    {
      "inputs": [],
      "name": "endpoint",
      "outputs": [
        {
          "internalType": "contract ILayerZeroEndpointV2",
          "name": "",
          "type": "address"
        }
      ],
      "stateMutability": "view",
      "type": "function"
    },
    {
      "inputs": [
        {
          "internalType": "uint32",
          "name": "eid",
          "type": "uint32"
        },
        {
          "internalType": "uint16",
          "name": "msgType",
          "type": "uint16"
        }
      ],
      "name": "enforcedOptions",
      "outputs": [
        {
          "internalType": "bytes",
          "name": "enforcedOption",
          "type": "bytes"
        }
      ],
      "stateMutability": "view",
      "type": "function"
    },
    {
      "inputs": [
        {
          "components": [
            {
              "internalType": "uint32",
              "name": "srcEid",
              "type": "uint32"
            },
            {
              "internalType": "bytes32",
              "name": "sender",
              "type": "bytes32"
            },
            {
              "internalType": "uint64",
              "name": "nonce",
              "type": "uint64"
            }
          ],
          "internalType": "struct Origin",
          "name": "",
          "type": "tuple"
        },
        {
          "internalType": "bytes",
          "name": "",
          "type": "bytes"
        },
        {
          "internalType": "address",
          "name": "_sender",
          "type": "address"
        }
      ],
      "name": "isComposeMsgSender",
      "outputs": [
        {
          "internalType": "bool",
          "name": "",
          "type": "bool"
        }
      ],
      "stateMutability": "view",
      "type": "function"
    },
    {
      "inputs": [
        {
          "components": [
            {
              "internalType": "uint32",
              "name": "srcEid",
              "type": "uint32"
            },
            {
              "internalType": "bytes32",
              "name": "sender",
              "type": "bytes32"
            },
            {
              "internalType": "uint64",
              "name": "nonce",
              "type": "uint64"
            }
          ],
          "internalType": "struct Origin",
          "name": "_origin",
          "type": "tuple"
        },
        {
          "internalType": "bytes32",
          "name": "_guid",
          "type": "bytes32"
        },
        {
          "internalType": "bytes",
          "name": "_message",
          "type": "bytes"
        },
        {
          "internalType": "address",
          "name": "_executor",
          "type": "address"
        },
        {
          "internalType": "bytes",
          "name": "_extraData",
          "type": "bytes"
        }
      ],
      "name": "lzReceive",
      "outputs": [],
      "stateMutability": "payable",
      "type": "function"
    },
    {
      "inputs": [
        {
          "internalType": "uint32",
          "name": "",
          "type": "uint32"
        },
        {
          "internalType": "bytes32",
          "name": "",
          "type": "bytes32"
        }
      ],
      "name": "nextNonce",
      "outputs": [
        {
          "internalType": "uint64",
          "name": "nonce",
          "type": "uint64"
        }
      ],
      "stateMutability": "view",
      "type": "function"
    },
    {
      "inputs": [],
      "name": "oAppVersion",
      "outputs": [
        {
          "internalType": "uint64",
          "name": "senderVersion",
          "type": "uint64"
        },
        {
          "internalType": "uint64",
          "name": "receiverVersion",
          "type": "uint64"
        }
      ],
      "stateMutability": "pure",
      "type": "function"
    },
    {
      "inputs": [],
      "name": "owner",
      "outputs": [
        {
          "internalType": "address",
          "name": "",
          "type": "address"
        }
      ],
      "stateMutability": "view",
      "type": "function"
    },
    {
      "inputs": [
        {
          "internalType": "uint32",
          "name": "eid",
          "type": "uint32"
        }
      ],
      "name": "peers",
      "outputs": [
        {
          "internalType": "bytes32",
          "name": "peer",
          "type": "bytes32"
        }
      ],
      "stateMutability": "view",
      "type": "function"
    },
    {
      "inputs": [
        {
          "internalType": "uint32",
          "name": "_dstEid",
          "type": "uint32"
        },
        {
          "internalType": "uint16",
          "name": "_msgType",
          "type": "uint16"
        },
        {
          "internalType": "string",
          "name": "_message",
          "type": "string"
        },
        {
          "internalType": "bytes",
          "name": "_extraSendOptions",
          "type": "bytes"
        },
        {
          "internalType": "bytes",
          "name": "_extraReturnOptions",
          "type": "bytes"
        },
        {
          "internalType": "bool",
          "name": "_payInLzToken",
          "type": "bool"
        }
      ],
      "name": "quote",
      "outputs": [
        {
          "components": [
            {
              "internalType": "uint256",
              "name": "nativeFee",
              "type": "uint256"
            },
            {
              "internalType": "uint256",
              "name": "lzTokenFee",
              "type": "uint256"
            }
          ],
          "internalType": "struct MessagingFee",
          "name": "fee",
          "type": "tuple"
        }
      ],
      "stateMutability": "view",
      "type": "function"
    },
    {
      "inputs": [],
      "name": "renounceOwnership",
      "outputs": [],
      "stateMutability": "nonpayable",
      "type": "function"
    },
    {
      "inputs": [
        {
          "internalType": "uint32",
          "name": "_dstEid",
          "type": "uint32"
        },
        {
          "internalType": "uint16",
          "name": "_msgType",
          "type": "uint16"
        },
        {
          "internalType": "string",
          "name": "_message",
          "type": "string"
        },
        {
          "internalType": "bytes",
          "name": "_extraSendOptions",
          "type": "bytes"
        },
        {
          "internalType": "bytes",
          "name": "_extraReturnOptions",
          "type": "bytes"
        }
      ],
      "name": "send",
      "outputs": [],
      "stateMutability": "payable",
      "type": "function"
    },
    {
      "inputs": [
        {
          "internalType": "address",
          "name": "_delegate",
          "type": "address"
        }
      ],
      "name": "setDelegate",
      "outputs": [],
      "stateMutability": "nonpayable",
      "type": "function"
    },
    {
      "inputs": [
        {
          "components": [
            {
              "internalType": "uint32",
              "name": "eid",
              "type": "uint32"
            },
            {
              "internalType": "uint16",
              "name": "msgType",
              "type": "uint16"
            },
            {
              "internalType": "bytes",
              "name": "options",
              "type": "bytes"
            }
          ],
          "internalType": "struct EnforcedOptionParam[]",
          "name": "_enforcedOptions",
          "type": "tuple[]"
        }
      ],
      "name": "setEnforcedOptions",
      "outputs": [],
      "stateMutability": "nonpayable",
      "type": "function"
    },
    {
      "inputs": [
        {
          "internalType": "uint32",
          "name": "_eid",
          "type": "uint32"
        },
        {
          "internalType": "bytes32",
          "name": "_peer",
          "type": "bytes32"
        }
      ],
      "name": "setPeer",
      "outputs": [],
      "stateMutability": "nonpayable",
      "type": "function"
    },
    {
      "inputs": [
        {
          "internalType": "address",
          "name": "newOwner",
          "type": "address"
        }
      ],
      "name": "transferOwnership",
      "outputs": [],
      "stateMutability": "nonpayable",
      "type": "function"
    },
    {
      "stateMutability": "payable",
      "type": "receive"
    }
  ],
  "bytecode": "0x60e0604052601460a09081527f4e6f7468696e672072656365697665642079657400000000000000000000000060c0526003906200003e908262000238565b503480156200004c57600080fd5b50604051620024fa380380620024fa8339810160408190526200006f9162000321565b8181818133806200009a57604051631e4fbdf760e01b81526000600482015260240160405180910390fd5b620000a58162000141565b506001600160a01b038083166080528116620000d457604051632d618d8160e21b815260040160405180910390fd5b60805160405163ca5eb5e160e01b81526001600160a01b0383811660048301529091169063ca5eb5e190602401600060405180830381600087803b1580156200011c57600080fd5b505af115801562000131573d6000803e3d6000fd5b5050505050505050505062000359565b600080546001600160a01b038381166001600160a01b0319831681178455604051919092169283917f8be0079c531659141344cd1fd0a4f28419497f9722a3daafe3b4186f6b6457e09190a35050565b634e487b7160e01b600052604160045260246000fd5b600181811c90821680620001bc57607f821691505b602082108103620001dd57634e487b7160e01b600052602260045260246000fd5b50919050565b601f82111562000233576000816000526020600020601f850160051c810160208610156200020e5750805b601f850160051c820191505b818110156200022f578281556001016200021a565b5050505b505050565b81516001600160401b0381111562000254576200025462000191565b6200026c81620002658454620001a7565b84620001e3565b602080601f831160018114620002a457600084156200028b5750858301515b600019600386901b1c1916600185901b1785556200022f565b600085815260208120601f198616915b82811015620002d557888601518255948401946001909101908401620002b4565b5085821015620002f45787850151600019600388901b60f8161c191681555b5050505050600190811b01905550565b80516001600160a01b03811681146200031c57600080fd5b919050565b600080604083850312156200033557600080fd5b620003408362000304565b9150620003506020840162000304565b90509250929050565b60805161215b6200039f60003960008181610228015281816104820152818161088401528181610f04015281816110020152818161110601526111bd015261215b6000f3fe6080604052600436106101395760003560e01c806382413eac116100ab578063bc70b3541161006f578063bc70b354146103b2578063ca5eb5e1146103d2578063e84127b6146103f2578063f2fde38b1461042d578063fbe6adea1461044d578063ff7bd03d1461046057600080fd5b806382413eac146102f45780638da5cb5b14610324578063989ac22114610342578063b98bd07014610357578063bb0b6a531461037757600080fd5b80635535d461116100fd5780635535d461146101f65780635e280f1114610216578063634d45b214610262578063715018a61461029257806373d4a13a146102a75780637d25a05e146102bc57600080fd5b806313137d651461014557806317442b701461015a5780631f5e1334146101815780633400288b146101a95780634b160368146101c957600080fd5b3661014057005b600080fd5b610158610153366004611465565b610480565b005b34801561016657600080fd5b50604080516001815260026020820152015b60405180910390f35b34801561018d57600080fd5b50610196600181565b60405161ffff9091168152602001610178565b3480156101b557600080fd5b506101586101c436600461151d565b610540565b3480156101d557600080fd5b506101e96101e4366004611636565b610556565b60405161017891906116f9565b34801561020257600080fd5b506101e961021136600461170c565b61058f565b34801561022257600080fd5b5061024a7f000000000000000000000000000000000000000000000000000000000000000081565b6040516001600160a01b039091168152602001610178565b34801561026e57600080fd5b5061028261027d36600461173f565b610634565b6040516101789493929190611780565b34801561029e57600080fd5b5061015861065c565b3480156102b357600080fd5b506101e9610670565b3480156102c857600080fd5b506102dc6102d736600461151d565b61067d565b6040516001600160401b039091168152602001610178565b34801561030057600080fd5b5061031461030f3660046117b3565b610686565b6040519015158152602001610178565b34801561033057600080fd5b506000546001600160a01b031661024a565b34801561034e57600080fd5b50610196600281565b34801561036357600080fd5b50610158610372366004611819565b61069b565b34801561038357600080fd5b506103a461039236600461188d565b60016020526000908152604090205481565b604051908152602001610178565b3480156103be57600080fd5b506101e96103cd3660046118a8565b6106b5565b3480156103de57600080fd5b506101586103ed366004611908565b61085d565b3480156103fe57600080fd5b5061041261040d366004611933565b6108e3565b60408051825181526020928301519281019290925201610178565b34801561043957600080fd5b50610158610448366004611908565b610967565b61015861045b3660046119fb565b6109a5565b34801561046c57600080fd5b5061031461047b366004611a90565b610ae5565b7f00000000000000000000000000000000000000000000000000000000000000006001600160a01b031633146104d0576040516391ac5e4f60e01b81523360048201526024015b60405180910390fd5b602087018035906104ea906104e5908a61188d565b610b1b565b14610528576104fc602088018861188d565b60405163309afaf360e21b815263ffffffff9091166004820152602088013560248201526044016104c7565b61053787878787878787610b57565b50505050505050565b610548610cde565b6105528282610d0b565b5050565b8051604051606091906105759086908690849087908290602001611aac565b6040516020818303038152906040529150505b9392505050565b6002602090815260009283526040808420909152908252902080546105b390611af4565b80601f01602080910402602001604051908101604052809291908181526020018280546105df90611af4565b801561062c5780601f106106015761010080835404028352916020019161062c565b820191906000526020600020905b81548152906001019060200180831161060f57829003601f168201915b505050505081565b6060600061010081838161064a87890189611b28565b91975095509250505092959194509250565b610664610cde565b61066e6000610d60565b565b600380546105b390611af4565b60005b92915050565b6001600160a01b03811630145b949350505050565b6106a3610cde565b6105526106b08284611b7e565b610db0565b63ffffffff8416600090815260026020908152604080832061ffff871684529091528120805460609291906106e990611af4565b80601f016020809104026020016040519081016040528092919081815260200182805461071590611af4565b80156107625780601f1061073757610100808354040283529160200191610762565b820191906000526020600020905b81548152906001019060200180831161074557829003601f168201915b5050505050905080516000036107b25783838080601f0160208091040260200160405190810160405280939291908181526020018383808284376000920191909152509294506106939350505050565b60008390036107c2579050610693565b600283106108405761080984848080601f016020809104026020016040519081016040528093929190818152602001838380828437600092019190915250610ec292505050565b806108178460028188611c53565b60405160200161082993929190611c7d565b604051602081830303815290604052915050610693565b8383604051639a6d49cd60e01b81526004016104c7929190611ca5565b610865610cde565b60405163ca5eb5e160e01b81526001600160a01b0382811660048301527f0000000000000000000000000000000000000000000000000000000000000000169063ca5eb5e190602401600060405180830381600087803b1580156108c857600080fd5b505af11580156108dc573d6000803e3d6000fd5b5050505050565b6040805180820190915260008082526020820152600061093a888a87878080601f01602080910402602001604051908101604052809392919081815260200183838082843760009201919091525061055692505050565b9050600061094a8b8b8a8a6106b5565b90506109588b838387610eee565b9b9a5050505050505050505050565b61096f610cde565b6001600160a01b03811661099957604051631e4fbdf760e01b8152600060048201526024016104c7565b6109a281610d60565b50565b6020855111156109f75760405162461bcd60e51b815260206004820152601760248201527f537472696e67206578636565647320333220627974657300000000000000000060448201526064016104c7565b61ffff8616600114801590610a11575061ffff8616600214155b15610a2f5760405163f23fef6f60e01b815260040160405180910390fd5b6000610a3d888887876106b5565b9050610aa188610a84888a87878080601f01602080910402602001604051908101604052809392919081815260200183838082843760009201919091525061055692505050565b836040518060400160405280348152602001600081525033610fcf565b507f71ad68601a82041bbc9d2b191989148b957e85070fcb61edc57cc095fe6050358689604051610ad3929190611cd4565b60405180910390a15050505050505050565b6000602082018035906001908390610afd908661188d565b63ffffffff1681526020810191909152604001600020541492915050565b63ffffffff8116600090815260016020526040812054806106805760405163f6ff4fb760e01b815263ffffffff841660048201526024016104c7565b600080600080610b678989610634565b929650909450925090506003610b7d8582611d4c565b5060011961ffff841601610c8557604080518082019091526015815274436861696e2042207361797320676f6f646279652160581b602080830191909152600090610bea90610bce908f018f61188d565b60018d878e610bdd8983611e0b565b926103cd93929190611c53565b9050610c36610bfc60208f018f61188d565b836001604051602001610c10929190611e2c565b60408051601f198184030181528282019091523482526000602083015290849030610fcf565b507f6df5a916f7f40c5e5ba500651c96de4d1dbdb5b025b575a3ffd8712e9ad0ec99828e6000016020810190610c6c919061188d565b604051610c7a929190611cd4565b60405180910390a150505b7fa949771779bb2404fe7f2a86c5dba066fa48fd90bde2ff9cc9d32eae4f3af2f56003610cb560208e018e61188d565b8d60200135604051610cc993929190611e52565b60405180910390a15050505050505050505050565b6000546001600160a01b0316331461066e5760405163118cdaa760e01b81523360048201526024016104c7565b63ffffffff8216600081815260016020908152604091829020849055815192835282018390527f238399d427b947898edb290f5ff0f9109849b1c3ba196a42e35f00c50a54b98b910160405180910390a15050565b600080546001600160a01b038381166001600160a01b0319831681178455604051919092169283917f8be0079c531659141344cd1fd0a4f28419497f9722a3daafe3b4186f6b6457e09190a35050565b60005b8151811015610e8757610de2828281518110610dd157610dd1611ef5565b602002602001015160400151610ec2565b818181518110610df457610df4611ef5565b60200260200101516040015160026000848481518110610e1657610e16611ef5565b60200260200101516000015163ffffffff1663ffffffff1681526020019081526020016000206000848481518110610e5057610e50611ef5565b60200260200101516020015161ffff1661ffff1681526020019081526020016000209081610e7e9190611d4c565b50600101610db3565b507fbe4864a8e820971c0247f5992e2da559595f7bf076a21cb5928d443d2a13b67481604051610eb79190611f0b565b60405180910390a150565b600281015161ffff81166003146105525781604051639a6d49cd60e01b81526004016104c791906116f9565b60408051808201909152600080825260208201527f00000000000000000000000000000000000000000000000000000000000000006001600160a01b031663ddc28c586040518060a001604052808863ffffffff168152602001610f5189610b1b565b8152602001878152602001868152602001851515815250306040518363ffffffff1660e01b8152600401610f86929190611f96565b6040805180830381865afa158015610fa2573d6000803e3d6000fd5b505050506040513d601f19601f82011682018060405250810190610fc6919061205d565b95945050505050565b610fd76113a9565b6000610fe684600001516110da565b602085015190915015611000576110008460200151611102565b7f00000000000000000000000000000000000000000000000000000000000000006001600160a01b0316632637a450826040518060a001604052808b63ffffffff1681526020016110508c610b1b565b81526020018a815260200189815260200160008960200151111515815250866040518463ffffffff1660e01b815260040161108c929190611f96565b60806040518083038185885af11580156110aa573d6000803e3d6000fd5b50505050506040513d601f19601f820116820180604052508101906110cf9190612079565b979650505050505050565b60008134146110fe576040516304fb820960e51b81523460048201526024016104c7565b5090565b60007f00000000000000000000000000000000000000000000000000000000000000006001600160a01b031663e4fe1d946040518163ffffffff1660e01b8152600401602060405180830381865afa158015611162573d6000803e3d6000fd5b505050506040513d601f19601f8201168201806040525081019061118691906120cf565b90506001600160a01b0381166111af576040516329b99a9560e11b815260040160405180910390fd5b6040805133602482018190527f00000000000000000000000000000000000000000000000000000000000000006001600160a01b03818116604485015260648085018890528551808603909101815260849094019094526020830180516001600160e01b03166323b872dd60e01b17905261055293851692869061123490859061123a565b50505050565b600061124f6001600160a01b038416836112a2565b9050805160001415801561127457508080602001905181019061127291906120ec565b155b1561129d57604051635274afe760e01b81526001600160a01b03841660048201526024016104c7565b505050565b60606105888383600084600080856001600160a01b031684866040516112c89190612109565b60006040518083038185875af1925050503d8060008114611305576040519150601f19603f3d011682016040523d82523d6000602084013e61130a565b606091505b509150915061131a868383611324565b9695505050505050565b6060826113395761133482611380565b610588565b815115801561135057506001600160a01b0384163b155b1561137957604051639996b31560e01b81526001600160a01b03851660048201526024016104c7565b5080610588565b8051156113905780518082602001fd5b604051630a12f52160e11b815260040160405180910390fd5b60405180606001604052806000801916815260200160006001600160401b031681526020016113eb604051806040016040528060008152602001600081525090565b905290565b60006060828403121561140257600080fd5b50919050565b60008083601f84011261141a57600080fd5b5081356001600160401b0381111561143157600080fd5b60208301915083602082850101111561144957600080fd5b9250929050565b6001600160a01b03811681146109a257600080fd5b600080600080600080600060e0888a03121561148057600080fd5b61148a89896113f0565b96506060880135955060808801356001600160401b03808211156114ad57600080fd5b6114b98b838c01611408565b909750955060a08a013591506114ce82611450565b90935060c089013590808211156114e457600080fd5b506114f18a828b01611408565b989b979a50959850939692959293505050565b803563ffffffff8116811461151857600080fd5b919050565b6000806040838503121561153057600080fd5b61153983611504565b946020939093013593505050565b634e487b7160e01b600052604160045260246000fd5b604051606081016001600160401b038111828210171561157f5761157f611547565b60405290565b604051601f8201601f191681016001600160401b03811182821017156115ad576115ad611547565b604052919050565b600082601f8301126115c657600080fd5b81356001600160401b038111156115df576115df611547565b6115f2601f8201601f1916602001611585565b81815284602083860101111561160757600080fd5b816020850160208301376000918101602001919091529392505050565b803561ffff8116811461151857600080fd5b60008060006060848603121561164b57600080fd5b83356001600160401b038082111561166257600080fd5b61166e878388016115b5565b945061167c60208701611624565b9350604086013591508082111561169257600080fd5b5061169f868287016115b5565b9150509250925092565b60005b838110156116c45781810151838201526020016116ac565b50506000910152565b600081518084526116e58160208601602086016116a9565b601f01601f19169290920160200192915050565b60208152600061058860208301846116cd565b6000806040838503121561171f57600080fd5b61172883611504565b915061173660208401611624565b90509250929050565b6000806020838503121561175257600080fd5b82356001600160401b0381111561176857600080fd5b61177485828601611408565b90969095509350505050565b60808152600061179360808301876116cd565b61ffff959095166020830152506040810192909252606090910152919050565b60008060008060a085870312156117c957600080fd5b6117d386866113f0565b935060608501356001600160401b038111156117ee57600080fd5b6117fa87828801611408565b909450925050608085013561180e81611450565b939692955090935050565b6000806020838503121561182c57600080fd5b82356001600160401b038082111561184357600080fd5b818501915085601f83011261185757600080fd5b81358181111561186657600080fd5b8660208260051b850101111561187b57600080fd5b60209290920196919550909350505050565b60006020828403121561189f57600080fd5b61058882611504565b600080600080606085870312156118be57600080fd5b6118c785611504565b93506118d560208601611624565b925060408501356001600160401b038111156118f057600080fd5b6118fc87828801611408565b95989497509550505050565b60006020828403121561191a57600080fd5b813561058881611450565b80151581146109a257600080fd5b60008060008060008060008060c0898b03121561194f57600080fd5b61195889611504565b975061196660208a01611624565b965060408901356001600160401b038082111561198257600080fd5b61198e8c838d016115b5565b975060608b01359150808211156119a457600080fd5b6119b08c838d01611408565b909750955060808b01359150808211156119c957600080fd5b506119d68b828c01611408565b90945092505060a08901356119ea81611925565b809150509295985092959890939650565b600080600080600080600060a0888a031215611a1657600080fd5b611a1f88611504565b9650611a2d60208901611624565b955060408801356001600160401b0380821115611a4957600080fd5b611a558b838c016115b5565b965060608a0135915080821115611a6b57600080fd5b611a778b838c01611408565b909650945060808a01359150808211156114e457600080fd5b600060608284031215611aa257600080fd5b61058883836113f0565b60a081526000611abf60a08301886116cd565b61ffff871660208401528560408401528281036060840152611ae181866116cd565b9150508260808301529695505050505050565b600181811c90821680611b0857607f821691505b60208210810361140257634e487b7160e01b600052602260045260246000fd5b600080600060608486031215611b3d57600080fd5b83356001600160401b03811115611b5357600080fd5b611b5f868287016115b5565b935050611b6e60208501611624565b9150604084013590509250925092565b60006001600160401b0380841115611b9857611b98611547565b8360051b6020611ba9818301611585565b868152918501918181019036841115611bc157600080fd5b865b84811015611c4757803586811115611bdb5760008081fd5b88016060368290031215611bef5760008081fd5b611bf761155d565b611c0082611504565b8152611c0d868301611624565b8682015260408083013589811115611c255760008081fd5b611c31368286016115b5565b9183019190915250845250918301918301611bc3565b50979650505050505050565b60008085851115611c6357600080fd5b83861115611c7057600080fd5b5050820193919092039150565b60008451611c8f8184602089016116a9565b8201838582376000930192835250909392505050565b60208152816020820152818360408301376000818301604090810191909152601f909201601f19160101919050565b604081526000611ce760408301856116cd565b905063ffffffff831660208301529392505050565b601f82111561129d576000816000526020600020601f850160051c81016020861015611d255750805b601f850160051c820191505b81811015611d4457828155600101611d31565b505050505050565b81516001600160401b03811115611d6557611d65611547565b611d7981611d738454611af4565b84611cfc565b602080601f831160018114611dae5760008415611d965750858301515b600019600386901b1c1916600185901b178555611d44565b600085815260208120601f198616915b82811015611ddd57888601518255948401946001909101908401611dbe565b5085821015611dfb5787850151600019600388901b60f8161c191681555b5050505050600190811b01905550565b8082018082111561068057634e487b7160e01b600052601160045260246000fd5b604081526000611e3f60408301856116cd565b905061ffff831660208301529392505050565b606081526000808554611e6481611af4565b8060608601526080600180841660008114611e865760018114611ea257611ed4565b60ff1985166080890152608084151560051b8901019550611ed4565b8a60005260208060002060005b86811015611eca5781548b8201870152908401908201611eaf565b8a01608001975050505b5050505063ffffffff86166020850152509050826040830152949350505050565b634e487b7160e01b600052603260045260246000fd5b600060208083018184528085518083526040925060408601915060408160051b87010184880160005b83811015611f8857888303603f190185528151805163ffffffff1684528781015161ffff16888501528601516060878501819052611f74818601836116cd565b968901969450505090860190600101611f34565b509098975050505050505050565b6040815263ffffffff8351166040820152602083015160608201526000604084015160a06080840152611fcc60e08401826116cd565b90506060850151603f198483030160a0850152611fe982826116cd565b60809690960151151560c08501525050506001600160a01b039190911660209091015290565b60006040828403121561202157600080fd5b604051604081018181106001600160401b038211171561204357612043611547565b604052825181526020928301519281019290925250919050565b60006040828403121561206f57600080fd5b610588838361200f565b60006080828403121561208b57600080fd5b61209361155d565b8251815260208301516001600160401b03811681146120b157600080fd5b60208201526120c3846040850161200f565b60408201529392505050565b6000602082840312156120e157600080fd5b815161058881611450565b6000602082840312156120fe57600080fd5b815161058881611925565b6000825161211b8184602087016116a9565b919091019291505056fea264697066735822122082f7da6f4f88818505a179689c4eae20f17b363e57c44a641148b0c76874abf464736f6c63430008160033",
  "linkReferences": {},
  "deployedLinkReferences": {}
}