{
  "_format": "hh-sol-artifact-1",
  "contractName": "MyOApp",
  "sourceName": "contracts/MyOApp.sol",
  "abi": [
    {
      "inputs": [
        {
          "internalType": "address",
          "name": "_endpoint",
          "type": "address"
        },
        {
          "internalType": "address",
          "name": "_delegate",
          "type": "address"
        }
      ],
      "stateMutability": "nonpayable",
      "type": "constructor"
    },
    {
      "inputs": [
        {
          "internalType": "address",
          "name": "target",
          "type": "address"
        }
      ],
      "name": "AddressEmptyCode",
      "type": "error"
    },
    {
      "inputs": [
        {
          "internalType": "address",
          "name": "account",
          "type": "address"
        }
      ],
      "name": "AddressInsufficientBalance",
      "type": "error"
    },
    {
      "inputs": [],
      "name": "FailedInnerCall",
      "type": "error"
    },
    {
      "inputs": [],
      "name": "InvalidDelegate",
      "type": "error"
    },
    {
      "inputs": [],
      "name": "InvalidEndpointCall",
      "type": "error"
    },
    {
      "inputs": [],
      "name": "LzTokenUnavailable",
      "type": "error"
    },
    {
      "inputs": [
        {
          "internalType": "uint32",
          "name": "eid",
          "type": "uint32"
        }
      ],
      "name": "NoPeer",
      "type": "error"
    },
    {
      "inputs": [
        {
          "internalType": "uint256",
          "name": "msgValue",
          "type": "uint256"
        }
      ],
      "name": "NotEnoughNative",
      "type": "error"
    },
    {
      "inputs": [
        {
          "internalType": "address",
          "name": "addr",
          "type": "address"
        }
      ],
      "name": "OnlyEndpoint",
      "type": "error"
    },
    {
      "inputs": [
        {
          "internalType": "uint32",
          "name": "eid",
          "type": "uint32"
        },
        {
          "internalType": "bytes32",
          "name": "sender",
          "type": "bytes32"
        }
      ],
      "name": "OnlyPeer",
      "type": "error"
    },
    {
      "inputs": [
        {
          "internalType": "address",
          "name": "owner",
          "type": "address"
        }
      ],
      "name": "OwnableInvalidOwner",
      "type": "error"
    },
    {
      "inputs": [
        {
          "internalType": "address",
          "name": "account",
          "type": "address"
        }
      ],
      "name": "OwnableUnauthorizedAccount",
      "type": "error"
    },
    {
      "inputs": [
        {
          "internalType": "address",
          "name": "token",
          "type": "address"
        }
      ],
      "name": "SafeERC20FailedOperation",
      "type": "error"
    },
    {
      "anonymous": false,
      "inputs": [
        {
          "indexed": true,
          "internalType": "address",
          "name": "previousOwner",
          "type": "address"
        },
        {
          "indexed": true,
          "internalType": "address",
          "name": "newOwner",
          "type": "address"
        }
      ],
      "name": "OwnershipTransferred",
      "type": "event"
    },
    {
      "anonymous": false,
      "inputs": [
        {
          "indexed": false,
          "internalType": "uint32",
          "name": "eid",
          "type": "uint32"
        },
        {
          "indexed": false,
          "internalType": "bytes32",
          "name": "peer",
          "type": "bytes32"
        }
      ],
      "name": "PeerSet",
      "type": "event"
    },
    {
      "inputs": [
        {
          "components": [
            {
              "internalType": "uint32",
              "name": "srcEid",
              "type": "uint32"
            },
            {
              "internalType": "bytes32",
              "name": "sender",
              "type": "bytes32"
            },
            {
              "internalType": "uint64",
              "name": "nonce",
              "type": "uint64"
            }
          ],
          "internalType": "struct Origin",
          "name": "origin",
          "type": "tuple"
        }
      ],
      "name": "allowInitializePath",
      "outputs": [
        {
          "internalType": "bool",
          "name": "",
          "type": "bool"
        }
      ],
      "stateMutability": "view",
      "type": "function"
    },
    {
      "inputs": [],
      "name": "data",
      "outputs": [
        {
          "internalType": "string",
          "name": "",
          "type": "string"
        }
      ],
      "stateMutability": "view",
      "type": "function"
    },
    {
      "inputs": [],
      "name": "endpoint",
      "outputs": [
        {
          "internalType": "contract ILayerZeroEndpointV2",
          "name": "",
          "type": "address"
        }
      ],
      "stateMutability": "view",
      "type": "function"
    },
    {
      "inputs": [
        {
          "components": [
            {
              "internalType": "uint32",
              "name": "srcEid",
              "type": "uint32"
            },
            {
              "internalType": "bytes32",
              "name": "sender",
              "type": "bytes32"
            },
            {
              "internalType": "uint64",
              "name": "nonce",
              "type": "uint64"
            }
          ],
          "internalType": "struct Origin",
          "name": "",
          "type": "tuple"
        },
        {
          "internalType": "bytes",
          "name": "",
          "type": "bytes"
        },
        {
          "internalType": "address",
          "name": "_sender",
          "type": "address"
        }
      ],
      "name": "isComposeMsgSender",
      "outputs": [
        {
          "internalType": "bool",
          "name": "",
          "type": "bool"
        }
      ],
      "stateMutability": "view",
      "type": "function"
    },
    {
      "inputs": [
        {
          "components": [
            {
              "internalType": "uint32",
              "name": "srcEid",
              "type": "uint32"
            },
            {
              "internalType": "bytes32",
              "name": "sender",
              "type": "bytes32"
            },
            {
              "internalType": "uint64",
              "name": "nonce",
              "type": "uint64"
            }
          ],
          "internalType": "struct Origin",
          "name": "_origin",
          "type": "tuple"
        },
        {
          "internalType": "bytes32",
          "name": "_guid",
          "type": "bytes32"
        },
        {
          "internalType": "bytes",
          "name": "_message",
          "type": "bytes"
        },
        {
          "internalType": "address",
          "name": "_executor",
          "type": "address"
        },
        {
          "internalType": "bytes",
          "name": "_extraData",
          "type": "bytes"
        }
      ],
      "name": "lzReceive",
      "outputs": [],
      "stateMutability": "payable",
      "type": "function"
    },
    {
      "inputs": [
        {
          "internalType": "uint32",
          "name": "",
          "type": "uint32"
        },
        {
          "internalType": "bytes32",
          "name": "",
          "type": "bytes32"
        }
      ],
      "name": "nextNonce",
      "outputs": [
        {
          "internalType": "uint64",
          "name": "nonce",
          "type": "uint64"
        }
      ],
      "stateMutability": "view",
      "type": "function"
    },
    {
      "inputs": [],
      "name": "oAppVersion",
      "outputs": [
        {
          "internalType": "uint64",
          "name": "senderVersion",
          "type": "uint64"
        },
        {
          "internalType": "uint64",
          "name": "receiverVersion",
          "type": "uint64"
        }
      ],
      "stateMutability": "pure",
      "type": "function"
    },
    {
      "inputs": [],
      "name": "owner",
      "outputs": [
        {
          "internalType": "address",
          "name": "",
          "type": "address"
        }
      ],
      "stateMutability": "view",
      "type": "function"
    },
    {
      "inputs": [
        {
          "internalType": "uint32",
          "name": "eid",
          "type": "uint32"
        }
      ],
      "name": "peers",
      "outputs": [
        {
          "internalType": "bytes32",
          "name": "peer",
          "type": "bytes32"
        }
      ],
      "stateMutability": "view",
      "type": "function"
    },
    {
      "inputs": [
        {
          "internalType": "uint32",
          "name": "_dstEid",
          "type": "uint32"
        },
        {
          "internalType": "string",
          "name": "_message",
          "type": "string"
        },
        {
          "internalType": "bytes",
          "name": "_options",
          "type": "bytes"
        },
        {
          "internalType": "bool",
          "name": "_payInLzToken",
          "type": "bool"
        }
      ],
      "name": "quote",
      "outputs": [
        {
          "components": [
            {
              "internalType": "uint256",
              "name": "nativeFee",
              "type": "uint256"
            },
            {
              "internalType": "uint256",
              "name": "lzTokenFee",
              "type": "uint256"
            }
          ],
          "internalType": "struct MessagingFee",
          "name": "fee",
          "type": "tuple"
        }
      ],
      "stateMutability": "view",
      "type": "function"
    },
    {
      "inputs": [],
      "name": "renounceOwnership",
      "outputs": [],
      "stateMutability": "nonpayable",
      "type": "function"
    },
    {
      "inputs": [
        {
          "internalType": "uint32",
          "name": "_dstEid",
          "type": "uint32"
        },
        {
          "internalType": "string",
          "name": "_message",
          "type": "string"
        },
        {
          "internalType": "bytes",
          "name": "_options",
          "type": "bytes"
        }
      ],
      "name": "send",
      "outputs": [
        {
          "components": [
            {
              "internalType": "bytes32",
              "name": "guid",
              "type": "bytes32"
            },
            {
              "internalType": "uint64",
              "name": "nonce",
              "type": "uint64"
            },
            {
              "components": [
                {
                  "internalType": "uint256",
                  "name": "nativeFee",
                  "type": "uint256"
                },
                {
                  "internalType": "uint256",
                  "name": "lzTokenFee",
                  "type": "uint256"
                }
              ],
              "internalType": "struct MessagingFee",
              "name": "fee",
              "type": "tuple"
            }
          ],
          "internalType": "struct MessagingReceipt",
          "name": "receipt",
          "type": "tuple"
        }
      ],
      "stateMutability": "payable",
      "type": "function"
    },
    {
      "inputs": [
        {
          "internalType": "address",
          "name": "_delegate",
          "type": "address"
        }
      ],
      "name": "setDelegate",
      "outputs": [],
      "stateMutability": "nonpayable",
      "type": "function"
    },
    {
      "inputs": [
        {
          "internalType": "uint32",
          "name": "_eid",
          "type": "uint32"
        },
        {
          "internalType": "bytes32",
          "name": "_peer",
          "type": "bytes32"
        }
      ],
      "name": "setPeer",
      "outputs": [],
      "stateMutability": "nonpayable",
      "type": "function"
    },
    {
      "inputs": [
        {
          "internalType": "address",
          "name": "newOwner",
          "type": "address"
        }
      ],
      "name": "transferOwnership",
      "outputs": [],
      "stateMutability": "nonpayable",
      "type": "function"
    }
  ],
  "bytecode": "0x60e0604052601560a09081527f4e6f7468696e67207265636569766564207965742e000000000000000000000060c0526002906200003e908262000241565b503480156200004c57600080fd5b5060405162001877380380620018778339810160408190526200006f916200032a565b81818181806001600160a01b038116620000a357604051631e4fbdf760e01b81526000600482015260240160405180910390fd5b620000ae816200014a565b506001600160a01b038083166080528116620000dd57604051632d618d8160e21b815260040160405180910390fd5b60805160405163ca5eb5e160e01b81526001600160a01b0383811660048301529091169063ca5eb5e190602401600060405180830381600087803b1580156200012557600080fd5b505af11580156200013a573d6000803e3d6000fd5b5050505050505050505062000362565b600080546001600160a01b038381166001600160a01b0319831681178455604051919092169283917f8be0079c531659141344cd1fd0a4f28419497f9722a3daafe3b4186f6b6457e09190a35050565b634e487b7160e01b600052604160045260246000fd5b600181811c90821680620001c557607f821691505b602082108103620001e657634e487b7160e01b600052602260045260246000fd5b50919050565b601f8211156200023c576000816000526020600020601f850160051c81016020861015620002175750805b601f850160051c820191505b81811015620002385782815560010162000223565b5050505b505050565b81516001600160401b038111156200025d576200025d6200019a565b62000275816200026e8454620001b0565b84620001ec565b602080601f831160018114620002ad5760008415620002945750858301515b600019600386901b1c1916600185901b17855562000238565b600085815260208120601f198616915b82811015620002de57888601518255948401946001909101908401620002bd565b5085821015620002fd5787850151600019600388901b60f8161c191681555b5050505050600190811b01905550565b80516001600160a01b03811681146200032557600080fd5b919050565b600080604083850312156200033e57600080fd5b62000349836200030d565b915062000359602084016200030d565b90509250929050565b6080516114cf620003a86000396000818161015b0152818161034b015281816104f1015281816107f5015281816108e3015281816109da0152610a9101526114cf6000f3fe6080604052600436106100e85760003560e01c806382413eac1161008a578063e0539e5811610059578063e0539e58146102bc578063f2fde38b146102dc578063f77e5dd3146102fc578063ff7bd03d1461032957600080fd5b806382413eac146102045780638da5cb5b14610243578063bb0b6a5314610261578063ca5eb5e11461029c57600080fd5b80635e280f11116100c65780635e280f1114610149578063715018a61461019557806373d4a13a146101aa5780637d25a05e146101cc57600080fd5b806313137d65146100ed57806317442b70146101025780633400288b14610129575b600080fd5b6101006100fb366004610d5a565b610349565b005b34801561010e57600080fd5b50604080516001815260026020820152015b60405180910390f35b34801561013557600080fd5b50610100610144366004610e12565b610409565b34801561015557600080fd5b5061017d7f000000000000000000000000000000000000000000000000000000000000000081565b6040516001600160a01b039091168152602001610120565b3480156101a157600080fd5b5061010061041f565b3480156101b657600080fd5b506101bf610433565b6040516101209190610e8c565b3480156101d857600080fd5b506101ec6101e7366004610e12565b6104c1565b6040516001600160401b039091168152602001610120565b34801561021057600080fd5b5061023361021f366004610e9f565b6001600160a01b0381163014949350505050565b6040519015158152602001610120565b34801561024f57600080fd5b506000546001600160a01b031661017d565b34801561026d57600080fd5b5061028e61027c366004610f05565b60016020526000908152604090205481565b604051908152602001610120565b3480156102a857600080fd5b506101006102b7366004610f20565b6104ca565b6102cf6102ca366004610fe8565b610550565b604051610120919061105e565b3480156102e857600080fd5b506101006102f7366004610f20565b6105d9565b34801561030857600080fd5b5061031c6103173660046110ae565b610617565b604051610120919061113d565b34801561033557600080fd5b50610233610344366004611154565b61065b565b7f00000000000000000000000000000000000000000000000000000000000000006001600160a01b03163314610399576040516391ac5e4f60e01b81523360048201526024015b60405180910390fd5b602087018035906103b3906103ae908a610f05565b610691565b146103f1576103c56020880188610f05565b60405163309afaf360e21b815263ffffffff909116600482015260208801356024820152604401610390565b610400878787878787876106cd565b50505050505050565b6104116106f0565b61041b828261071d565b5050565b6104276106f0565b6104316000610772565b565b6002805461044090611170565b80601f016020809104026020016040519081016040528092919081815260200182805461046c90611170565b80156104b95780601f1061048e576101008083540402835291602001916104b9565b820191906000526020600020905b81548152906001019060200180831161049c57829003601f168201915b505050505081565b60005b92915050565b6104d26106f0565b60405163ca5eb5e160e01b81526001600160a01b0382811660048301527f0000000000000000000000000000000000000000000000000000000000000000169063ca5eb5e190602401600060405180830381600087803b15801561053557600080fd5b505af1158015610549573d6000803e3d6000fd5b5050505050565b610558610c9e565b60008460405160200161056b9190610e8c565b60408051601f198184030181526020601f870181900481028401810190925285835292506105cf9188918491908890889081908401838280828437600092018290525060408051808201909152348152602081019190915292503391506107c29050565b9695505050505050565b6105e16106f0565b6001600160a01b03811661060b57604051631e4fbdf760e01b815260006004820152602401610390565b61061481610772565b50565b604080518082019091526000808252602082015260008460405160200161063e9190610e8c565b60405160208183030381529060405290506105cf868286866108cd565b60006020820180359060019083906106739086610f05565b63ffffffff1681526020810191909152604001600020541492915050565b63ffffffff8116600090815260016020526040812054806104c45760405163f6ff4fb760e01b815263ffffffff84166004820152602401610390565b6106d9848601866111a4565b6002906106e69082611230565b5050505050505050565b6000546001600160a01b031633146104315760405163118cdaa760e01b8152336004820152602401610390565b63ffffffff8216600081815260016020908152604091829020849055815192835282018390527f238399d427b947898edb290f5ff0f9109849b1c3ba196a42e35f00c50a54b98b910160405180910390a15050565b600080546001600160a01b038381166001600160a01b0319831681178455604051919092169283917f8be0079c531659141344cd1fd0a4f28419497f9722a3daafe3b4186f6b6457e09190a35050565b6107ca610c9e565b60006107d984600001516109ae565b6020850151909150156107f3576107f384602001516109d6565b7f00000000000000000000000000000000000000000000000000000000000000006001600160a01b0316632637a450826040518060a001604052808b63ffffffff1681526020016108438c610691565b81526020018a815260200189815260200160008960200151111515815250866040518463ffffffff1660e01b815260040161087f9291906112ef565b60806040518083038185885af115801561089d573d6000803e3d6000fd5b50505050506040513d601f19601f820116820180604052508101906108c291906113b6565b979650505050505050565b60408051808201909152600080825260208201527f00000000000000000000000000000000000000000000000000000000000000006001600160a01b031663ddc28c586040518060a001604052808863ffffffff16815260200161093089610691565b8152602001878152602001868152602001851515815250306040518363ffffffff1660e01b81526004016109659291906112ef565b6040805180830381865afa158015610981573d6000803e3d6000fd5b505050506040513d601f19601f820116820180604052508101906109a59190611427565b95945050505050565b60008134146109d2576040516304fb820960e51b8152346004820152602401610390565b5090565b60007f00000000000000000000000000000000000000000000000000000000000000006001600160a01b031663e4fe1d946040518163ffffffff1660e01b8152600401602060405180830381865afa158015610a36573d6000803e3d6000fd5b505050506040513d601f19601f82011682018060405250810190610a5a9190611443565b90506001600160a01b038116610a83576040516329b99a9560e11b815260040160405180910390fd5b6040805133602482018190527f00000000000000000000000000000000000000000000000000000000000000006001600160a01b03818116604485015260648085018890528551808603909101815260849094019094526020830180516001600160e01b03166323b872dd60e01b17905261041b938516928690610b08908590610b0e565b50505050565b6000610b236001600160a01b03841683610b76565b90508051600014158015610b48575080806020019051810190610b469190611460565b155b15610b7157604051635274afe760e01b81526001600160a01b0384166004820152602401610390565b505050565b6060610b8483836000610b8b565b9392505050565b606081471015610bb05760405163cd78605960e01b8152306004820152602401610390565b600080856001600160a01b03168486604051610bcc919061147d565b60006040518083038185875af1925050503d8060008114610c09576040519150601f19603f3d011682016040523d82523d6000602084013e610c0e565b606091505b50915091506105cf868383606082610c2e57610c2982610c75565b610b84565b8151158015610c4557506001600160a01b0384163b155b15610c6e57604051639996b31560e01b81526001600160a01b0385166004820152602401610390565b5080610b84565b805115610c855780518082602001fd5b604051630a12f52160e11b815260040160405180910390fd5b60405180606001604052806000801916815260200160006001600160401b03168152602001610ce0604051806040016040528060008152602001600081525090565b905290565b600060608284031215610cf757600080fd5b50919050565b60008083601f840112610d0f57600080fd5b5081356001600160401b03811115610d2657600080fd5b602083019150836020828501011115610d3e57600080fd5b9250929050565b6001600160a01b038116811461061457600080fd5b600080600080600080600060e0888a031215610d7557600080fd5b610d7f8989610ce5565b96506060880135955060808801356001600160401b0380821115610da257600080fd5b610dae8b838c01610cfd565b909750955060a08a01359150610dc382610d45565b90935060c08901359080821115610dd957600080fd5b50610de68a828b01610cfd565b989b979a50959850939692959293505050565b803563ffffffff81168114610e0d57600080fd5b919050565b60008060408385031215610e2557600080fd5b610e2e83610df9565b946020939093013593505050565b60005b83811015610e57578181015183820152602001610e3f565b50506000910152565b60008151808452610e78816020860160208601610e3c565b601f01601f19169290920160200192915050565b602081526000610b846020830184610e60565b60008060008060a08587031215610eb557600080fd5b610ebf8686610ce5565b935060608501356001600160401b03811115610eda57600080fd5b610ee687828801610cfd565b9094509250506080850135610efa81610d45565b939692955090935050565b600060208284031215610f1757600080fd5b610b8482610df9565b600060208284031215610f3257600080fd5b8135610b8481610d45565b634e487b7160e01b600052604160045260246000fd5b60006001600160401b0380841115610f6d57610f6d610f3d565b604051601f8501601f19908116603f01168101908282118183101715610f9557610f95610f3d565b81604052809350858152868686011115610fae57600080fd5b858560208301376000602087830101525050509392505050565b600082601f830112610fd957600080fd5b610b8483833560208501610f53565b60008060008060608587031215610ffe57600080fd5b61100785610df9565b935060208501356001600160401b038082111561102357600080fd5b61102f88838901610fc8565b9450604087013591508082111561104557600080fd5b5061105287828801610cfd565b95989497509550505050565b6000608082019050825182526001600160401b0360208401511660208301526040830151611099604084018280518252602090810151910152565b5092915050565b801515811461061457600080fd5b600080600080608085870312156110c457600080fd5b6110cd85610df9565b935060208501356001600160401b03808211156110e957600080fd5b6110f588838901610fc8565b9450604087013591508082111561110b57600080fd5b508501601f8101871361111d57600080fd5b61112c87823560208401610f53565b9250506060850135610efa816110a0565b8151815260208083015190820152604081016104c4565b60006060828403121561116657600080fd5b610b848383610ce5565b600181811c9082168061118457607f821691505b602082108103610cf757634e487b7160e01b600052602260045260246000fd5b6000602082840312156111b657600080fd5b81356001600160401b038111156111cc57600080fd5b6111d884828501610fc8565b949350505050565b601f821115610b71576000816000526020600020601f850160051c810160208610156112095750805b601f850160051c820191505b8181101561122857828155600101611215565b505050505050565b81516001600160401b0381111561124957611249610f3d565b61125d816112578454611170565b846111e0565b602080601f831160018114611292576000841561127a5750858301515b600019600386901b1c1916600185901b178555611228565b600085815260208120601f198616915b828110156112c1578886015182559484019460019091019084016112a2565b50858210156112df5787850151600019600388901b60f8161c191681555b5050505050600190811b01905550565b6040815263ffffffff8351166040820152602083015160608201526000604084015160a0608084015261132560e0840182610e60565b90506060850151603f198483030160a08501526113428282610e60565b60809690960151151560c08501525050506001600160a01b039190911660209091015290565b60006040828403121561137a57600080fd5b604051604081018181106001600160401b038211171561139c5761139c610f3d565b604052825181526020928301519281019290925250919050565b6000608082840312156113c857600080fd5b604051606081016001600160401b0382821081831117156113eb576113eb610f3d565b816040528451835260208501519150808216821461140857600080fd5b50602082015261141b8460408501611368565b60408201529392505050565b60006040828403121561143957600080fd5b610b848383611368565b60006020828403121561145557600080fd5b8151610b8481610d45565b60006020828403121561147257600080fd5b8151610b84816110a0565b6000825161148f818460208701610e3c565b919091019291505056fea2646970667358221220e3e2fb5cdd932b59a19beef54093f75d7717f22119eef5bd3eb168fae778680b64736f6c63430008160033",
  "linkReferences": {},
  "deployedLinkReferences": {}
}