{
  "_format": "hh-sol-artifact-1",
  "contractName": "USDC",
  "sourceName": "contracts/Tokens/USDC.sol",
  "abi": [
    {
      "inputs": [],
      "stateMutability": "nonpayable",
      "type": "constructor"
    },
    {
      "inputs": [
        {
          "internalType": "address",
          "name": "spender",
          "type": "address"
        },
        {
          "internalType": "uint256",
          "name": "allowance",
          "type": "uint256"
        },
        {
          "internalType": "uint256",
          "name": "needed",
          "type": "uint256"
        }
      ],
      "name": "ERC20InsufficientAllowance",
      "type": "error"
    },
    {
      "inputs": [
        {
          "internalType": "address",
          "name": "sender",
          "type": "address"
        },
        {
          "internalType": "uint256",
          "name": "balance",
          "type": "uint256"
        },
        {
          "internalType": "uint256",
          "name": "needed",
          "type": "uint256"
        }
      ],
      "name": "ERC20InsufficientBalance",
      "type": "error"
    },
    {
      "inputs": [
        {
          "internalType": "address",
          "name": "approver",
          "type": "address"
        }
      ],
      "name": "ERC20InvalidApprover",
      "type": "error"
    },
    {
      "inputs": [
        {
          "internalType": "address",
          "name": "receiver",
          "type": "address"
        }
      ],
      "name": "ERC20InvalidReceiver",
      "type": "error"
    },
    {
      "inputs": [
        {
          "internalType": "address",
          "name": "sender",
          "type": "address"
        }
      ],
      "name": "ERC20InvalidSender",
      "type": "error"
    },
    {
      "inputs": [
        {
          "internalType": "address",
          "name": "spender",
          "type": "address"
        }
      ],
      "name": "ERC20InvalidSpender",
      "type": "error"
    },
    {
      "anonymous": false,
      "inputs": [
        {
          "indexed": true,
          "internalType": "address",
          "name": "owner",
          "type": "address"
        },
        {
          "indexed": true,
          "internalType": "address",
          "name": "spender",
          "type": "address"
        },
        {
          "indexed": false,
          "internalType": "uint256",
          "name": "value",
          "type": "uint256"
        }
      ],
      "name": "Approval",
      "type": "event"
    },
    {
      "anonymous": false,
      "inputs": [
        {
          "indexed": true,
          "internalType": "address",
          "name": "from",
          "type": "address"
        },
        {
          "indexed": true,
          "internalType": "address",
          "name": "to",
          "type": "address"
        },
        {
          "indexed": false,
          "internalType": "uint256",
          "name": "value",
          "type": "uint256"
        }
      ],
      "name": "Transfer",
      "type": "event"
    },
    {
      "inputs": [
        {
          "internalType": "address",
          "name": "owner",
          "type": "address"
        },
        {
          "internalType": "address",
          "name": "spender",
          "type": "address"
        }
      ],
      "name": "allowance",
      "outputs": [
        {
          "internalType": "uint256",
          "name": "",
          "type": "uint256"
        }
      ],
      "stateMutability": "view",
      "type": "function"
    },
    {
      "inputs": [
        {
          "internalType": "address",
          "name": "spender",
          "type": "address"
        },
        {
          "internalType": "uint256",
          "name": "value",
          "type": "uint256"
        }
      ],
      "name": "approve",
      "outputs": [
        {
          "internalType": "bool",
          "name": "",
          "type": "bool"
        }
      ],
      "stateMutability": "nonpayable",
      "type": "function"
    },
    {
      "inputs": [
        {
          "internalType": "address",
          "name": "account",
          "type": "address"
        }
      ],
      "name": "balanceOf",
      "outputs": [
        {
          "internalType": "uint256",
          "name": "",
          "type": "uint256"
        }
      ],
      "stateMutability": "view",
      "type": "function"
    },
    {
      "inputs": [],
      "name": "decimals",
      "outputs": [
        {
          "internalType": "uint8",
          "name": "",
          "type": "uint8"
        }
      ],
      "stateMutability": "view",
      "type": "function"
    },
    {
      "inputs": [],
      "name": "mint",
      "outputs": [],
      "stateMutability": "nonpayable",
      "type": "function"
    },
    {
      "inputs": [],
      "name": "name",
      "outputs": [
        {
          "internalType": "string",
          "name": "",
          "type": "string"
        }
      ],
      "stateMutability": "view",
      "type": "function"
    },
    {
      "inputs": [],
      "name": "symbol",
      "outputs": [
        {
          "internalType": "string",
          "name": "",
          "type": "string"
        }
      ],
      "stateMutability": "view",
      "type": "function"
    },
    {
      "inputs": [],
      "name": "totalSupply",
      "outputs": [
        {
          "internalType": "uint256",
          "name": "",
          "type": "uint256"
        }
      ],
      "stateMutability": "view",
      "type": "function"
    },
    {
      "inputs": [
        {
          "internalType": "address",
          "name": "to",
          "type": "address"
        },
        {
          "internalType": "uint256",
          "name": "value",
          "type": "uint256"
        }
      ],
      "name": "transfer",
      "outputs": [
        {
          "internalType": "bool",
          "name": "",
          "type": "bool"
        }
      ],
      "stateMutability": "nonpayable",
      "type": "function"
    },
    {
      "inputs": [
        {
          "internalType": "address",
          "name": "from",
          "type": "address"
        },
        {
          "internalType": "address",
          "name": "to",
          "type": "address"
        },
        {
          "internalType": "uint256",
          "name": "value",
          "type": "uint256"
        }
      ],
      "name": "transferFrom",
      "outputs": [
        {
          "internalType": "bool",
          "name": "",
          "type": "bool"
        }
      ],
      "stateMutability": "nonpayable",
      "type": "function"
    }
  ],
  "bytecode": "0x60806040523480156200001157600080fd5b506040805180820182526004808252635553444360e01b60208084018290528451808601909552918452908301529060036200004e8382620002bd565b5060046200005d8282620002bd565b5050506200009633620000756200009c60201b60201c565b6200008290600a6200049e565b6200009090612710620004b6565b620000a1565b620004e6565b601290565b6001600160a01b038216620000d15760405163ec442f0560e01b8152600060048201526024015b60405180910390fd5b620000df60008383620000e3565b5050565b6001600160a01b03831662000112578060026000828254620001069190620004d0565b90915550620001869050565b6001600160a01b03831660009081526020819052604090205481811015620001675760405163391434e360e21b81526001600160a01b03851660048201526024810182905260448101839052606401620000c8565b6001600160a01b03841660009081526020819052604090209082900390555b6001600160a01b038216620001a457600280548290039055620001c3565b6001600160a01b03821660009081526020819052604090208054820190555b816001600160a01b0316836001600160a01b03167fddf252ad1be2c89b69c2b068fc378daa952ba7f163c4a11628f55a4df523b3ef836040516200020991815260200190565b60405180910390a3505050565b634e487b7160e01b600052604160045260246000fd5b600181811c908216806200024157607f821691505b6020821081036200026257634e487b7160e01b600052602260045260246000fd5b50919050565b601f821115620002b8576000816000526020600020601f850160051c81016020861015620002935750805b601f850160051c820191505b81811015620002b4578281556001016200029f565b5050505b505050565b81516001600160401b03811115620002d957620002d962000216565b620002f181620002ea84546200022c565b8462000268565b602080601f831160018114620003295760008415620003105750858301515b600019600386901b1c1916600185901b178555620002b4565b600085815260208120601f198616915b828110156200035a5788860151825594840194600190910190840162000339565b5085821015620003795787850151600019600388901b60f8161c191681555b5050505050600190811b01905550565b634e487b7160e01b600052601160045260246000fd5b600181815b80851115620003e0578160001904821115620003c457620003c462000389565b80851615620003d257918102915b93841c9390800290620003a4565b509250929050565b600082620003f95750600162000498565b81620004085750600062000498565b81600181146200042157600281146200042c576200044c565b600191505062000498565b60ff84111562000440576200044062000389565b50506001821b62000498565b5060208310610133831016604e8410600b841016171562000471575081810a62000498565b6200047d83836200039f565b806000190482111562000494576200049462000389565b0290505b92915050565b6000620004af60ff841683620003e8565b9392505050565b808202811582820484141762000498576200049862000389565b8082018082111562000498576200049862000389565b6108a580620004f66000396000f3fe608060405234801561001057600080fd5b506004361061009e5760003560e01c8063313ce56711610066578063313ce5671461011357806370a082311461012257806395d89b411461014b578063a9059cbb14610153578063dd62ed3e1461016657600080fd5b806306fdde03146100a3578063095ea7b3146100c15780631249c58b146100e457806318160ddd146100ee57806323b872dd14610100575b600080fd5b6100ab61019f565b6040516100b891906105dc565b60405180910390f35b6100d46100cf366004610647565b610231565b60405190151581526020016100b8565b6100ec61024b565b005b6002545b6040519081526020016100b8565b6100d461010e366004610671565b61026e565b604051601281526020016100b8565b6100f26101303660046106ad565b6001600160a01b031660009081526020819052604090205490565b6100ab610292565b6100d4610161366004610647565b6102a1565b6100f26101743660046106cf565b6001600160a01b03918216600090815260016020908152604080832093909416825291909152205490565b6060600380546101ae90610702565b80601f01602080910402602001604051908101604052809291908181526020018280546101da90610702565b80156102275780601f106101fc57610100808354040283529160200191610227565b820191906000526020600020905b81548152906001019060200180831161020a57829003601f168201915b5050505050905090565b60003361023f8185856102af565b60019150505b92915050565b61026c3361025b6012600a610836565b61026790612710610845565b6102c1565b565b60003361027c858285610300565b61028785858561037e565b506001949350505050565b6060600480546101ae90610702565b60003361023f81858561037e565b6102bc83838360016103dd565b505050565b6001600160a01b0382166102f05760405163ec442f0560e01b8152600060048201526024015b60405180910390fd5b6102fc600083836104b2565b5050565b6001600160a01b038381166000908152600160209081526040808320938616835292905220546000198114610378578181101561036957604051637dc7a0d960e11b81526001600160a01b038416600482015260248101829052604481018390526064016102e7565b610378848484840360006103dd565b50505050565b6001600160a01b0383166103a857604051634b637e8f60e11b8152600060048201526024016102e7565b6001600160a01b0382166103d25760405163ec442f0560e01b8152600060048201526024016102e7565b6102bc8383836104b2565b6001600160a01b0384166104075760405163e602df0560e01b8152600060048201526024016102e7565b6001600160a01b03831661043157604051634a1406b160e11b8152600060048201526024016102e7565b6001600160a01b038085166000908152600160209081526040808320938716835292905220829055801561037857826001600160a01b0316846001600160a01b03167f8c5be1e5ebec7d5bd14f71427d1e84f3dd0314c0f7b2291e5b200ac8c7c3b925846040516104a491815260200190565b60405180910390a350505050565b6001600160a01b0383166104dd5780600260008282546104d2919061085c565b9091555061054f9050565b6001600160a01b038316600090815260208190526040902054818110156105305760405163391434e360e21b81526001600160a01b038516600482015260248101829052604481018390526064016102e7565b6001600160a01b03841660009081526020819052604090209082900390555b6001600160a01b03821661056b5760028054829003905561058a565b6001600160a01b03821660009081526020819052604090208054820190555b816001600160a01b0316836001600160a01b03167fddf252ad1be2c89b69c2b068fc378daa952ba7f163c4a11628f55a4df523b3ef836040516105cf91815260200190565b60405180910390a3505050565b60006020808352835180602085015260005b8181101561060a578581018301518582016040015282016105ee565b506000604082860101526040601f19601f8301168501019250505092915050565b80356001600160a01b038116811461064257600080fd5b919050565b6000806040838503121561065a57600080fd5b6106638361062b565b946020939093013593505050565b60008060006060848603121561068657600080fd5b61068f8461062b565b925061069d6020850161062b565b9150604084013590509250925092565b6000602082840312156106bf57600080fd5b6106c88261062b565b9392505050565b600080604083850312156106e257600080fd5b6106eb8361062b565b91506106f96020840161062b565b90509250929050565b600181811c9082168061071657607f821691505b60208210810361073657634e487b7160e01b600052602260045260246000fd5b50919050565b634e487b7160e01b600052601160045260246000fd5b600181815b8085111561078d5781600019048211156107735761077361073c565b8085161561078057918102915b93841c9390800290610757565b509250929050565b6000826107a457506001610245565b816107b157506000610245565b81600181146107c757600281146107d1576107ed565b6001915050610245565b60ff8411156107e2576107e261073c565b50506001821b610245565b5060208310610133831016604e8410600b8410161715610810575081810a610245565b61081a8383610752565b806000190482111561082e5761082e61073c565b029392505050565b60006106c860ff841683610795565b80820281158282048414176102455761024561073c565b808201808211156102455761024561073c56fea264697066735822122021143ecfa755aaaf8e63b232acf1e7ac07a08ed09e0d400eec54f1a76f934d2164736f6c63430008160033",
  "linkReferences": {},
  "deployedLinkReferences": {}
}