{
  "_format": "hh-sol-artifact-1",
  "contractName": "ABA",
  "sourceName": "contracts/LayerZeroABAData.sol",
  "abi": [
    {
      "inputs": [
        {
          "internalType": "address",
          "name": "_endpoint",
          "type": "address"
        },
        {
          "internalType": "address",
          "name": "_owner",
          "type": "address"
        }
      ],
      "stateMutability": "nonpayable",
      "type": "constructor"
    },
    {
      "inputs": [
        {
          "internalType": "address",
          "name": "target",
          "type": "address"
        }
      ],
      "name": "AddressEmptyCode",
      "type": "error"
    },
    {
      "inputs": [
        {
          "internalType": "address",
          "name": "account",
          "type": "address"
        }
      ],
      "name": "AddressInsufficientBalance",
      "type": "error"
    },
    {
      "inputs": [],
      "name": "FailedInnerCall",
      "type": "error"
    },
    {
      "inputs": [],
      "name": "InvalidDelegate",
      "type": "error"
    },
    {
      "inputs": [],
      "name": "InvalidEndpointCall",
      "type": "error"
    },
    {
      "inputs": [],
      "name": "InvalidMsgType",
      "type": "error"
    },
    {
      "inputs": [
        {
          "internalType": "bytes",
          "name": "options",
          "type": "bytes"
        }
      ],
      "name": "InvalidOptions",
      "type": "error"
    },
    {
      "inputs": [],
      "name": "LzTokenUnavailable",
      "type": "error"
    },
    {
      "inputs": [
        {
          "internalType": "uint32",
          "name": "eid",
          "type": "uint32"
        }
      ],
      "name": "NoPeer",
      "type": "error"
    },
    {
      "inputs": [
        {
          "internalType": "uint256",
          "name": "msgValue",
          "type": "uint256"
        }
      ],
      "name": "NotEnoughNative",
      "type": "error"
    },
    {
      "inputs": [
        {
          "internalType": "address",
          "name": "addr",
          "type": "address"
        }
      ],
      "name": "OnlyEndpoint",
      "type": "error"
    },
    {
      "inputs": [
        {
          "internalType": "uint32",
          "name": "eid",
          "type": "uint32"
        },
        {
          "internalType": "bytes32",
          "name": "sender",
          "type": "bytes32"
        }
      ],
      "name": "OnlyPeer",
      "type": "error"
    },
    {
      "inputs": [
        {
          "internalType": "address",
          "name": "owner",
          "type": "address"
        }
      ],
      "name": "OwnableInvalidOwner",
      "type": "error"
    },
    {
      "inputs": [
        {
          "internalType": "address",
          "name": "account",
          "type": "address"
        }
      ],
      "name": "OwnableUnauthorizedAccount",
      "type": "error"
    },
    {
      "inputs": [
        {
          "internalType": "address",
          "name": "token",
          "type": "address"
        }
      ],
      "name": "SafeERC20FailedOperation",
      "type": "error"
    },
    {
      "anonymous": false,
      "inputs": [
        {
          "components": [
            {
              "internalType": "uint32",
              "name": "eid",
              "type": "uint32"
            },
            {
              "internalType": "uint16",
              "name": "msgType",
              "type": "uint16"
            },
            {
              "internalType": "bytes",
              "name": "options",
              "type": "bytes"
            }
          ],
          "indexed": false,
          "internalType": "struct EnforcedOptionParam[]",
          "name": "_enforcedOptions",
          "type": "tuple[]"
        }
      ],
      "name": "EnforcedOptionSet",
      "type": "event"
    },
    {
      "anonymous": false,
      "inputs": [
        {
          "indexed": false,
          "internalType": "string",
          "name": "message",
          "type": "string"
        },
        {
          "indexed": false,
          "internalType": "uint32",
          "name": "senderEid",
          "type": "uint32"
        },
        {
          "indexed": false,
          "internalType": "bytes32",
          "name": "sender",
          "type": "bytes32"
        }
      ],
      "name": "MessageReceived",
      "type": "event"
    },
    {
      "anonymous": false,
      "inputs": [
        {
          "indexed": false,
          "internalType": "string",
          "name": "message",
          "type": "string"
        },
        {
          "indexed": false,
          "internalType": "uint32",
          "name": "dstEid",
          "type": "uint32"
        }
      ],
      "name": "MessageSent",
      "type": "event"
    },
    {
      "anonymous": false,
      "inputs": [
        {
          "indexed": true,
          "internalType": "address",
          "name": "previousOwner",
          "type": "address"
        },
        {
          "indexed": true,
          "internalType": "address",
          "name": "newOwner",
          "type": "address"
        }
      ],
      "name": "OwnershipTransferred",
      "type": "event"
    },
    {
      "anonymous": false,
      "inputs": [
        {
          "indexed": false,
          "internalType": "uint32",
          "name": "eid",
          "type": "uint32"
        },
        {
          "indexed": false,
          "internalType": "bytes32",
          "name": "peer",
          "type": "bytes32"
        }
      ],
      "name": "PeerSet",
      "type": "event"
    },
    {
      "anonymous": false,
      "inputs": [
        {
          "indexed": false,
          "internalType": "string",
          "name": "message",
          "type": "string"
        },
        {
          "indexed": false,
          "internalType": "uint32",
          "name": "dstEid",
          "type": "uint32"
        }
      ],
      "name": "ReturnMessageSent",
      "type": "event"
    },
    {
      "inputs": [],
      "name": "REQUEST_READ",
      "outputs": [
        {
          "internalType": "uint16",
          "name": "",
          "type": "uint16"
        }
      ],
      "stateMutability": "view",
      "type": "function"
    },
    {
      "inputs": [],
      "name": "RETURN_DATA",
      "outputs": [
        {
          "internalType": "uint16",
          "name": "",
          "type": "uint16"
        }
      ],
      "stateMutability": "view",
      "type": "function"
    },
    {
      "inputs": [
        {
          "components": [
            {
              "internalType": "uint32",
              "name": "srcEid",
              "type": "uint32"
            },
            {
              "internalType": "bytes32",
              "name": "sender",
              "type": "bytes32"
            },
            {
              "internalType": "uint64",
              "name": "nonce",
              "type": "uint64"
            }
          ],
          "internalType": "struct Origin",
          "name": "origin",
          "type": "tuple"
        }
      ],
      "name": "allowInitializePath",
      "outputs": [
        {
          "internalType": "bool",
          "name": "",
          "type": "bool"
        }
      ],
      "stateMutability": "view",
      "type": "function"
    },
    {
      "inputs": [
        {
          "internalType": "uint32",
          "name": "_eid",
          "type": "uint32"
        },
        {
          "internalType": "uint16",
          "name": "_msgType",
          "type": "uint16"
        },
        {
          "internalType": "bytes",
          "name": "_extraOptions",
          "type": "bytes"
        }
      ],
      "name": "combineOptions",
      "outputs": [
        {
          "internalType": "bytes",
          "name": "",
          "type": "bytes"
        }
      ],
      "stateMutability": "view",
      "type": "function"
    },
    {
      "inputs": [],
      "name": "data",
      "outputs": [
        {
          "internalType": "string",
          "name": "",
          "type": "string"
        }
      ],
      "stateMutability": "view",
      "type": "function"
    },
    {
      "inputs": [
        {
          "internalType": "bytes",
          "name": "encodedMessage",
          "type": "bytes"
        }
      ],
      "name": "decodeMessage",
      "outputs": [
        {
          "internalType": "string",
          "name": "message",
          "type": "string"
        },
        {
          "internalType": "uint16",
          "name": "msgType",
          "type": "uint16"
        },
        {
          "internalType": "uint256",
          "name": "extraOptionsStart",
          "type": "uint256"
        },
        {
          "internalType": "uint256",
          "name": "extraOptionsLength",
          "type": "uint256"
        }
      ],
      "stateMutability": "pure",
      "type": "function"
    },
    {
      "inputs": [
        {
          "internalType": "string",
          "name": "_message",
          "type": "string"
        },
        {
          "internalType": "uint16",
          "name": "_msgType",
          "type": "uint16"
        },
        {
          "internalType": "bytes",
          "name": "_extraReturnOptions",
          "type": "bytes"
        }
      ],
      "name": "encodeMessage",
      "outputs": [
        {
          "internalType": "bytes",
          "name": "",
          "type": "bytes"
        }
      ],
      "stateMutability": "pure",
      "type": "function"
    },
    {
      "inputs": [],
      "name": "endpoint",
      "outputs": [
        {
          "internalType": "contract ILayerZeroEndpointV2",
          "name": "",
          "type": "address"
        }
      ],
      "stateMutability": "view",
      "type": "function"
    },
    {
      "inputs": [
        {
          "internalType": "uint32",
          "name": "eid",
          "type": "uint32"
        },
        {
          "internalType": "uint16",
          "name": "msgType",
          "type": "uint16"
        }
      ],
      "name": "enforcedOptions",
      "outputs": [
        {
          "internalType": "bytes",
          "name": "enforcedOption",
          "type": "bytes"
        }
      ],
      "stateMutability": "view",
      "type": "function"
    },
    {
      "inputs": [],
      "name": "flareAdaptor",
      "outputs": [
        {
          "internalType": "contract IFlareAdaptor",
          "name": "",
          "type": "address"
        }
      ],
      "stateMutability": "view",
      "type": "function"
    },
    {
      "inputs": [
        {
          "components": [
            {
              "internalType": "uint32",
              "name": "srcEid",
              "type": "uint32"
            },
            {
              "internalType": "bytes32",
              "name": "sender",
              "type": "bytes32"
            },
            {
              "internalType": "uint64",
              "name": "nonce",
              "type": "uint64"
            }
          ],
          "internalType": "struct Origin",
          "name": "",
          "type": "tuple"
        },
        {
          "internalType": "bytes",
          "name": "",
          "type": "bytes"
        },
        {
          "internalType": "address",
          "name": "_sender",
          "type": "address"
        }
      ],
      "name": "isComposeMsgSender",
      "outputs": [
        {
          "internalType": "bool",
          "name": "",
          "type": "bool"
        }
      ],
      "stateMutability": "view",
      "type": "function"
    },
    {
      "inputs": [
        {
          "components": [
            {
              "internalType": "uint32",
              "name": "srcEid",
              "type": "uint32"
            },
            {
              "internalType": "bytes32",
              "name": "sender",
              "type": "bytes32"
            },
            {
              "internalType": "uint64",
              "name": "nonce",
              "type": "uint64"
            }
          ],
          "internalType": "struct Origin",
          "name": "_origin",
          "type": "tuple"
        },
        {
          "internalType": "bytes32",
          "name": "_guid",
          "type": "bytes32"
        },
        {
          "internalType": "bytes",
          "name": "_message",
          "type": "bytes"
        },
        {
          "internalType": "address",
          "name": "_executor",
          "type": "address"
        },
        {
          "internalType": "bytes",
          "name": "_extraData",
          "type": "bytes"
        }
      ],
      "name": "lzReceive",
      "outputs": [],
      "stateMutability": "payable",
      "type": "function"
    },
    {
      "inputs": [
        {
          "internalType": "uint32",
          "name": "",
          "type": "uint32"
        },
        {
          "internalType": "bytes32",
          "name": "",
          "type": "bytes32"
        }
      ],
      "name": "nextNonce",
      "outputs": [
        {
          "internalType": "uint64",
          "name": "nonce",
          "type": "uint64"
        }
      ],
      "stateMutability": "view",
      "type": "function"
    },
    {
      "inputs": [],
      "name": "oAppVersion",
      "outputs": [
        {
          "internalType": "uint64",
          "name": "senderVersion",
          "type": "uint64"
        },
        {
          "internalType": "uint64",
          "name": "receiverVersion",
          "type": "uint64"
        }
      ],
      "stateMutability": "pure",
      "type": "function"
    },
    {
      "inputs": [],
      "name": "owner",
      "outputs": [
        {
          "internalType": "address",
          "name": "",
          "type": "address"
        }
      ],
      "stateMutability": "view",
      "type": "function"
    },
    {
      "inputs": [
        {
          "internalType": "uint32",
          "name": "eid",
          "type": "uint32"
        }
      ],
      "name": "peers",
      "outputs": [
        {
          "internalType": "bytes32",
          "name": "peer",
          "type": "bytes32"
        }
      ],
      "stateMutability": "view",
      "type": "function"
    },
    {
      "inputs": [
        {
          "internalType": "uint32",
          "name": "_dstEid",
          "type": "uint32"
        },
        {
          "internalType": "uint16",
          "name": "_msgType",
          "type": "uint16"
        },
        {
          "internalType": "string",
          "name": "_message",
          "type": "string"
        },
        {
          "internalType": "bytes",
          "name": "_extraSendOptions",
          "type": "bytes"
        },
        {
          "internalType": "bytes",
          "name": "_extraReturnOptions",
          "type": "bytes"
        },
        {
          "internalType": "bool",
          "name": "_payInLzToken",
          "type": "bool"
        }
      ],
      "name": "quote",
      "outputs": [
        {
          "components": [
            {
              "internalType": "uint256",
              "name": "nativeFee",
              "type": "uint256"
            },
            {
              "internalType": "uint256",
              "name": "lzTokenFee",
              "type": "uint256"
            }
          ],
          "internalType": "struct MessagingFee",
          "name": "fee",
          "type": "tuple"
        }
      ],
      "stateMutability": "view",
      "type": "function"
    },
    {
      "inputs": [],
      "name": "renounceOwnership",
      "outputs": [],
      "stateMutability": "nonpayable",
      "type": "function"
    },
    {
      "inputs": [
        {
          "internalType": "uint32",
          "name": "_dstEid",
          "type": "uint32"
        },
        {
          "internalType": "uint16",
          "name": "_msgType",
          "type": "uint16"
        },
        {
          "internalType": "string",
          "name": "_message",
          "type": "string"
        },
        {
          "internalType": "bytes",
          "name": "_extraSendOptions",
          "type": "bytes"
        },
        {
          "internalType": "bytes",
          "name": "_extraReturnOptions",
          "type": "bytes"
        }
      ],
      "name": "send",
      "outputs": [],
      "stateMutability": "payable",
      "type": "function"
    },
    {
      "inputs": [
        {
          "internalType": "address",
          "name": "_delegate",
          "type": "address"
        }
      ],
      "name": "setDelegate",
      "outputs": [],
      "stateMutability": "nonpayable",
      "type": "function"
    },
    {
      "inputs": [
        {
          "components": [
            {
              "internalType": "uint32",
              "name": "eid",
              "type": "uint32"
            },
            {
              "internalType": "uint16",
              "name": "msgType",
              "type": "uint16"
            },
            {
              "internalType": "bytes",
              "name": "options",
              "type": "bytes"
            }
          ],
          "internalType": "struct EnforcedOptionParam[]",
          "name": "_enforcedOptions",
          "type": "tuple[]"
        }
      ],
      "name": "setEnforcedOptions",
      "outputs": [],
      "stateMutability": "nonpayable",
      "type": "function"
    },
    {
      "inputs": [
        {
          "internalType": "address",
          "name": "_flareAdaptor",
          "type": "address"
        }
      ],
      "name": "setFlareAdaptor",
      "outputs": [],
      "stateMutability": "nonpayable",
      "type": "function"
    },
    {
      "inputs": [
        {
          "internalType": "uint32",
          "name": "_eid",
          "type": "uint32"
        },
        {
          "internalType": "bytes32",
          "name": "_peer",
          "type": "bytes32"
        }
      ],
      "name": "setPeer",
      "outputs": [],
      "stateMutability": "nonpayable",
      "type": "function"
    },
    {
      "inputs": [
        {
          "internalType": "address",
          "name": "newOwner",
          "type": "address"
        }
      ],
      "name": "transferOwnership",
      "outputs": [],
      "stateMutability": "nonpayable",
      "type": "function"
    },
    {
      "stateMutability": "payable",
      "type": "receive"
    }
  ],
  "bytecode": "0x60e0604052601460a09081527f4e6f7468696e672072656365697665642079657400000000000000000000000060c0526004906200003e908262000238565b503480156200004c57600080fd5b5060405162002658380380620026588339810160408190526200006f9162000321565b8181818133806200009a57604051631e4fbdf760e01b81526000600482015260240160405180910390fd5b620000a58162000141565b506001600160a01b038083166080528116620000d457604051632d618d8160e21b815260040160405180910390fd5b60805160405163ca5eb5e160e01b81526001600160a01b0383811660048301529091169063ca5eb5e190602401600060405180830381600087803b1580156200011c57600080fd5b505af115801562000131573d6000803e3d6000fd5b5050505050505050505062000359565b600080546001600160a01b038381166001600160a01b0319831681178455604051919092169283917f8be0079c531659141344cd1fd0a4f28419497f9722a3daafe3b4186f6b6457e09190a35050565b634e487b7160e01b600052604160045260246000fd5b600181811c90821680620001bc57607f821691505b602082108103620001dd57634e487b7160e01b600052602260045260246000fd5b50919050565b601f82111562000233576000816000526020600020601f850160051c810160208610156200020e5750805b601f850160051c820191505b818110156200022f578281556001016200021a565b5050505b505050565b81516001600160401b0381111562000254576200025462000191565b6200026c81620002658454620001a7565b84620001e3565b602080601f831160018114620002a457600084156200028b5750858301515b600019600386901b1c1916600185901b1785556200022f565b600085815260208120601f198616915b82811015620002d557888601518255948401946001909101908401620002b4565b5085821015620002f45787850151600019600388901b60f8161c191681555b5050505050600190811b01905550565b80516001600160a01b03811681146200031c57600080fd5b919050565b600080604083850312156200033557600080fd5b620003408362000304565b9150620003506020840162000304565b90509250929050565b6080516122b96200039f60003960008181610236015281816104d80152818161090401528181610e5e01528181610f5c0152818161124001526112f701526122b96000f3fe60806040526004361061014f5760003560e01c80638da5cb5b116100b6578063e84127b61161006f578063e84127b614610413578063eaed04b51461044e578063ed4157531461046e578063f2fde38b14610483578063fbe6adea146104a3578063ff7bd03d146104b657600080fd5b80638da5cb5b14610332578063b98bd07014610350578063bb0b6a5314610370578063bc70b354146103ab578063bdbacca3146103cb578063ca5eb5e1146103f357600080fd5b80635e280f11116101085780635e280f1114610224578063634d45b214610270578063715018a6146102a057806373d4a13a146102b55780637d25a05e146102ca57806382413eac1461030257600080fd5b806313137d651461015b578063169b2e831461017057806317442b70146101905780633400288b146101b75780634b160368146101d75780635535d4611461020457600080fd5b3661015657005b600080fd5b61016e61016936600461159f565b6104d6565b005b34801561017c57600080fd5b5061016e61018b36600461163e565b610596565b34801561019c57600080fd5b50604080516001815260026020820152015b60405180910390f35b3480156101c357600080fd5b5061016e6101d2366004611674565b6105c0565b3480156101e357600080fd5b506101f76101f236600461178d565b6105d6565b6040516101ae9190611850565b34801561021057600080fd5b506101f761021f366004611863565b61060f565b34801561023057600080fd5b506102587f000000000000000000000000000000000000000000000000000000000000000081565b6040516001600160a01b0390911681526020016101ae565b34801561027c57600080fd5b5061029061028b366004611896565b6106b4565b6040516101ae94939291906118d7565b3480156102ac57600080fd5b5061016e6106dc565b3480156102c157600080fd5b506101f76106f0565b3480156102d657600080fd5b506102ea6102e5366004611674565b6106fd565b6040516001600160401b0390911681526020016101ae565b34801561030e57600080fd5b5061032261031d36600461190a565b610706565b60405190151581526020016101ae565b34801561033e57600080fd5b506000546001600160a01b0316610258565b34801561035c57600080fd5b5061016e61036b366004611970565b61071b565b34801561037c57600080fd5b5061039d61038b3660046119e4565b60016020526000908152604090205481565b6040519081526020016101ae565b3480156103b757600080fd5b506101f76103c63660046119ff565b610735565b3480156103d757600080fd5b506103e0600381565b60405161ffff90911681526020016101ae565b3480156103ff57600080fd5b5061016e61040e36600461163e565b6108dd565b34801561041f57600080fd5b5061043361042e366004611a6d565b610963565b604080518251815260209283015192810192909252016101ae565b34801561045a57600080fd5b50600354610258906001600160a01b031681565b34801561047a57600080fd5b506103e0600481565b34801561048f57600080fd5b5061016e61049e36600461163e565b6109e7565b61016e6104b1366004611b35565b610a25565b3480156104c257600080fd5b506103226104d1366004611bca565b610b65565b7f00000000000000000000000000000000000000000000000000000000000000006001600160a01b03163314610526576040516391ac5e4f60e01b81523360048201526024015b60405180910390fd5b602087018035906105409061053b908a6119e4565b610b9b565b1461057e5761055260208801886119e4565b60405163309afaf360e21b815263ffffffff90911660048201526020880135602482015260440161051d565b61058d87878787878787610bd7565b50505050505050565b61059e610c37565b600380546001600160a01b0319166001600160a01b0392909216919091179055565b6105c8610c37565b6105d28282610c64565b5050565b8051604051606091906105f59086908690849087908290602001611be6565b6040516020818303038152906040529150505b9392505050565b60026020908152600092835260408084209091529082529020805461063390611c2e565b80601f016020809104026020016040519081016040528092919081815260200182805461065f90611c2e565b80156106ac5780601f10610681576101008083540402835291602001916106ac565b820191906000526020600020905b81548152906001019060200180831161068f57829003601f168201915b505050505081565b606060006101008183816106ca87890189611c62565b91975095509250505092959194509250565b6106e4610c37565b6106ee6000610cba565b565b6004805461063390611c2e565b60005b92915050565b6001600160a01b03811630145b949350505050565b610723610c37565b6105d26107308284611cb8565b610d0a565b63ffffffff8416600090815260026020908152604080832061ffff8716845290915281208054606092919061076990611c2e565b80601f016020809104026020016040519081016040528092919081815260200182805461079590611c2e565b80156107e25780601f106107b7576101008083540402835291602001916107e2565b820191906000526020600020905b8154815290600101906020018083116107c557829003601f168201915b5050505050905080516000036108325783838080601f0160208091040260200160405190810160405280939291908181526020018383808284376000920191909152509294506107139350505050565b6000839003610842579050610713565b600283106108c05761088984848080601f016020809104026020016040519081016040528093929190818152602001838380828437600092019190915250610e1c92505050565b806108978460028188611d8d565b6040516020016108a993929190611db7565b604051602081830303815290604052915050610713565b8383604051639a6d49cd60e01b815260040161051d929190611ddf565b6108e5610c37565b60405163ca5eb5e160e01b81526001600160a01b0382811660048301527f0000000000000000000000000000000000000000000000000000000000000000169063ca5eb5e190602401600060405180830381600087803b15801561094857600080fd5b505af115801561095c573d6000803e3d6000fd5b5050505050565b604080518082019091526000808252602082015260006109ba888a87878080601f0160208091040260200160405190810160405280939291908181526020018383808284376000920191909152506105d692505050565b905060006109ca8b8b8a8a610735565b90506109d88b838387610e48565b9b9a5050505050505050505050565b6109ef610c37565b6001600160a01b038116610a1957604051631e4fbdf760e01b81526000600482015260240161051d565b610a2281610cba565b50565b602085511115610a775760405162461bcd60e51b815260206004820152601760248201527f537472696e672065786365656473203332206279746573000000000000000000604482015260640161051d565b61ffff8616600314801590610a91575061ffff8616600414155b15610aaf5760405163f23fef6f60e01b815260040160405180910390fd5b6000610abd88888787610735565b9050610b2188610b04888a87878080601f0160208091040260200160405190810160405280939291908181526020018383808284376000920191909152506105d692505050565b836040518060400160405280348152602001600081525033610f29565b507f71ad68601a82041bbc9d2b191989148b957e85070fcb61edc57cc095fe6050358689604051610b53929190611e0e565b60405180910390a15050505050505050565b6000602082018035906001908390610b7d90866119e4565b63ffffffff1681526020810191909152604001600020541492915050565b63ffffffff8116600090815260016020526040812054806107005760405163f6ff4fb760e01b815263ffffffff8416600482015260240161051d565b600080600080610be789896106b4565b9350935093509350600361ffff168361ffff1603610c1357610c0e8b8584848d8d34611034565b610c2a565b60031961ffff841601610c2a57610c2a848c6111c3565b5050505050505050505050565b6000546001600160a01b031633146106ee5760405163118cdaa760e01b815233600482015260240161051d565b63ffffffff8216600081815260016020908152604091829020849055815192835282018390527f238399d427b947898edb290f5ff0f9109849b1c3ba196a42e35f00c50a54b98b91015b60405180910390a15050565b600080546001600160a01b038381166001600160a01b0319831681178455604051919092169283917f8be0079c531659141344cd1fd0a4f28419497f9722a3daafe3b4186f6b6457e09190a35050565b60005b8151811015610de157610d3c828281518110610d2b57610d2b611e36565b602002602001015160400151610e1c565b818181518110610d4e57610d4e611e36565b60200260200101516040015160026000848481518110610d7057610d70611e36565b60200260200101516000015163ffffffff1663ffffffff1681526020019081526020016000206000848481518110610daa57610daa611e36565b60200260200101516020015161ffff1661ffff1681526020019081526020016000209081610dd89190611e9c565b50600101610d0d565b507fbe4864a8e820971c0247f5992e2da559595f7bf076a21cb5928d443d2a13b67481604051610e119190611f5b565b60405180910390a150565b600281015161ffff81166003146105d25781604051639a6d49cd60e01b815260040161051d9190611850565b60408051808201909152600080825260208201527f00000000000000000000000000000000000000000000000000000000000000006001600160a01b031663ddc28c586040518060a001604052808863ffffffff168152602001610eab89610b9b565b8152602001878152602001868152602001851515815250306040518363ffffffff1660e01b8152600401610ee0929190611fe6565b6040805180830381865afa158015610efc573d6000803e3d6000fd5b505050506040513d601f19601f82011682018060405250810190610f2091906120ad565b95945050505050565b610f316114e3565b6000610f408460000151611214565b602085015190915015610f5a57610f5a846020015161123c565b7f00000000000000000000000000000000000000000000000000000000000000006001600160a01b0316632637a450826040518060a001604052808b63ffffffff168152602001610faa8c610b9b565b81526020018a815260200189815260200160008960200151111515815250866040518463ffffffff1660e01b8152600401610fe6929190611fe6565b60806040518083038185885af1158015611004573d6000803e3d6000fd5b50505050506040513d601f19601f8201168201806040525081019061102991906120c9565b979650505050505050565b600354604080516315f789a960e21b8152815160009384936001600160a01b03909116926357de26a492600480830193928290030181865afa15801561107e573d6000803e3d6000fd5b505050506040513d601f19601f820116820180604052508101906110a2919061211f565b6040516602b30b63ab29d160cd1b6020820152602781018390526c016102a34b6b2b9ba30b6b81d1609d1b604782015260548101829052919350915060009060740160408051601f198184030181529190529050600061112461110860208d018d6119e4565b6004898c8a6111178e83612143565b926103c693929190611d8d565b905061117061113660208d018d6119e4565b83600460405160200161114a929190612164565b60408051601f198184030181528282019091528882526000602083015290849030610f29565b507f6df5a916f7f40c5e5ba500651c96de4d1dbdb5b025b575a3ffd8712e9ad0ec99826111a060208e018e6119e4565b6040516111ae929190611e0e565b60405180910390a15050505050505050505050565b60046111cf8382611e9c565b507fa949771779bb2404fe7f2a86c5dba066fa48fd90bde2ff9cc9d32eae4f3af2f5600461120060208401846119e4565b8360200135604051610cae9392919061218a565b6000813414611238576040516304fb820960e51b815234600482015260240161051d565b5090565b60007f00000000000000000000000000000000000000000000000000000000000000006001600160a01b031663e4fe1d946040518163ffffffff1660e01b8152600401602060405180830381865afa15801561129c573d6000803e3d6000fd5b505050506040513d601f19601f820116820180604052508101906112c0919061222d565b90506001600160a01b0381166112e9576040516329b99a9560e11b815260040160405180910390fd5b6040805133602482018190527f00000000000000000000000000000000000000000000000000000000000000006001600160a01b03818116604485015260648085018890528551808603909101815260849094019094526020830180516001600160e01b03166323b872dd60e01b1790526105d293851692869061136e908590611374565b50505050565b60006113896001600160a01b038416836113dc565b905080516000141580156113ae5750808060200190518101906113ac919061224a565b155b156113d757604051635274afe760e01b81526001600160a01b038416600482015260240161051d565b505050565b60606106088383600084600080856001600160a01b031684866040516114029190612267565b60006040518083038185875af1925050503d806000811461143f576040519150601f19603f3d011682016040523d82523d6000602084013e611444565b606091505b509150915061145486838361145e565b9695505050505050565b6060826114735761146e826114ba565b610608565b815115801561148a57506001600160a01b0384163b155b156114b357604051639996b31560e01b81526001600160a01b038516600482015260240161051d565b5080610608565b8051156114ca5780518082602001fd5b604051630a12f52160e11b815260040160405180910390fd5b60405180606001604052806000801916815260200160006001600160401b03168152602001611525604051806040016040528060008152602001600081525090565b905290565b60006060828403121561153c57600080fd5b50919050565b60008083601f84011261155457600080fd5b5081356001600160401b0381111561156b57600080fd5b60208301915083602082850101111561158357600080fd5b9250929050565b6001600160a01b0381168114610a2257600080fd5b600080600080600080600060e0888a0312156115ba57600080fd5b6115c4898961152a565b96506060880135955060808801356001600160401b03808211156115e757600080fd5b6115f38b838c01611542565b909750955060a08a013591506116088261158a565b90935060c0890135908082111561161e57600080fd5b5061162b8a828b01611542565b989b979a50959850939692959293505050565b60006020828403121561165057600080fd5b81356106088161158a565b803563ffffffff8116811461166f57600080fd5b919050565b6000806040838503121561168757600080fd5b6116908361165b565b946020939093013593505050565b634e487b7160e01b600052604160045260246000fd5b604051606081016001600160401b03811182821017156116d6576116d661169e565b60405290565b604051601f8201601f191681016001600160401b03811182821017156117045761170461169e565b604052919050565b600082601f83011261171d57600080fd5b81356001600160401b038111156117365761173661169e565b611749601f8201601f19166020016116dc565b81815284602083860101111561175e57600080fd5b816020850160208301376000918101602001919091529392505050565b803561ffff8116811461166f57600080fd5b6000806000606084860312156117a257600080fd5b83356001600160401b03808211156117b957600080fd5b6117c58783880161170c565b94506117d36020870161177b565b935060408601359150808211156117e957600080fd5b506117f68682870161170c565b9150509250925092565b60005b8381101561181b578181015183820152602001611803565b50506000910152565b6000815180845261183c816020860160208601611800565b601f01601f19169290920160200192915050565b6020815260006106086020830184611824565b6000806040838503121561187657600080fd5b61187f8361165b565b915061188d6020840161177b565b90509250929050565b600080602083850312156118a957600080fd5b82356001600160401b038111156118bf57600080fd5b6118cb85828601611542565b90969095509350505050565b6080815260006118ea6080830187611824565b61ffff959095166020830152506040810192909252606090910152919050565b60008060008060a0858703121561192057600080fd5b61192a868661152a565b935060608501356001600160401b0381111561194557600080fd5b61195187828801611542565b90945092505060808501356119658161158a565b939692955090935050565b6000806020838503121561198357600080fd5b82356001600160401b038082111561199a57600080fd5b818501915085601f8301126119ae57600080fd5b8135818111156119bd57600080fd5b8660208260051b85010111156119d257600080fd5b60209290920196919550909350505050565b6000602082840312156119f657600080fd5b6106088261165b565b60008060008060608587031215611a1557600080fd5b611a1e8561165b565b9350611a2c6020860161177b565b925060408501356001600160401b03811115611a4757600080fd5b611a5387828801611542565b95989497509550505050565b8015158114610a2257600080fd5b60008060008060008060008060c0898b031215611a8957600080fd5b611a928961165b565b9750611aa060208a0161177b565b965060408901356001600160401b0380821115611abc57600080fd5b611ac88c838d0161170c565b975060608b0135915080821115611ade57600080fd5b611aea8c838d01611542565b909750955060808b0135915080821115611b0357600080fd5b50611b108b828c01611542565b90945092505060a0890135611b2481611a5f565b809150509295985092959890939650565b600080600080600080600060a0888a031215611b5057600080fd5b611b598861165b565b9650611b676020890161177b565b955060408801356001600160401b0380821115611b8357600080fd5b611b8f8b838c0161170c565b965060608a0135915080821115611ba557600080fd5b611bb18b838c01611542565b909650945060808a013591508082111561161e57600080fd5b600060608284031215611bdc57600080fd5b610608838361152a565b60a081526000611bf960a0830188611824565b61ffff871660208401528560408401528281036060840152611c1b8186611824565b9150508260808301529695505050505050565b600181811c90821680611c4257607f821691505b60208210810361153c57634e487b7160e01b600052602260045260246000fd5b600080600060608486031215611c7757600080fd5b83356001600160401b03811115611c8d57600080fd5b611c998682870161170c565b935050611ca86020850161177b565b9150604084013590509250925092565b60006001600160401b0380841115611cd257611cd261169e565b8360051b6020611ce38183016116dc565b868152918501918181019036841115611cfb57600080fd5b865b84811015611d8157803586811115611d155760008081fd5b88016060368290031215611d295760008081fd5b611d316116b4565b611d3a8261165b565b8152611d4786830161177b565b8682015260408083013589811115611d5f5760008081fd5b611d6b3682860161170c565b9183019190915250845250918301918301611cfd565b50979650505050505050565b60008085851115611d9d57600080fd5b83861115611daa57600080fd5b5050820193919092039150565b60008451611dc9818460208901611800565b8201838582376000930192835250909392505050565b60208152816020820152818360408301376000818301604090810191909152601f909201601f19160101919050565b604081526000611e216040830185611824565b905063ffffffff831660208301529392505050565b634e487b7160e01b600052603260045260246000fd5b601f8211156113d7576000816000526020600020601f850160051c81016020861015611e755750805b601f850160051c820191505b81811015611e9457828155600101611e81565b505050505050565b81516001600160401b03811115611eb557611eb561169e565b611ec981611ec38454611c2e565b84611e4c565b602080601f831160018114611efe5760008415611ee65750858301515b600019600386901b1c1916600185901b178555611e94565b600085815260208120601f198616915b82811015611f2d57888601518255948401946001909101908401611f0e565b5085821015611f4b5787850151600019600388901b60f8161c191681555b5050505050600190811b01905550565b600060208083018184528085518083526040925060408601915060408160051b87010184880160005b83811015611fd857888303603f190185528151805163ffffffff1684528781015161ffff16888501528601516060878501819052611fc481860183611824565b968901969450505090860190600101611f84565b509098975050505050505050565b6040815263ffffffff8351166040820152602083015160608201526000604084015160a0608084015261201c60e0840182611824565b90506060850151603f198483030160a08501526120398282611824565b60809690960151151560c08501525050506001600160a01b039190911660209091015290565b60006040828403121561207157600080fd5b604051604081018181106001600160401b03821117156120935761209361169e565b604052825181526020928301519281019290925250919050565b6000604082840312156120bf57600080fd5b610608838361205f565b6000608082840312156120db57600080fd5b6120e36116b4565b8251815260208301516001600160401b038116811461210157600080fd5b6020820152612113846040850161205f565b60408201529392505050565b6000806040838503121561213257600080fd5b505080516020909101519092909150565b8082018082111561070057634e487b7160e01b600052601160045260246000fd5b6040815260006121776040830185611824565b905061ffff831660208301529392505050565b60608152600080855461219c81611c2e565b80606086015260806001808416600081146121be57600181146121da5761220c565b60ff1985166080890152608084151560051b890101955061220c565b8a60005260208060002060005b868110156122025781548b82018701529084019082016121e7565b8a01608001975050505b5050505063ffffffff86166020850152509050826040830152949350505050565b60006020828403121561223f57600080fd5b81516106088161158a565b60006020828403121561225c57600080fd5b815161060881611a5f565b60008251612279818460208701611800565b919091019291505056fea26469706673582212208acc65117794a0d453c458df94492c445e5d011dc5925b1c7fa8f230679f543964736f6c63430008160033",
  "linkReferences": {},
  "deployedLinkReferences": {}
}