{"contracts/Borrow.sol":{"BorrowLend":{"abi":[{"inputs":[],"stateMutability":"nonpayable","type":"constructor"},{"inputs":[{"internalType":"uint256","name":"available","type":"uint256"},{"internalType":"uint256","name":"required","type":"uint256"}],"name":"ContractUnderFunded","type":"error"},{"inputs":[{"internalType":"address","name":"token","type":"address"}],"name":"IncorrectRepaymentToken","type":"error"},{"inputs":[{"internalType":"uint256","name":"available","type":"uint256"},{"internalType":"uint256","name":"required","type":"uint256"}],"name":"InsufficientBalance","type":"error"},{"inputs":[{"internalType":"uint256","name":"rewardAmount","type":"uint256"},{"internalType":"uint256","name":"halfDebtInUSD","type":"uint256"}],"name":"NoRewardForLiquidation","type":"error"},{"inputs":[{"internalType":"uint256","name":"healthFactor","type":"uint256"},{"internalType":"uint256","name":"minHealthFactor","type":"uint256"}],"name":"NotLiquidatable","type":"error"},{"inputs":[{"internalType":"uint256","name":"maxAllowed","type":"uint256"},{"internalType":"uint256","name":"requested","type":"uint256"}],"name":"OverLeveraged","type":"error"},{"inputs":[{"internalType":"uint256","name":"available","type":"uint256"},{"internalType":"uint256","name":"requested","type":"uint256"}],"name":"Overpayment","type":"error"},{"inputs":[{"internalType":"address","name":"owner","type":"address"}],"name":"OwnableInvalidOwner","type":"error"},{"inputs":[{"internalType":"address","name":"account","type":"address"}],"name":"OwnableUnauthorizedAccount","type":"error"},{"inputs":[{"internalType":"address","name":"token","type":"address"}],"name":"TokenNotAllowed","type":"error"},{"inputs":[],"name":"TransferFailed","type":"error"},{"inputs":[],"name":"zeroAmount","type":"error"},{"anonymous":false,"inputs":[{"indexed":true,"internalType":"address","name":"token","type":"address"},{"indexed":true,"internalType":"address","name":"priceFeed","type":"address"}],"name":"AllowedTokenSet","type":"event"},{"anonymous":false,"inputs":[{"indexed":true,"internalType":"address","name":"account","type":"address"},{"indexed":true,"internalType":"address","name":"token","type":"address"},{"indexed":true,"internalType":"uint256","name":"amount","type":"uint256"}],"name":"Borrow","type":"event"},{"anonymous":false,"inputs":[{"indexed":true,"internalType":"address","name":"account","type":"address"},{"indexed":true,"internalType":"uint256","name":"amount","type":"uint256"}],"name":"DepositedNativeAsset","type":"event"},{"anonymous":false,"inputs":[{"indexed":true,"internalType":"address","name":"account","type":"address"},{"indexed":true,"internalType":"address","name":"token","type":"address"},{"indexed":true,"internalType":"uint256","name":"amount","type":"uint256"}],"name":"DepositedToken","type":"event"},{"anonymous":false,"inputs":[{"indexed":true,"internalType":"address","name":"account","type":"address"},{"indexed":true,"internalType":"address","name":"repayToken","type":"address"},{"indexed":true,"internalType":"address","name":"rewardToken","type":"address"},{"indexed":false,"internalType":"uint256","name":"halfDebtInEth","type":"uint256"},{"indexed":false,"internalType":"address","name":"liquidator","type":"address"}],"name":"Liquidate","type":"event"},{"anonymous":false,"inputs":[{"indexed":true,"internalType":"address","name":"account","type":"address"},{"indexed":true,"internalType":"address","name":"repayToken","type":"address"},{"indexed":false,"internalType":"uint256","name":"halfDebtInEth","type":"uint256"},{"indexed":false,"internalType":"address","name":"liquidator","type":"address"}],"name":"LiquidateForNative","type":"event"},{"anonymous":false,"inputs":[{"indexed":true,"internalType":"address","name":"previousOwner","type":"address"},{"indexed":true,"internalType":"address","name":"newOwner","type":"address"}],"name":"OwnershipTransferred","type":"event"},{"anonymous":false,"inputs":[{"indexed":true,"internalType":"address","name":"account","type":"address"},{"indexed":true,"internalType":"address","name":"token","type":"address"},{"indexed":true,"internalType":"uint256","name":"amount","type":"uint256"}],"name":"Repay","type":"event"},{"anonymous":false,"inputs":[{"indexed":true,"internalType":"address","name":"account","type":"address"},{"indexed":true,"internalType":"address","name":"token","type":"address"},{"indexed":true,"internalType":"uint256","name":"amount","type":"uint256"}],"name":"Withdraw","type":"event"},{"anonymous":false,"inputs":[{"indexed":true,"internalType":"address","name":"account","type":"address"},{"indexed":true,"internalType":"uint256","name":"amount","type":"uint256"}],"name":"WithdrawNative","type":"event"},{"inputs":[],"name":"LIQUIDATION_REWARD","outputs":[{"internalType":"uint256","name":"","type":"uint256"}],"stateMutability":"view","type":"function"},{"inputs":[],"name":"LIQUIDATION_THRESHOLD","outputs":[{"internalType":"uint256","name":"","type":"uint256"}],"stateMutability":"view","type":"function"},{"inputs":[],"name":"MIN_HEALH_FACTOR","outputs":[{"internalType":"uint256","name":"","type":"uint256"}],"stateMutability":"view","type":"function"},{"inputs":[{"internalType":"uint256","name":"","type":"uint256"}],"name":"allowedTokens","outputs":[{"internalType":"address","name":"","type":"address"}],"stateMutability":"view","type":"function"},{"inputs":[{"internalType":"address","name":"_token","type":"address"},{"internalType":"uint256","name":"_amount","type":"uint256"}],"name":"borrow","outputs":[],"stateMutability":"nonpayable","type":"function"},{"inputs":[{"internalType":"address","name":"","type":"address"},{"internalType":"address","name":"","type":"address"}],"name":"borrows","outputs":[{"internalType":"uint256","name":"","type":"uint256"}],"stateMutability":"view","type":"function"},{"inputs":[{"internalType":"address","name":"_user","type":"address"}],"name":"calculateBorrowValue","outputs":[{"internalType":"uint256","name":"","type":"uint256"}],"stateMutability":"view","type":"function"},{"inputs":[{"internalType":"address","name":"_user","type":"address"}],"name":"calculateDepositValue","outputs":[{"internalType":"uint256","name":"","type":"uint256"}],"stateMutability":"view","type":"function"},{"inputs":[{"internalType":"uint256","name":"_amount","type":"uint256"}],"name":"calculateNativeAssetUSDValue","outputs":[{"internalType":"uint256","name":"","type":"uint256"}],"stateMutability":"view","type":"function"},{"inputs":[{"internalType":"uint256","name":"_amount","type":"uint256"}],"name":"calculateNativeAssetValueFromUSD","outputs":[{"internalType":"uint256","name":"","type":"uint256"}],"stateMutability":"view","type":"function"},{"inputs":[{"internalType":"address","name":"_token","type":"address"},{"internalType":"uint256","name":"_amount","type":"uint256"}],"name":"calculateTokenValueFromUSD","outputs":[{"internalType":"uint256","name":"","type":"uint256"}],"stateMutability":"view","type":"function"},{"inputs":[{"internalType":"address","name":"_token","type":"address"},{"internalType":"uint256","name":"_amount","type":"uint256"}],"name":"calculateUSDValue","outputs":[{"internalType":"uint256","name":"","type":"uint256"}],"stateMutability":"view","type":"function"},{"inputs":[],"name":"depositNative","outputs":[],"stateMutability":"payable","type":"function"},{"inputs":[{"internalType":"address","name":"_token","type":"address"},{"internalType":"uint256","name":"_amount","type":"uint256"}],"name":"depositToken","outputs":[],"stateMutability":"nonpayable","type":"function"},{"inputs":[{"internalType":"address","name":"","type":"address"},{"internalType":"address","name":"","type":"address"}],"name":"deposits","outputs":[{"internalType":"uint256","name":"","type":"uint256"}],"stateMutability":"view","type":"function"},{"inputs":[],"name":"flareAdaptor","outputs":[{"internalType":"contract IFlareAdaptor","name":"","type":"address"}],"stateMutability":"view","type":"function"},{"inputs":[],"name":"getTotalContractBalance","outputs":[{"internalType":"uint256","name":"","type":"uint256"}],"stateMutability":"view","type":"function"},{"inputs":[{"internalType":"address","name":"_user","type":"address"}],"name":"healthFactor","outputs":[{"internalType":"uint256","name":"","type":"uint256"}],"stateMutability":"view","type":"function"},{"inputs":[{"internalType":"address","name":"_account","type":"address"},{"internalType":"address","name":"_tokenToRepay","type":"address"},{"internalType":"address","name":"_rewardToken","type":"address"}],"name":"liquidate","outputs":[],"stateMutability":"payable","type":"function"},{"inputs":[{"internalType":"address","name":"_account","type":"address"},{"internalType":"address","name":"_tokenToRepay","type":"address"}],"name":"liquidateForNative","outputs":[],"stateMutability":"nonpayable","type":"function"},{"inputs":[{"internalType":"address","name":"","type":"address"}],"name":"nativeDeposits","outputs":[{"internalType":"uint256","name":"","type":"uint256"}],"stateMutability":"view","type":"function"},{"inputs":[],"name":"nativeTokenProxyAddress","outputs":[{"internalType":"address","name":"","type":"address"}],"stateMutability":"view","type":"function"},{"inputs":[],"name":"owner","outputs":[{"internalType":"address","name":"","type":"address"}],"stateMutability":"view","type":"function"},{"inputs":[{"internalType":"address","name":"","type":"address"}],"name":"priceFeedOfToken","outputs":[{"internalType":"address","name":"","type":"address"}],"stateMutability":"view","type":"function"},{"inputs":[{"internalType":"address","name":"_priceFeed","type":"address"}],"name":"readDataFeed","outputs":[{"internalType":"uint256","name":"","type":"uint256"},{"internalType":"uint256","name":"","type":"uint256"}],"stateMutability":"view","type":"function"},{"inputs":[],"name":"renounceOwnership","outputs":[],"stateMutability":"nonpayable","type":"function"},{"inputs":[{"internalType":"address","name":"_token","type":"address"},{"internalType":"uint256","name":"_amount","type":"uint256"}],"name":"repay","outputs":[],"stateMutability":"payable","type":"function"},{"inputs":[{"internalType":"address","name":"_nativeTokenProxyAddress","type":"address"}],"name":"setNativeTokenProxyAddress","outputs":[],"stateMutability":"nonpayable","type":"function"},{"inputs":[{"internalType":"address","name":"_token","type":"address"},{"internalType":"address","name":"_priceFeed","type":"address"}],"name":"setTokensAvailable","outputs":[],"stateMutability":"nonpayable","type":"function"},{"inputs":[{"internalType":"address","name":"newOwner","type":"address"}],"name":"transferOwnership","outputs":[],"stateMutability":"nonpayable","type":"function"},{"inputs":[{"internalType":"address","name":"_user","type":"address"}],"name":"userInformation","outputs":[{"internalType":"uint256","name":"","type":"uint256"},{"internalType":"uint256","name":"","type":"uint256"}],"stateMutability":"view","type":"function"},{"inputs":[{"internalType":"address","name":"_token","type":"address"},{"internalType":"uint256","name":"_amount","type":"uint256"}],"name":"withdraw","outputs":[],"stateMutability":"nonpayable","type":"function"},{"inputs":[{"internalType":"uint256","name":"_amount","type":"uint256"}],"name":"withdrawNative","outputs":[],"stateMutability":"nonpayable","type":"function"}],"devdoc":{"errors":{"OwnableInvalidOwner(address)":[{"details":"The owner is not a valid owner account. (eg. `address(0)`)"}],"OwnableUnauthorizedAccount(address)":[{"details":"The caller account is not authorized to perform an operation."}]},"kind":"dev","methods":{"owner()":{"details":"Returns the address of the current owner."},"renounceOwnership()":{"details":"Leaves the contract without owner. It will not be possible to call `onlyOwner` functions. Can only be called by the current owner. NOTE: Renouncing ownership will leave the contract without an owner, thereby disabling any functionality that is only available to the owner."},"transferOwnership(address)":{"details":"Transfers ownership of the contract to a new account (`newOwner`). Can only be called by the current owner."}},"version":1},"evm":{"bytecode":{"linkReferences":{},"object":"608060405234801561001057600080fd5b50338061003757604051631e4fbdf760e01b81526000600482015260240160405180910390fd5b61004081610046565b50610096565b600080546001600160a01b038381166001600160a01b0319831681178455604051919092169283917f8be0079c531659141344cd1fd0a4f28419497f9722a3daafe3b4186f6b6457e09190a35050565b611a27806100a56000396000f3fe6080604052600436106101ee5760003560e01c80637e0baf871161010d578063ad0d7594116100a0578063df80eed21161006f578063df80eed214610599578063eaed04b5146105b1578063f2fde38b146105d1578063f3fef3a3146105f1578063f6c6bdee1461061157600080fd5b8063ad0d759414610556578063ca5ce2ec1461056b578063d9e3fd641461057e578063db6b52461461059157600080fd5b80638f601f66116100dc5780638f601f66146104c957806390a8ae9b14610501578063a923da2314610516578063ac4ffcdf1461053657600080fd5b80637e0baf871461043557806384276d811461046b5780638da5cb5b1461048b5780638eac6661146104a957600080fd5b806358013786116101855780636c29219c116101545780636c29219c146103a8578063715018a6146103e057806379a71a87146103f55780637d2e227d1461041557600080fd5b8063580137861461032857806359e71375146103485780635e5f2e26146103685780636ad9f9df1461038857600080fd5b80633e0fd70f116101c15780633e0fd70f1461029057806346e303f2146102b05780634b8a3529146102d05780634cdb66bc146102f057600080fd5b8063072c7dde146101f357806322867d781461022d578063322d7a6214610242578063338b5dea14610270575b600080fd5b3480156101ff57600080fd5b5061021361020e366004611833565b61063e565b604080519283526020830191909152015b60405180910390f35b61024061023b36600461184e565b6106b7565b005b34801561024e57600080fd5b5061026261025d366004611833565b61071f565b604051908152602001610224565b34801561027c57600080fd5b5061024061028b36600461184e565b6107f2565b34801561029c57600080fd5b506102406102ab366004611878565b61096d565b3480156102bc57600080fd5b506102626102cb3660046118ab565b610a78565b3480156102dc57600080fd5b506102406102eb36600461184e565b610ab9565b3480156102fc57600080fd5b50600754610310906001600160a01b031681565b6040516001600160a01b039091168152602001610224565b34801561033457600080fd5b50610262610343366004611833565b610c97565b34801561035457600080fd5b5061026261036336600461184e565b610d16565b34801561037457600080fd5b506103106103833660046118ab565b610d68565b34801561039457600080fd5b506102626103a3366004611833565b610d92565b3480156103b457600080fd5b506102626103c3366004611878565b600660209081526000928352604080842090915290825290205481565b3480156103ec57600080fd5b50610240610df9565b34801561040157600080fd5b50610240610410366004611833565b610e0d565b34801561042157600080fd5b50610213610430366004611833565b610e37565b34801561044157600080fd5b50610310610450366004611833565b6003602052600090815260409020546001600160a01b031681565b34801561047757600080fd5b506102406104863660046118ab565b610e5d565b34801561049757600080fd5b506000546001600160a01b0316610310565b3480156104b557600080fd5b506102626104c43660046118ab565b610f80565b3480156104d557600080fd5b506102626104e4366004611878565b600560209081526000928352604080842090915290825290205481565b34801561050d57600080fd5b50610262604681565b34801561052257600080fd5b50610240610531366004611878565b610fb0565b34801561054257600080fd5b5061026261055136600461184e565b611181565b34801561056257600080fd5b50610262600581565b6102406105793660046118c4565b6111bf565b34801561058a57600080fd5b5047610262565b6102406113d4565b3480156105a557600080fd5b506102626305f5e10081565b3480156105bd57600080fd5b50600154610310906001600160a01b031681565b3480156105dd57600080fd5b506102406105ec366004611833565b611448565b3480156105fd57600080fd5b5061024061060c36600461184e565b611486565b34801561061d57600080fd5b5061026261062c366004611833565b60046020526000908152604090205481565b6000806000839050600080826001600160a01b03166357de26a46040518163ffffffff1660e01b81526004016040805180830381865afa158015610686573d6000803e3d6000fd5b505050506040513d601f19601f820116820180604052508101906106aa9190611907565b9097909650945050505050565b806000036106d857604051637685565760e01b815260040160405180910390fd5b6106e3338383611646565b60405181906001600160a01b0384169033907f05f2eeda0e08e4b437f487c8d7d29b14537d15e3488170dc3de5dbdf8dac468490600090a45050565b6001600160a01b03811660009081526004602052604081205481901561076e576001600160a01b03831660009081526004602052604090205461076190610a78565b61076b9082611941565b90505b60005b6002548110156107eb5760006002828154811061079057610790611954565b60009182526020808320909101546001600160a01b0388811684526005835260408085209190921680855292529091205490915080156107e1576107d48282611181565b6107de9085611941565b93505b5050600101610771565b5092915050565b6001600160a01b0380831660009081526003602052604090205483911661083c5760405163094403b760e41b81526001600160a01b03821660048201526024015b60405180910390fd5b8160000361085d57604051637685565760e01b815260040160405180910390fd5b6040516323b872dd60e01b8152336004820152306024820152604481018390526000906001600160a01b038516906323b872dd906064016020604051808303816000875af11580156108b3573d6000803e3d6000fd5b505050506040513d601f19601f820116820180604052508101906108d7919061196a565b9050806108f7576040516312171d8360e31b815260040160405180910390fd5b3360009081526005602090815260408083206001600160a01b03881684529091528120805485929061092a908490611941565b909155505060405183906001600160a01b0386169033907f7a43fc511e5571803e978d5d53bbfb35b899d0c8acdc2039769bfbc77082fa3390600090a450505050565b61097561179a565b600254600090815b818110156109cd57846001600160a01b0316600282815481106109a2576109a2611954565b6000918252602090912001546001600160a01b0316036109c557600192506109cd565b60010161097d565b5081610a1f57600280546001810182556000919091527f405787fa12a823e0f2b7631cc41b3ba8828b3321ca811111fa75cd3aa3bb5ace0180546001600160a01b0319166001600160a01b0386161790555b6001600160a01b0384811660008181526003602052604080822080546001600160a01b0319169488169485179055517f4f9bd0d8360fd59a62c52cf8b386f7c7b65097c9e336e860d08ffb9df34067d19190a350505050565b6007546000908190610a92906001600160a01b031661063e565b509050670de0b6b3a7640000610aa8828561198c565b610ab291906119a3565b9392505050565b6040516370a0823160e01b81523060048201526001600160a01b038316906370a0823190602401602060405180830381865afa158015610afd573d6000803e3d6000fd5b505050506040513d601f19601f82011682018060405250810190610b2191906119c5565b811115610b4a57604051631f39936560e31b815247600482015260248101829052604401610833565b3360009081526006602090815260408083206001600160a01b038616845290915281208054839290610b7d908490611941565b909155505060405163a9059cbb60e01b8152336004820152602481018290526000906001600160a01b0384169063a9059cbb906044016020604051808303816000875af1158015610bd2573d6000803e3d6000fd5b505050506040513d601f19601f82011682018060405250810190610bf6919061196a565b905080610c16576040516312171d8360e31b815260040160405180910390fd5b60405182906001600160a01b0385169033907f312a5e5e1079f5dda4e95dbbd0b908b291fd5b992ef22073643ab691572c5b5290600090a46305f5e100610c5c33610d92565b1015610c92576305f5e100610c7033610d92565b604051635b61fd1360e11b815260048101929092526024820152604401610833565b505050565b600080805b6002548110156107eb57600060028281548110610cbb57610cbb611954565b60009182526020808320909101546001600160a01b038881168452600683526040808520919092168085529252909120549091508015610d0c57610cff8282611181565b610d099085611941565b93505b5050600101610c9c565b6001600160a01b0380831660009081526003602052604081205490918291610d3e911661063e565b50905080610d5484670de0b6b3a764000061198c565b610d5e91906119a3565b9150505b92915050565b60028181548110610d7857600080fd5b6000918252602090912001546001600160a01b0316905081565b6000806000610da084610e37565b909250905060006064610db460468461198c565b610dbe91906119a3565b905082600003610dd757506402540be400949350505050565b82610de6826305f5e10061198c565b610df091906119a3565b95945050505050565b610e0161179a565b610e0b60006117c7565b565b610e1561179a565b600780546001600160a01b0319166001600160a01b0392909216919091179055565b6000806000610e458461071f565b90506000610e5285610c97565b959194509092505050565b80600003610e7e57604051637685565760e01b815260040160405180910390fd5b33600090815260046020526040902054811115610ecb573360009081526004602081905260409182902054915163cf47918160e01b81526108339291849101918252602082015260400190565b3360009081526004602052604081208054839290610eea9084906119de565b9091555050604051600090339083156108fc0290849084818181858888f19350505050905080610f2d576040516312171d8360e31b815260040160405180910390fd5b6305f5e100610f3b33610d92565b1015610f4f576305f5e100610c7033610d92565b604051829033907fde93db11f7aedf7cb3be22dc4d80e7790ab4b59a30aae83e86ac8326245542c590600090a35050565b6007546000908190610f9a906001600160a01b031661063e565b50905080610aa884670de0b6b3a764000061198c565b6305f5e100610fbe83610d92565b10610ff357610fcc82610d92565b604051636c76e19b60e11b815260048101919091526305f5e1006024820152604401610833565b6001600160a01b038083166000908152600660209081526040808320938516835292905290812054611027906002906119a3565b905060006110358383611181565b9050806000036110635760405163f4ba52c560e01b81526001600160a01b0384166004820152602401610833565b6000606461107260058461198c565b61107c91906119a3565b9050600061108d6104c48484611941565b9050806000036110ba57604051636a5b45c360e01b81526004810183905260248101849052604401610833565b6110c5868686611646565b6001600160a01b038616600090815260046020526040812080548392906110ed9084906119de565b9091555050604051600090339083156108fc0290849084818181858888f19350505050905080611130576040516312171d8360e31b815260040160405180910390fd5b604080518581523360208201526001600160a01b0380891692908a16917f6c24c03a659501697397faf17be8c03108f14d28a819340bc38c871c0ac3d346910160405180910390a350505050505050565b6001600160a01b03808316600090815260036020526040812054909182916111a9911661063e565b509050670de0b6b3a7640000610d54828561198c565b6305f5e1006111cd84610d92565b106111db57610fcc83610d92565b6001600160a01b03808416600090815260066020908152604080832093861683529290529081205461120f906002906119a3565b9050600061121d8483611181565b90508060000361124b5760405163f4ba52c560e01b81526001600160a01b0385166004820152602401610833565b6000606461125a60058461198c565b61126491906119a3565b90506000611276856103638585611941565b9050806000036112a357604051636a5b45c360e01b81526004810183905260248101849052604401610833565b6112ae878786611646565b6001600160a01b038088166000908152600560209081526040808320938916835292905290812080548392906112e59084906119de565b909155505060405163a9059cbb60e01b8152336004820152602481018290526000906001600160a01b0387169063a9059cbb906044016020604051808303816000875af115801561133a573d6000803e3d6000fd5b505050506040513d601f19601f8201168201806040525081019061135e919061196a565b90508061137e576040516312171d8360e31b815260040160405180910390fd5b604080518581523360208201526001600160a01b03808916928a821692918c16917fcea6068021f706074af611c2a4b6b08820c5b8223a80149684c64c60ce7be3cc910160405180910390a45050505050505050565b346000036113f557604051637685565760e01b815260040160405180910390fd5b3360009081526004602052604081208054349290611414908490611941565b9091555050604051349033907f86643f2dc412f1ceecd63d80cc81c9957142c3d9ee29578fae4bf4d1ef106fb290600090a3565b61145061179a565b6001600160a01b03811661147a57604051631e4fbdf760e01b815260006004820152602401610833565b611483816117c7565b50565b806000036114a757604051637685565760e01b815260040160405180910390fd5b3360009081526005602090815260408083206001600160a01b038616845290915290205481111561151b573360009081526005602090815260408083206001600160a01b03861684529091529081902054905163cf47918160e01b8152600481019190915260248101829052604401610833565b3360009081526005602090815260408083206001600160a01b03861684529091528120805483929061154e9084906119de565b909155505060405163a9059cbb60e01b8152336004820152602481018290526000906001600160a01b0384169063a9059cbb906044016020604051808303816000875af11580156115a3573d6000803e3d6000fd5b505050506040513d601f19601f820116820180604052508101906115c7919061196a565b9050806115e7576040516312171d8360e31b815260040160405180910390fd5b6305f5e1006115f533610d92565b1015611609576305f5e100610c7033610d92565b60405182906001600160a01b0385169033907f9b1bfa7fa9ee420a16e124f794c35ac9f90472acc99140eb2f6447c714cad8eb90600090a4505050565b6001600160a01b038084166000908152600660209081526040808320938616835292905220548111156116be576001600160a01b03838116600090815260066020908152604080832093861683529290528190205490516349adcabf60e01b8152600481019190915260248101829052604401610833565b6040516323b872dd60e01b8152336004820152306024820152604481018290526000906001600160a01b038416906323b872dd906064016020604051808303816000875af1158015611714573d6000803e3d6000fd5b505050506040513d601f19601f82011682018060405250810190611738919061196a565b905080611758576040516312171d8360e31b815260040160405180910390fd5b6001600160a01b0380851660009081526006602090815260408083209387168352929052908120805484929061178f9084906119de565b909155505050505050565b6000546001600160a01b03163314610e0b5760405163118cdaa760e01b8152336004820152602401610833565b600080546001600160a01b038381166001600160a01b0319831681178455604051919092169283917f8be0079c531659141344cd1fd0a4f28419497f9722a3daafe3b4186f6b6457e09190a35050565b80356001600160a01b038116811461182e57600080fd5b919050565b60006020828403121561184557600080fd5b610ab282611817565b6000806040838503121561186157600080fd5b61186a83611817565b946020939093013593505050565b6000806040838503121561188b57600080fd5b61189483611817565b91506118a260208401611817565b90509250929050565b6000602082840312156118bd57600080fd5b5035919050565b6000806000606084860312156118d957600080fd5b6118e284611817565b92506118f060208501611817565b91506118fe60408501611817565b90509250925092565b6000806040838503121561191a57600080fd5b505080516020909101519092909150565b634e487b7160e01b600052601160045260246000fd5b80820180821115610d6257610d6261192b565b634e487b7160e01b600052603260045260246000fd5b60006020828403121561197c57600080fd5b81518015158114610ab257600080fd5b8082028115828204841417610d6257610d6261192b565b6000826119c057634e487b7160e01b600052601260045260246000fd5b500490565b6000602082840312156119d757600080fd5b5051919050565b81810381811115610d6257610d6261192b56fea26469706673582212207d23b8a43801c9576d25f72b838b6124df8395066cd32975abbc99825227e7aa64736f6c63430008160033","opcodes":"PUSH1 0x80 PUSH1 0x40 MSTORE CALLVALUE DUP1 ISZERO PUSH2 0x10 JUMPI PUSH1 0x0 DUP1 REVERT JUMPDEST POP CALLER DUP1 PUSH2 0x37 JUMPI PUSH1 0x40 MLOAD PUSH4 0x1E4FBDF7 PUSH1 0xE0 SHL DUP2 MSTORE PUSH1 0x0 PUSH1 0x4 DUP3 ADD MSTORE PUSH1 0x24 ADD PUSH1 0x40 MLOAD DUP1 SWAP2 SUB SWAP1 REVERT JUMPDEST PUSH2 0x40 DUP2 PUSH2 0x46 JUMP JUMPDEST POP PUSH2 0x96 JUMP JUMPDEST PUSH1 0x0 DUP1 SLOAD PUSH1 0x1 PUSH1 0x1 PUSH1 0xA0 SHL SUB DUP4 DUP2 AND PUSH1 0x1 PUSH1 0x1 PUSH1 0xA0 SHL SUB NOT DUP4 AND DUP2 OR DUP5 SSTORE PUSH1 0x40 MLOAD SWAP2 SWAP1 SWAP3 AND SWAP3 DUP4 SWAP2 PUSH32 0x8BE0079C531659141344CD1FD0A4F28419497F9722A3DAAFE3B4186F6B6457E0 SWAP2 SWAP1 LOG3 POP POP JUMP JUMPDEST PUSH2 0x1A27 DUP1 PUSH2 0xA5 PUSH1 0x0 CODECOPY PUSH1 0x0 RETURN INVALID PUSH1 0x80 PUSH1 0x40 MSTORE PUSH1 0x4 CALLDATASIZE LT PUSH2 0x1EE JUMPI PUSH1 0x0 CALLDATALOAD PUSH1 0xE0 SHR DUP1 PUSH4 0x7E0BAF87 GT PUSH2 0x10D JUMPI DUP1 PUSH4 0xAD0D7594 GT PUSH2 0xA0 JUMPI DUP1 PUSH4 0xDF80EED2 GT PUSH2 0x6F JUMPI DUP1 PUSH4 0xDF80EED2 EQ PUSH2 0x599 JUMPI DUP1 PUSH4 0xEAED04B5 EQ PUSH2 0x5B1 JUMPI DUP1 PUSH4 0xF2FDE38B EQ PUSH2 0x5D1 JUMPI DUP1 PUSH4 0xF3FEF3A3 EQ PUSH2 0x5F1 JUMPI DUP1 PUSH4 0xF6C6BDEE EQ PUSH2 0x611 JUMPI PUSH1 0x0 DUP1 REVERT JUMPDEST DUP1 PUSH4 0xAD0D7594 EQ PUSH2 0x556 JUMPI DUP1 PUSH4 0xCA5CE2EC EQ PUSH2 0x56B JUMPI DUP1 PUSH4 0xD9E3FD64 EQ PUSH2 0x57E JUMPI DUP1 PUSH4 0xDB6B5246 EQ PUSH2 0x591 JUMPI PUSH1 0x0 DUP1 REVERT JUMPDEST DUP1 PUSH4 0x8F601F66 GT PUSH2 0xDC JUMPI DUP1 PUSH4 0x8F601F66 EQ PUSH2 0x4C9 JUMPI DUP1 PUSH4 0x90A8AE9B EQ PUSH2 0x501 JUMPI DUP1 PUSH4 0xA923DA23 EQ PUSH2 0x516 JUMPI DUP1 PUSH4 0xAC4FFCDF EQ PUSH2 0x536 JUMPI PUSH1 0x0 DUP1 REVERT JUMPDEST DUP1 PUSH4 0x7E0BAF87 EQ PUSH2 0x435 JUMPI DUP1 PUSH4 0x84276D81 EQ PUSH2 0x46B JUMPI DUP1 PUSH4 0x8DA5CB5B EQ PUSH2 0x48B JUMPI DUP1 PUSH4 0x8EAC6661 EQ PUSH2 0x4A9 JUMPI PUSH1 0x0 DUP1 REVERT JUMPDEST DUP1 PUSH4 0x58013786 GT PUSH2 0x185 JUMPI DUP1 PUSH4 0x6C29219C GT PUSH2 0x154 JUMPI DUP1 PUSH4 0x6C29219C EQ PUSH2 0x3A8 JUMPI DUP1 PUSH4 0x715018A6 EQ PUSH2 0x3E0 JUMPI DUP1 PUSH4 0x79A71A87 EQ PUSH2 0x3F5 JUMPI DUP1 PUSH4 0x7D2E227D EQ PUSH2 0x415 JUMPI PUSH1 0x0 DUP1 REVERT JUMPDEST DUP1 PUSH4 0x58013786 EQ PUSH2 0x328 JUMPI DUP1 PUSH4 0x59E71375 EQ PUSH2 0x348 JUMPI DUP1 PUSH4 0x5E5F2E26 EQ PUSH2 0x368 JUMPI DUP1 PUSH4 0x6AD9F9DF EQ PUSH2 0x388 JUMPI PUSH1 0x0 DUP1 REVERT JUMPDEST DUP1 PUSH4 0x3E0FD70F GT PUSH2 0x1C1 JUMPI DUP1 PUSH4 0x3E0FD70F EQ PUSH2 0x290 JUMPI DUP1 PUSH4 0x46E303F2 EQ PUSH2 0x2B0 JUMPI DUP1 PUSH4 0x4B8A3529 EQ PUSH2 0x2D0 JUMPI DUP1 PUSH4 0x4CDB66BC EQ PUSH2 0x2F0 JUMPI PUSH1 0x0 DUP1 REVERT JUMPDEST DUP1 PUSH4 0x72C7DDE EQ PUSH2 0x1F3 JUMPI DUP1 PUSH4 0x22867D78 EQ PUSH2 0x22D JUMPI DUP1 PUSH4 0x322D7A62 EQ PUSH2 0x242 JUMPI DUP1 PUSH4 0x338B5DEA EQ PUSH2 0x270 JUMPI JUMPDEST PUSH1 0x0 DUP1 REVERT JUMPDEST CALLVALUE DUP1 ISZERO PUSH2 0x1FF JUMPI PUSH1 0x0 DUP1 REVERT JUMPDEST POP PUSH2 0x213 PUSH2 0x20E CALLDATASIZE PUSH1 0x4 PUSH2 0x1833 JUMP JUMPDEST PUSH2 0x63E JUMP JUMPDEST PUSH1 0x40 DUP1 MLOAD SWAP3 DUP4 MSTORE PUSH1 0x20 DUP4 ADD SWAP2 SWAP1 SWAP2 MSTORE ADD JUMPDEST PUSH1 0x40 MLOAD DUP1 SWAP2 SUB SWAP1 RETURN JUMPDEST PUSH2 0x240 PUSH2 0x23B CALLDATASIZE PUSH1 0x4 PUSH2 0x184E JUMP JUMPDEST PUSH2 0x6B7 JUMP JUMPDEST STOP JUMPDEST CALLVALUE DUP1 ISZERO PUSH2 0x24E JUMPI PUSH1 0x0 DUP1 REVERT JUMPDEST POP PUSH2 0x262 PUSH2 0x25D CALLDATASIZE PUSH1 0x4 PUSH2 0x1833 JUMP JUMPDEST PUSH2 0x71F JUMP JUMPDEST PUSH1 0x40 MLOAD SWAP1 DUP2 MSTORE PUSH1 0x20 ADD PUSH2 0x224 JUMP JUMPDEST CALLVALUE DUP1 ISZERO PUSH2 0x27C JUMPI PUSH1 0x0 DUP1 REVERT JUMPDEST POP PUSH2 0x240 PUSH2 0x28B CALLDATASIZE PUSH1 0x4 PUSH2 0x184E JUMP JUMPDEST PUSH2 0x7F2 JUMP JUMPDEST CALLVALUE DUP1 ISZERO PUSH2 0x29C JUMPI PUSH1 0x0 DUP1 REVERT JUMPDEST POP PUSH2 0x240 PUSH2 0x2AB CALLDATASIZE PUSH1 0x4 PUSH2 0x1878 JUMP JUMPDEST PUSH2 0x96D JUMP JUMPDEST CALLVALUE DUP1 ISZERO PUSH2 0x2BC JUMPI PUSH1 0x0 DUP1 REVERT JUMPDEST POP PUSH2 0x262 PUSH2 0x2CB CALLDATASIZE PUSH1 0x4 PUSH2 0x18AB JUMP JUMPDEST PUSH2 0xA78 JUMP JUMPDEST CALLVALUE DUP1 ISZERO PUSH2 0x2DC JUMPI PUSH1 0x0 DUP1 REVERT JUMPDEST POP PUSH2 0x240 PUSH2 0x2EB CALLDATASIZE PUSH1 0x4 PUSH2 0x184E JUMP JUMPDEST PUSH2 0xAB9 JUMP JUMPDEST CALLVALUE DUP1 ISZERO PUSH2 0x2FC JUMPI PUSH1 0x0 DUP1 REVERT JUMPDEST POP PUSH1 0x7 SLOAD PUSH2 0x310 SWAP1 PUSH1 0x1 PUSH1 0x1 PUSH1 0xA0 SHL SUB AND DUP2 JUMP JUMPDEST PUSH1 0x40 MLOAD PUSH1 0x1 PUSH1 0x1 PUSH1 0xA0 SHL SUB SWAP1 SWAP2 AND DUP2 MSTORE PUSH1 0x20 ADD PUSH2 0x224 JUMP JUMPDEST CALLVALUE DUP1 ISZERO PUSH2 0x334 JUMPI PUSH1 0x0 DUP1 REVERT JUMPDEST POP PUSH2 0x262 PUSH2 0x343 CALLDATASIZE PUSH1 0x4 PUSH2 0x1833 JUMP JUMPDEST PUSH2 0xC97 JUMP JUMPDEST CALLVALUE DUP1 ISZERO PUSH2 0x354 JUMPI PUSH1 0x0 DUP1 REVERT JUMPDEST POP PUSH2 0x262 PUSH2 0x363 CALLDATASIZE PUSH1 0x4 PUSH2 0x184E JUMP JUMPDEST PUSH2 0xD16 JUMP JUMPDEST CALLVALUE DUP1 ISZERO PUSH2 0x374 JUMPI PUSH1 0x0 DUP1 REVERT JUMPDEST POP PUSH2 0x310 PUSH2 0x383 CALLDATASIZE PUSH1 0x4 PUSH2 0x18AB JUMP JUMPDEST PUSH2 0xD68 JUMP JUMPDEST CALLVALUE DUP1 ISZERO PUSH2 0x394 JUMPI PUSH1 0x0 DUP1 REVERT JUMPDEST POP PUSH2 0x262 PUSH2 0x3A3 CALLDATASIZE PUSH1 0x4 PUSH2 0x1833 JUMP JUMPDEST PUSH2 0xD92 JUMP JUMPDEST CALLVALUE DUP1 ISZERO PUSH2 0x3B4 JUMPI PUSH1 0x0 DUP1 REVERT JUMPDEST POP PUSH2 0x262 PUSH2 0x3C3 CALLDATASIZE PUSH1 0x4 PUSH2 0x1878 JUMP JUMPDEST PUSH1 0x6 PUSH1 0x20 SWAP1 DUP2 MSTORE PUSH1 0x0 SWAP3 DUP4 MSTORE PUSH1 0x40 DUP1 DUP5 KECCAK256 SWAP1 SWAP2 MSTORE SWAP1 DUP3 MSTORE SWAP1 KECCAK256 SLOAD DUP2 JUMP JUMPDEST CALLVALUE DUP1 ISZERO PUSH2 0x3EC JUMPI PUSH1 0x0 DUP1 REVERT JUMPDEST POP PUSH2 0x240 PUSH2 0xDF9 JUMP JUMPDEST CALLVALUE DUP1 ISZERO PUSH2 0x401 JUMPI PUSH1 0x0 DUP1 REVERT JUMPDEST POP PUSH2 0x240 PUSH2 0x410 CALLDATASIZE PUSH1 0x4 PUSH2 0x1833 JUMP JUMPDEST PUSH2 0xE0D JUMP JUMPDEST CALLVALUE DUP1 ISZERO PUSH2 0x421 JUMPI PUSH1 0x0 DUP1 REVERT JUMPDEST POP PUSH2 0x213 PUSH2 0x430 CALLDATASIZE PUSH1 0x4 PUSH2 0x1833 JUMP JUMPDEST PUSH2 0xE37 JUMP JUMPDEST CALLVALUE DUP1 ISZERO PUSH2 0x441 JUMPI PUSH1 0x0 DUP1 REVERT JUMPDEST POP PUSH2 0x310 PUSH2 0x450 CALLDATASIZE PUSH1 0x4 PUSH2 0x1833 JUMP JUMPDEST PUSH1 0x3 PUSH1 0x20 MSTORE PUSH1 0x0 SWAP1 DUP2 MSTORE PUSH1 0x40 SWAP1 KECCAK256 SLOAD PUSH1 0x1 PUSH1 0x1 PUSH1 0xA0 SHL SUB AND DUP2 JUMP JUMPDEST CALLVALUE DUP1 ISZERO PUSH2 0x477 JUMPI PUSH1 0x0 DUP1 REVERT JUMPDEST POP PUSH2 0x240 PUSH2 0x486 CALLDATASIZE PUSH1 0x4 PUSH2 0x18AB JUMP JUMPDEST PUSH2 0xE5D JUMP JUMPDEST CALLVALUE DUP1 ISZERO PUSH2 0x497 JUMPI PUSH1 0x0 DUP1 REVERT JUMPDEST POP PUSH1 0x0 SLOAD PUSH1 0x1 PUSH1 0x1 PUSH1 0xA0 SHL SUB AND PUSH2 0x310 JUMP JUMPDEST CALLVALUE DUP1 ISZERO PUSH2 0x4B5 JUMPI PUSH1 0x0 DUP1 REVERT JUMPDEST POP PUSH2 0x262 PUSH2 0x4C4 CALLDATASIZE PUSH1 0x4 PUSH2 0x18AB JUMP JUMPDEST PUSH2 0xF80 JUMP JUMPDEST CALLVALUE DUP1 ISZERO PUSH2 0x4D5 JUMPI PUSH1 0x0 DUP1 REVERT JUMPDEST POP PUSH2 0x262 PUSH2 0x4E4 CALLDATASIZE PUSH1 0x4 PUSH2 0x1878 JUMP JUMPDEST PUSH1 0x5 PUSH1 0x20 SWAP1 DUP2 MSTORE PUSH1 0x0 SWAP3 DUP4 MSTORE PUSH1 0x40 DUP1 DUP5 KECCAK256 SWAP1 SWAP2 MSTORE SWAP1 DUP3 MSTORE SWAP1 KECCAK256 SLOAD DUP2 JUMP JUMPDEST CALLVALUE DUP1 ISZERO PUSH2 0x50D JUMPI PUSH1 0x0 DUP1 REVERT JUMPDEST POP PUSH2 0x262 PUSH1 0x46 DUP2 JUMP JUMPDEST CALLVALUE DUP1 ISZERO PUSH2 0x522 JUMPI PUSH1 0x0 DUP1 REVERT JUMPDEST POP PUSH2 0x240 PUSH2 0x531 CALLDATASIZE PUSH1 0x4 PUSH2 0x1878 JUMP JUMPDEST PUSH2 0xFB0 JUMP JUMPDEST CALLVALUE DUP1 ISZERO PUSH2 0x542 JUMPI PUSH1 0x0 DUP1 REVERT JUMPDEST POP PUSH2 0x262 PUSH2 0x551 CALLDATASIZE PUSH1 0x4 PUSH2 0x184E JUMP JUMPDEST PUSH2 0x1181 JUMP JUMPDEST CALLVALUE DUP1 ISZERO PUSH2 0x562 JUMPI PUSH1 0x0 DUP1 REVERT JUMPDEST POP PUSH2 0x262 PUSH1 0x5 DUP2 JUMP JUMPDEST PUSH2 0x240 PUSH2 0x579 CALLDATASIZE PUSH1 0x4 PUSH2 0x18C4 JUMP JUMPDEST PUSH2 0x11BF JUMP JUMPDEST CALLVALUE DUP1 ISZERO PUSH2 0x58A JUMPI PUSH1 0x0 DUP1 REVERT JUMPDEST POP SELFBALANCE PUSH2 0x262 JUMP JUMPDEST PUSH2 0x240 PUSH2 0x13D4 JUMP JUMPDEST CALLVALUE DUP1 ISZERO PUSH2 0x5A5 JUMPI PUSH1 0x0 DUP1 REVERT JUMPDEST POP PUSH2 0x262 PUSH4 0x5F5E100 DUP2 JUMP JUMPDEST CALLVALUE DUP1 ISZERO PUSH2 0x5BD JUMPI PUSH1 0x0 DUP1 REVERT JUMPDEST POP PUSH1 0x1 SLOAD PUSH2 0x310 SWAP1 PUSH1 0x1 PUSH1 0x1 PUSH1 0xA0 SHL SUB AND DUP2 JUMP JUMPDEST CALLVALUE DUP1 ISZERO PUSH2 0x5DD JUMPI PUSH1 0x0 DUP1 REVERT JUMPDEST POP PUSH2 0x240 PUSH2 0x5EC CALLDATASIZE PUSH1 0x4 PUSH2 0x1833 JUMP JUMPDEST PUSH2 0x1448 JUMP JUMPDEST CALLVALUE DUP1 ISZERO PUSH2 0x5FD JUMPI PUSH1 0x0 DUP1 REVERT JUMPDEST POP PUSH2 0x240 PUSH2 0x60C CALLDATASIZE PUSH1 0x4 PUSH2 0x184E JUMP JUMPDEST PUSH2 0x1486 JUMP JUMPDEST CALLVALUE DUP1 ISZERO PUSH2 0x61D JUMPI PUSH1 0x0 DUP1 REVERT JUMPDEST POP PUSH2 0x262 PUSH2 0x62C CALLDATASIZE PUSH1 0x4 PUSH2 0x1833 JUMP JUMPDEST PUSH1 0x4 PUSH1 0x20 MSTORE PUSH1 0x0 SWAP1 DUP2 MSTORE PUSH1 0x40 SWAP1 KECCAK256 SLOAD DUP2 JUMP JUMPDEST PUSH1 0x0 DUP1 PUSH1 0x0 DUP4 SWAP1 POP PUSH1 0x0 DUP1 DUP3 PUSH1 0x1 PUSH1 0x1 PUSH1 0xA0 SHL SUB AND PUSH4 0x57DE26A4 PUSH1 0x40 MLOAD DUP2 PUSH4 0xFFFFFFFF AND PUSH1 0xE0 SHL DUP2 MSTORE PUSH1 0x4 ADD PUSH1 0x40 DUP1 MLOAD DUP1 DUP4 SUB DUP2 DUP7 GAS STATICCALL ISZERO DUP1 ISZERO PUSH2 0x686 JUMPI RETURNDATASIZE PUSH1 0x0 DUP1 RETURNDATACOPY RETURNDATASIZE PUSH1 0x0 REVERT JUMPDEST POP POP POP POP PUSH1 0x40 MLOAD RETURNDATASIZE PUSH1 0x1F NOT PUSH1 0x1F DUP3 ADD AND DUP3 ADD DUP1 PUSH1 0x40 MSTORE POP DUP2 ADD SWAP1 PUSH2 0x6AA SWAP2 SWAP1 PUSH2 0x1907 JUMP JUMPDEST SWAP1 SWAP8 SWAP1 SWAP7 POP SWAP5 POP POP POP POP POP JUMP JUMPDEST DUP1 PUSH1 0x0 SUB PUSH2 0x6D8 JUMPI PUSH1 0x40 MLOAD PUSH4 0x76855657 PUSH1 0xE0 SHL DUP2 MSTORE PUSH1 0x4 ADD PUSH1 0x40 MLOAD DUP1 SWAP2 SUB SWAP1 REVERT JUMPDEST PUSH2 0x6E3 CALLER DUP4 DUP4 PUSH2 0x1646 JUMP JUMPDEST PUSH1 0x40 MLOAD DUP2 SWAP1 PUSH1 0x1 PUSH1 0x1 PUSH1 0xA0 SHL SUB DUP5 AND SWAP1 CALLER SWAP1 PUSH32 0x5F2EEDA0E08E4B437F487C8D7D29B14537D15E3488170DC3DE5DBDF8DAC4684 SWAP1 PUSH1 0x0 SWAP1 LOG4 POP POP JUMP JUMPDEST PUSH1 0x1 PUSH1 0x1 PUSH1 0xA0 SHL SUB DUP2 AND PUSH1 0x0 SWAP1 DUP2 MSTORE PUSH1 0x4 PUSH1 0x20 MSTORE PUSH1 0x40 DUP2 KECCAK256 SLOAD DUP2 SWAP1 ISZERO PUSH2 0x76E JUMPI PUSH1 0x1 PUSH1 0x1 PUSH1 0xA0 SHL SUB DUP4 AND PUSH1 0x0 SWAP1 DUP2 MSTORE PUSH1 0x4 PUSH1 0x20 MSTORE PUSH1 0x40 SWAP1 KECCAK256 SLOAD PUSH2 0x761 SWAP1 PUSH2 0xA78 JUMP JUMPDEST PUSH2 0x76B SWAP1 DUP3 PUSH2 0x1941 JUMP JUMPDEST SWAP1 POP JUMPDEST PUSH1 0x0 JUMPDEST PUSH1 0x2 SLOAD DUP2 LT ISZERO PUSH2 0x7EB JUMPI PUSH1 0x0 PUSH1 0x2 DUP3 DUP2 SLOAD DUP2 LT PUSH2 0x790 JUMPI PUSH2 0x790 PUSH2 0x1954 JUMP JUMPDEST PUSH1 0x0 SWAP2 DUP3 MSTORE PUSH1 0x20 DUP1 DUP4 KECCAK256 SWAP1 SWAP2 ADD SLOAD PUSH1 0x1 PUSH1 0x1 PUSH1 0xA0 SHL SUB DUP9 DUP2 AND DUP5 MSTORE PUSH1 0x5 DUP4 MSTORE PUSH1 0x40 DUP1 DUP6 KECCAK256 SWAP2 SWAP1 SWAP3 AND DUP1 DUP6 MSTORE SWAP3 MSTORE SWAP1 SWAP2 KECCAK256 SLOAD SWAP1 SWAP2 POP DUP1 ISZERO PUSH2 0x7E1 JUMPI PUSH2 0x7D4 DUP3 DUP3 PUSH2 0x1181 JUMP JUMPDEST PUSH2 0x7DE SWAP1 DUP6 PUSH2 0x1941 JUMP JUMPDEST SWAP4 POP JUMPDEST POP POP PUSH1 0x1 ADD PUSH2 0x771 JUMP JUMPDEST POP SWAP3 SWAP2 POP POP JUMP JUMPDEST PUSH1 0x1 PUSH1 0x1 PUSH1 0xA0 SHL SUB DUP1 DUP4 AND PUSH1 0x0 SWAP1 DUP2 MSTORE PUSH1 0x3 PUSH1 0x20 MSTORE PUSH1 0x40 SWAP1 KECCAK256 SLOAD DUP4 SWAP2 AND PUSH2 0x83C JUMPI PUSH1 0x40 MLOAD PUSH4 0x94403B7 PUSH1 0xE4 SHL DUP2 MSTORE PUSH1 0x1 PUSH1 0x1 PUSH1 0xA0 SHL SUB DUP3 AND PUSH1 0x4 DUP3 ADD MSTORE PUSH1 0x24 ADD JUMPDEST PUSH1 0x40 MLOAD DUP1 SWAP2 SUB SWAP1 REVERT JUMPDEST DUP2 PUSH1 0x0 SUB PUSH2 0x85D JUMPI PUSH1 0x40 MLOAD PUSH4 0x76855657 PUSH1 0xE0 SHL DUP2 MSTORE PUSH1 0x4 ADD PUSH1 0x40 MLOAD DUP1 SWAP2 SUB SWAP1 REVERT JUMPDEST PUSH1 0x40 MLOAD PUSH4 0x23B872DD PUSH1 0xE0 SHL DUP2 MSTORE CALLER PUSH1 0x4 DUP3 ADD MSTORE ADDRESS PUSH1 0x24 DUP3 ADD MSTORE PUSH1 0x44 DUP2 ADD DUP4 SWAP1 MSTORE PUSH1 0x0 SWAP1 PUSH1 0x1 PUSH1 0x1 PUSH1 0xA0 SHL SUB DUP6 AND SWAP1 PUSH4 0x23B872DD SWAP1 PUSH1 0x64 ADD PUSH1 0x20 PUSH1 0x40 MLOAD DUP1 DUP4 SUB DUP2 PUSH1 0x0 DUP8 GAS CALL ISZERO DUP1 ISZERO PUSH2 0x8B3 JUMPI RETURNDATASIZE PUSH1 0x0 DUP1 RETURNDATACOPY RETURNDATASIZE PUSH1 0x0 REVERT JUMPDEST POP POP POP POP PUSH1 0x40 MLOAD RETURNDATASIZE PUSH1 0x1F NOT PUSH1 0x1F DUP3 ADD AND DUP3 ADD DUP1 PUSH1 0x40 MSTORE POP DUP2 ADD SWAP1 PUSH2 0x8D7 SWAP2 SWAP1 PUSH2 0x196A JUMP JUMPDEST SWAP1 POP DUP1 PUSH2 0x8F7 JUMPI PUSH1 0x40 MLOAD PUSH4 0x12171D83 PUSH1 0xE3 SHL DUP2 MSTORE PUSH1 0x4 ADD PUSH1 0x40 MLOAD DUP1 SWAP2 SUB SWAP1 REVERT JUMPDEST CALLER PUSH1 0x0 SWAP1 DUP2 MSTORE PUSH1 0x5 PUSH1 0x20 SWAP1 DUP2 MSTORE PUSH1 0x40 DUP1 DUP4 KECCAK256 PUSH1 0x1 PUSH1 0x1 PUSH1 0xA0 SHL SUB DUP9 AND DUP5 MSTORE SWAP1 SWAP2 MSTORE DUP2 KECCAK256 DUP1 SLOAD DUP6 SWAP3 SWAP1 PUSH2 0x92A SWAP1 DUP5 SWAP1 PUSH2 0x1941 JUMP JUMPDEST SWAP1 SWAP2 SSTORE POP POP PUSH1 0x40 MLOAD DUP4 SWAP1 PUSH1 0x1 PUSH1 0x1 PUSH1 0xA0 SHL SUB DUP7 AND SWAP1 CALLER SWAP1 PUSH32 0x7A43FC511E5571803E978D5D53BBFB35B899D0C8ACDC2039769BFBC77082FA33 SWAP1 PUSH1 0x0 SWAP1 LOG4 POP POP POP POP JUMP JUMPDEST PUSH2 0x975 PUSH2 0x179A JUMP JUMPDEST PUSH1 0x2 SLOAD PUSH1 0x0 SWAP1 DUP2 JUMPDEST DUP2 DUP2 LT ISZERO PUSH2 0x9CD JUMPI DUP5 PUSH1 0x1 PUSH1 0x1 PUSH1 0xA0 SHL SUB AND PUSH1 0x2 DUP3 DUP2 SLOAD DUP2 LT PUSH2 0x9A2 JUMPI PUSH2 0x9A2 PUSH2 0x1954 JUMP JUMPDEST PUSH1 0x0 SWAP2 DUP3 MSTORE PUSH1 0x20 SWAP1 SWAP2 KECCAK256 ADD SLOAD PUSH1 0x1 PUSH1 0x1 PUSH1 0xA0 SHL SUB AND SUB PUSH2 0x9C5 JUMPI PUSH1 0x1 SWAP3 POP PUSH2 0x9CD JUMP JUMPDEST PUSH1 0x1 ADD PUSH2 0x97D JUMP JUMPDEST POP DUP2 PUSH2 0xA1F JUMPI PUSH1 0x2 DUP1 SLOAD PUSH1 0x1 DUP2 ADD DUP3 SSTORE PUSH1 0x0 SWAP2 SWAP1 SWAP2 MSTORE PUSH32 0x405787FA12A823E0F2B7631CC41B3BA8828B3321CA811111FA75CD3AA3BB5ACE ADD DUP1 SLOAD PUSH1 0x1 PUSH1 0x1 PUSH1 0xA0 SHL SUB NOT AND PUSH1 0x1 PUSH1 0x1 PUSH1 0xA0 SHL SUB DUP7 AND OR SWAP1 SSTORE JUMPDEST PUSH1 0x1 PUSH1 0x1 PUSH1 0xA0 SHL SUB DUP5 DUP2 AND PUSH1 0x0 DUP2 DUP2 MSTORE PUSH1 0x3 PUSH1 0x20 MSTORE PUSH1 0x40 DUP1 DUP3 KECCAK256 DUP1 SLOAD PUSH1 0x1 PUSH1 0x1 PUSH1 0xA0 SHL SUB NOT AND SWAP5 DUP9 AND SWAP5 DUP6 OR SWAP1 SSTORE MLOAD PUSH32 0x4F9BD0D8360FD59A62C52CF8B386F7C7B65097C9E336E860D08FFB9DF34067D1 SWAP2 SWAP1 LOG3 POP POP POP POP JUMP JUMPDEST PUSH1 0x7 SLOAD PUSH1 0x0 SWAP1 DUP2 SWAP1 PUSH2 0xA92 SWAP1 PUSH1 0x1 PUSH1 0x1 PUSH1 0xA0 SHL SUB AND PUSH2 0x63E JUMP JUMPDEST POP SWAP1 POP PUSH8 0xDE0B6B3A7640000 PUSH2 0xAA8 DUP3 DUP6 PUSH2 0x198C JUMP JUMPDEST PUSH2 0xAB2 SWAP2 SWAP1 PUSH2 0x19A3 JUMP JUMPDEST SWAP4 SWAP3 POP POP POP JUMP JUMPDEST PUSH1 0x40 MLOAD PUSH4 0x70A08231 PUSH1 0xE0 SHL DUP2 MSTORE ADDRESS PUSH1 0x4 DUP3 ADD MSTORE PUSH1 0x1 PUSH1 0x1 PUSH1 0xA0 SHL SUB DUP4 AND SWAP1 PUSH4 0x70A08231 SWAP1 PUSH1 0x24 ADD PUSH1 0x20 PUSH1 0x40 MLOAD DUP1 DUP4 SUB DUP2 DUP7 GAS STATICCALL ISZERO DUP1 ISZERO PUSH2 0xAFD JUMPI RETURNDATASIZE PUSH1 0x0 DUP1 RETURNDATACOPY RETURNDATASIZE PUSH1 0x0 REVERT JUMPDEST POP POP POP POP PUSH1 0x40 MLOAD RETURNDATASIZE PUSH1 0x1F NOT PUSH1 0x1F DUP3 ADD AND DUP3 ADD DUP1 PUSH1 0x40 MSTORE POP DUP2 ADD SWAP1 PUSH2 0xB21 SWAP2 SWAP1 PUSH2 0x19C5 JUMP JUMPDEST DUP2 GT ISZERO PUSH2 0xB4A JUMPI PUSH1 0x40 MLOAD PUSH4 0x1F399365 PUSH1 0xE3 SHL DUP2 MSTORE SELFBALANCE PUSH1 0x4 DUP3 ADD MSTORE PUSH1 0x24 DUP2 ADD DUP3 SWAP1 MSTORE PUSH1 0x44 ADD PUSH2 0x833 JUMP JUMPDEST CALLER PUSH1 0x0 SWAP1 DUP2 MSTORE PUSH1 0x6 PUSH1 0x20 SWAP1 DUP2 MSTORE PUSH1 0x40 DUP1 DUP4 KECCAK256 PUSH1 0x1 PUSH1 0x1 PUSH1 0xA0 SHL SUB DUP7 AND DUP5 MSTORE SWAP1 SWAP2 MSTORE DUP2 KECCAK256 DUP1 SLOAD DUP4 SWAP3 SWAP1 PUSH2 0xB7D SWAP1 DUP5 SWAP1 PUSH2 0x1941 JUMP JUMPDEST SWAP1 SWAP2 SSTORE POP POP PUSH1 0x40 MLOAD PUSH4 0xA9059CBB PUSH1 0xE0 SHL DUP2 MSTORE CALLER PUSH1 0x4 DUP3 ADD MSTORE PUSH1 0x24 DUP2 ADD DUP3 SWAP1 MSTORE PUSH1 0x0 SWAP1 PUSH1 0x1 PUSH1 0x1 PUSH1 0xA0 SHL SUB DUP5 AND SWAP1 PUSH4 0xA9059CBB SWAP1 PUSH1 0x44 ADD PUSH1 0x20 PUSH1 0x40 MLOAD DUP1 DUP4 SUB DUP2 PUSH1 0x0 DUP8 GAS CALL ISZERO DUP1 ISZERO PUSH2 0xBD2 JUMPI RETURNDATASIZE PUSH1 0x0 DUP1 RETURNDATACOPY RETURNDATASIZE PUSH1 0x0 REVERT JUMPDEST POP POP POP POP PUSH1 0x40 MLOAD RETURNDATASIZE PUSH1 0x1F NOT PUSH1 0x1F DUP3 ADD AND DUP3 ADD DUP1 PUSH1 0x40 MSTORE POP DUP2 ADD SWAP1 PUSH2 0xBF6 SWAP2 SWAP1 PUSH2 0x196A JUMP JUMPDEST SWAP1 POP DUP1 PUSH2 0xC16 JUMPI PUSH1 0x40 MLOAD PUSH4 0x12171D83 PUSH1 0xE3 SHL DUP2 MSTORE PUSH1 0x4 ADD PUSH1 0x40 MLOAD DUP1 SWAP2 SUB SWAP1 REVERT JUMPDEST PUSH1 0x40 MLOAD DUP3 SWAP1 PUSH1 0x1 PUSH1 0x1 PUSH1 0xA0 SHL SUB DUP6 AND SWAP1 CALLER SWAP1 PUSH32 0x312A5E5E1079F5DDA4E95DBBD0B908B291FD5B992EF22073643AB691572C5B52 SWAP1 PUSH1 0x0 SWAP1 LOG4 PUSH4 0x5F5E100 PUSH2 0xC5C CALLER PUSH2 0xD92 JUMP JUMPDEST LT ISZERO PUSH2 0xC92 JUMPI PUSH4 0x5F5E100 PUSH2 0xC70 CALLER PUSH2 0xD92 JUMP JUMPDEST PUSH1 0x40 MLOAD PUSH4 0x5B61FD13 PUSH1 0xE1 SHL DUP2 MSTORE PUSH1 0x4 DUP2 ADD SWAP3 SWAP1 SWAP3 MSTORE PUSH1 0x24 DUP3 ADD MSTORE PUSH1 0x44 ADD PUSH2 0x833 JUMP JUMPDEST POP POP POP JUMP JUMPDEST PUSH1 0x0 DUP1 DUP1 JUMPDEST PUSH1 0x2 SLOAD DUP2 LT ISZERO PUSH2 0x7EB JUMPI PUSH1 0x0 PUSH1 0x2 DUP3 DUP2 SLOAD DUP2 LT PUSH2 0xCBB JUMPI PUSH2 0xCBB PUSH2 0x1954 JUMP JUMPDEST PUSH1 0x0 SWAP2 DUP3 MSTORE PUSH1 0x20 DUP1 DUP4 KECCAK256 SWAP1 SWAP2 ADD SLOAD PUSH1 0x1 PUSH1 0x1 PUSH1 0xA0 SHL SUB DUP9 DUP2 AND DUP5 MSTORE PUSH1 0x6 DUP4 MSTORE PUSH1 0x40 DUP1 DUP6 KECCAK256 SWAP2 SWAP1 SWAP3 AND DUP1 DUP6 MSTORE SWAP3 MSTORE SWAP1 SWAP2 KECCAK256 SLOAD SWAP1 SWAP2 POP DUP1 ISZERO PUSH2 0xD0C JUMPI PUSH2 0xCFF DUP3 DUP3 PUSH2 0x1181 JUMP JUMPDEST PUSH2 0xD09 SWAP1 DUP6 PUSH2 0x1941 JUMP JUMPDEST SWAP4 POP JUMPDEST POP POP PUSH1 0x1 ADD PUSH2 0xC9C JUMP JUMPDEST PUSH1 0x1 PUSH1 0x1 PUSH1 0xA0 SHL SUB DUP1 DUP4 AND PUSH1 0x0 SWAP1 DUP2 MSTORE PUSH1 0x3 PUSH1 0x20 MSTORE PUSH1 0x40 DUP2 KECCAK256 SLOAD SWAP1 SWAP2 DUP3 SWAP2 PUSH2 0xD3E SWAP2 AND PUSH2 0x63E JUMP JUMPDEST POP SWAP1 POP DUP1 PUSH2 0xD54 DUP5 PUSH8 0xDE0B6B3A7640000 PUSH2 0x198C JUMP JUMPDEST PUSH2 0xD5E SWAP2 SWAP1 PUSH2 0x19A3 JUMP JUMPDEST SWAP2 POP POP JUMPDEST SWAP3 SWAP2 POP POP JUMP JUMPDEST PUSH1 0x2 DUP2 DUP2 SLOAD DUP2 LT PUSH2 0xD78 JUMPI PUSH1 0x0 DUP1 REVERT JUMPDEST PUSH1 0x0 SWAP2 DUP3 MSTORE PUSH1 0x20 SWAP1 SWAP2 KECCAK256 ADD SLOAD PUSH1 0x1 PUSH1 0x1 PUSH1 0xA0 SHL SUB AND SWAP1 POP DUP2 JUMP JUMPDEST PUSH1 0x0 DUP1 PUSH1 0x0 PUSH2 0xDA0 DUP5 PUSH2 0xE37 JUMP JUMPDEST SWAP1 SWAP3 POP SWAP1 POP PUSH1 0x0 PUSH1 0x64 PUSH2 0xDB4 PUSH1 0x46 DUP5 PUSH2 0x198C JUMP JUMPDEST PUSH2 0xDBE SWAP2 SWAP1 PUSH2 0x19A3 JUMP JUMPDEST SWAP1 POP DUP3 PUSH1 0x0 SUB PUSH2 0xDD7 JUMPI POP PUSH5 0x2540BE400 SWAP5 SWAP4 POP POP POP POP JUMP JUMPDEST DUP3 PUSH2 0xDE6 DUP3 PUSH4 0x5F5E100 PUSH2 0x198C JUMP JUMPDEST PUSH2 0xDF0 SWAP2 SWAP1 PUSH2 0x19A3 JUMP JUMPDEST SWAP6 SWAP5 POP POP POP POP POP JUMP JUMPDEST PUSH2 0xE01 PUSH2 0x179A JUMP JUMPDEST PUSH2 0xE0B PUSH1 0x0 PUSH2 0x17C7 JUMP JUMPDEST JUMP JUMPDEST PUSH2 0xE15 PUSH2 0x179A JUMP JUMPDEST PUSH1 0x7 DUP1 SLOAD PUSH1 0x1 PUSH1 0x1 PUSH1 0xA0 SHL SUB NOT AND PUSH1 0x1 PUSH1 0x1 PUSH1 0xA0 SHL SUB SWAP3 SWAP1 SWAP3 AND SWAP2 SWAP1 SWAP2 OR SWAP1 SSTORE JUMP JUMPDEST PUSH1 0x0 DUP1 PUSH1 0x0 PUSH2 0xE45 DUP5 PUSH2 0x71F JUMP JUMPDEST SWAP1 POP PUSH1 0x0 PUSH2 0xE52 DUP6 PUSH2 0xC97 JUMP JUMPDEST SWAP6 SWAP2 SWAP5 POP SWAP1 SWAP3 POP POP POP JUMP JUMPDEST DUP1 PUSH1 0x0 SUB PUSH2 0xE7E JUMPI PUSH1 0x40 MLOAD PUSH4 0x76855657 PUSH1 0xE0 SHL DUP2 MSTORE PUSH1 0x4 ADD PUSH1 0x40 MLOAD DUP1 SWAP2 SUB SWAP1 REVERT JUMPDEST CALLER PUSH1 0x0 SWAP1 DUP2 MSTORE PUSH1 0x4 PUSH1 0x20 MSTORE PUSH1 0x40 SWAP1 KECCAK256 SLOAD DUP2 GT ISZERO PUSH2 0xECB JUMPI CALLER PUSH1 0x0 SWAP1 DUP2 MSTORE PUSH1 0x4 PUSH1 0x20 DUP2 SWAP1 MSTORE PUSH1 0x40 SWAP2 DUP3 SWAP1 KECCAK256 SLOAD SWAP2 MLOAD PUSH4 0xCF479181 PUSH1 0xE0 SHL DUP2 MSTORE PUSH2 0x833 SWAP3 SWAP2 DUP5 SWAP2 ADD SWAP2 DUP3 MSTORE PUSH1 0x20 DUP3 ADD MSTORE PUSH1 0x40 ADD SWAP1 JUMP JUMPDEST CALLER PUSH1 0x0 SWAP1 DUP2 MSTORE PUSH1 0x4 PUSH1 0x20 MSTORE PUSH1 0x40 DUP2 KECCAK256 DUP1 SLOAD DUP4 SWAP3 SWAP1 PUSH2 0xEEA SWAP1 DUP5 SWAP1 PUSH2 0x19DE JUMP JUMPDEST SWAP1 SWAP2 SSTORE POP POP PUSH1 0x40 MLOAD PUSH1 0x0 SWAP1 CALLER SWAP1 DUP4 ISZERO PUSH2 0x8FC MUL SWAP1 DUP5 SWAP1 DUP5 DUP2 DUP2 DUP2 DUP6 DUP9 DUP9 CALL SWAP4 POP POP POP POP SWAP1 POP DUP1 PUSH2 0xF2D JUMPI PUSH1 0x40 MLOAD PUSH4 0x12171D83 PUSH1 0xE3 SHL DUP2 MSTORE PUSH1 0x4 ADD PUSH1 0x40 MLOAD DUP1 SWAP2 SUB SWAP1 REVERT JUMPDEST PUSH4 0x5F5E100 PUSH2 0xF3B CALLER PUSH2 0xD92 JUMP JUMPDEST LT ISZERO PUSH2 0xF4F JUMPI PUSH4 0x5F5E100 PUSH2 0xC70 CALLER PUSH2 0xD92 JUMP JUMPDEST PUSH1 0x40 MLOAD DUP3 SWAP1 CALLER SWAP1 PUSH32 0xDE93DB11F7AEDF7CB3BE22DC4D80E7790AB4B59A30AAE83E86AC8326245542C5 SWAP1 PUSH1 0x0 SWAP1 LOG3 POP POP JUMP JUMPDEST PUSH1 0x7 SLOAD PUSH1 0x0 SWAP1 DUP2 SWAP1 PUSH2 0xF9A SWAP1 PUSH1 0x1 PUSH1 0x1 PUSH1 0xA0 SHL SUB AND PUSH2 0x63E JUMP JUMPDEST POP SWAP1 POP DUP1 PUSH2 0xAA8 DUP5 PUSH8 0xDE0B6B3A7640000 PUSH2 0x198C JUMP JUMPDEST PUSH4 0x5F5E100 PUSH2 0xFBE DUP4 PUSH2 0xD92 JUMP JUMPDEST LT PUSH2 0xFF3 JUMPI PUSH2 0xFCC DUP3 PUSH2 0xD92 JUMP JUMPDEST PUSH1 0x40 MLOAD PUSH4 0x6C76E19B PUSH1 0xE1 SHL DUP2 MSTORE PUSH1 0x4 DUP2 ADD SWAP2 SWAP1 SWAP2 MSTORE PUSH4 0x5F5E100 PUSH1 0x24 DUP3 ADD MSTORE PUSH1 0x44 ADD PUSH2 0x833 JUMP JUMPDEST PUSH1 0x1 PUSH1 0x1 PUSH1 0xA0 SHL SUB DUP1 DUP4 AND PUSH1 0x0 SWAP1 DUP2 MSTORE PUSH1 0x6 PUSH1 0x20 SWAP1 DUP2 MSTORE PUSH1 0x40 DUP1 DUP4 KECCAK256 SWAP4 DUP6 AND DUP4 MSTORE SWAP3 SWAP1 MSTORE SWAP1 DUP2 KECCAK256 SLOAD PUSH2 0x1027 SWAP1 PUSH1 0x2 SWAP1 PUSH2 0x19A3 JUMP JUMPDEST SWAP1 POP PUSH1 0x0 PUSH2 0x1035 DUP4 DUP4 PUSH2 0x1181 JUMP JUMPDEST SWAP1 POP DUP1 PUSH1 0x0 SUB PUSH2 0x1063 JUMPI PUSH1 0x40 MLOAD PUSH4 0xF4BA52C5 PUSH1 0xE0 SHL DUP2 MSTORE PUSH1 0x1 PUSH1 0x1 PUSH1 0xA0 SHL SUB DUP5 AND PUSH1 0x4 DUP3 ADD MSTORE PUSH1 0x24 ADD PUSH2 0x833 JUMP JUMPDEST PUSH1 0x0 PUSH1 0x64 PUSH2 0x1072 PUSH1 0x5 DUP5 PUSH2 0x198C JUMP JUMPDEST PUSH2 0x107C SWAP2 SWAP1 PUSH2 0x19A3 JUMP JUMPDEST SWAP1 POP PUSH1 0x0 PUSH2 0x108D PUSH2 0x4C4 DUP5 DUP5 PUSH2 0x1941 JUMP JUMPDEST SWAP1 POP DUP1 PUSH1 0x0 SUB PUSH2 0x10BA JUMPI PUSH1 0x40 MLOAD PUSH4 0x6A5B45C3 PUSH1 0xE0 SHL DUP2 MSTORE PUSH1 0x4 DUP2 ADD DUP4 SWAP1 MSTORE PUSH1 0x24 DUP2 ADD DUP5 SWAP1 MSTORE PUSH1 0x44 ADD PUSH2 0x833 JUMP JUMPDEST PUSH2 0x10C5 DUP7 DUP7 DUP7 PUSH2 0x1646 JUMP JUMPDEST PUSH1 0x1 PUSH1 0x1 PUSH1 0xA0 SHL SUB DUP7 AND PUSH1 0x0 SWAP1 DUP2 MSTORE PUSH1 0x4 PUSH1 0x20 MSTORE PUSH1 0x40 DUP2 KECCAK256 DUP1 SLOAD DUP4 SWAP3 SWAP1 PUSH2 0x10ED SWAP1 DUP5 SWAP1 PUSH2 0x19DE JUMP JUMPDEST SWAP1 SWAP2 SSTORE POP POP PUSH1 0x40 MLOAD PUSH1 0x0 SWAP1 CALLER SWAP1 DUP4 ISZERO PUSH2 0x8FC MUL SWAP1 DUP5 SWAP1 DUP5 DUP2 DUP2 DUP2 DUP6 DUP9 DUP9 CALL SWAP4 POP POP POP POP SWAP1 POP DUP1 PUSH2 0x1130 JUMPI PUSH1 0x40 MLOAD PUSH4 0x12171D83 PUSH1 0xE3 SHL DUP2 MSTORE PUSH1 0x4 ADD PUSH1 0x40 MLOAD DUP1 SWAP2 SUB SWAP1 REVERT JUMPDEST PUSH1 0x40 DUP1 MLOAD DUP6 DUP2 MSTORE CALLER PUSH1 0x20 DUP3 ADD MSTORE PUSH1 0x1 PUSH1 0x1 PUSH1 0xA0 SHL SUB DUP1 DUP10 AND SWAP3 SWAP1 DUP11 AND SWAP2 PUSH32 0x6C24C03A659501697397FAF17BE8C03108F14D28A819340BC38C871C0AC3D346 SWAP2 ADD PUSH1 0x40 MLOAD DUP1 SWAP2 SUB SWAP1 LOG3 POP POP POP POP POP POP POP JUMP JUMPDEST PUSH1 0x1 PUSH1 0x1 PUSH1 0xA0 SHL SUB DUP1 DUP4 AND PUSH1 0x0 SWAP1 DUP2 MSTORE PUSH1 0x3 PUSH1 0x20 MSTORE PUSH1 0x40 DUP2 KECCAK256 SLOAD SWAP1 SWAP2 DUP3 SWAP2 PUSH2 0x11A9 SWAP2 AND PUSH2 0x63E JUMP JUMPDEST POP SWAP1 POP PUSH8 0xDE0B6B3A7640000 PUSH2 0xD54 DUP3 DUP6 PUSH2 0x198C JUMP JUMPDEST PUSH4 0x5F5E100 PUSH2 0x11CD DUP5 PUSH2 0xD92 JUMP JUMPDEST LT PUSH2 0x11DB JUMPI PUSH2 0xFCC DUP4 PUSH2 0xD92 JUMP JUMPDEST PUSH1 0x1 PUSH1 0x1 PUSH1 0xA0 SHL SUB DUP1 DUP5 AND PUSH1 0x0 SWAP1 DUP2 MSTORE PUSH1 0x6 PUSH1 0x20 SWAP1 DUP2 MSTORE PUSH1 0x40 DUP1 DUP4 KECCAK256 SWAP4 DUP7 AND DUP4 MSTORE SWAP3 SWAP1 MSTORE SWAP1 DUP2 KECCAK256 SLOAD PUSH2 0x120F SWAP1 PUSH1 0x2 SWAP1 PUSH2 0x19A3 JUMP JUMPDEST SWAP1 POP PUSH1 0x0 PUSH2 0x121D DUP5 DUP4 PUSH2 0x1181 JUMP JUMPDEST SWAP1 POP DUP1 PUSH1 0x0 SUB PUSH2 0x124B JUMPI PUSH1 0x40 MLOAD PUSH4 0xF4BA52C5 PUSH1 0xE0 SHL DUP2 MSTORE PUSH1 0x1 PUSH1 0x1 PUSH1 0xA0 SHL SUB DUP6 AND PUSH1 0x4 DUP3 ADD MSTORE PUSH1 0x24 ADD PUSH2 0x833 JUMP JUMPDEST PUSH1 0x0 PUSH1 0x64 PUSH2 0x125A PUSH1 0x5 DUP5 PUSH2 0x198C JUMP JUMPDEST PUSH2 0x1264 SWAP2 SWAP1 PUSH2 0x19A3 JUMP JUMPDEST SWAP1 POP PUSH1 0x0 PUSH2 0x1276 DUP6 PUSH2 0x363 DUP6 DUP6 PUSH2 0x1941 JUMP JUMPDEST SWAP1 POP DUP1 PUSH1 0x0 SUB PUSH2 0x12A3 JUMPI PUSH1 0x40 MLOAD PUSH4 0x6A5B45C3 PUSH1 0xE0 SHL DUP2 MSTORE PUSH1 0x4 DUP2 ADD DUP4 SWAP1 MSTORE PUSH1 0x24 DUP2 ADD DUP5 SWAP1 MSTORE PUSH1 0x44 ADD PUSH2 0x833 JUMP JUMPDEST PUSH2 0x12AE DUP8 DUP8 DUP7 PUSH2 0x1646 JUMP JUMPDEST PUSH1 0x1 PUSH1 0x1 PUSH1 0xA0 SHL SUB DUP1 DUP9 AND PUSH1 0x0 SWAP1 DUP2 MSTORE PUSH1 0x5 PUSH1 0x20 SWAP1 DUP2 MSTORE PUSH1 0x40 DUP1 DUP4 KECCAK256 SWAP4 DUP10 AND DUP4 MSTORE SWAP3 SWAP1 MSTORE SWAP1 DUP2 KECCAK256 DUP1 SLOAD DUP4 SWAP3 SWAP1 PUSH2 0x12E5 SWAP1 DUP5 SWAP1 PUSH2 0x19DE JUMP JUMPDEST SWAP1 SWAP2 SSTORE POP POP PUSH1 0x40 MLOAD PUSH4 0xA9059CBB PUSH1 0xE0 SHL DUP2 MSTORE CALLER PUSH1 0x4 DUP3 ADD MSTORE PUSH1 0x24 DUP2 ADD DUP3 SWAP1 MSTORE PUSH1 0x0 SWAP1 PUSH1 0x1 PUSH1 0x1 PUSH1 0xA0 SHL SUB DUP8 AND SWAP1 PUSH4 0xA9059CBB SWAP1 PUSH1 0x44 ADD PUSH1 0x20 PUSH1 0x40 MLOAD DUP1 DUP4 SUB DUP2 PUSH1 0x0 DUP8 GAS CALL ISZERO DUP1 ISZERO PUSH2 0x133A JUMPI RETURNDATASIZE PUSH1 0x0 DUP1 RETURNDATACOPY RETURNDATASIZE PUSH1 0x0 REVERT JUMPDEST POP POP POP POP PUSH1 0x40 MLOAD RETURNDATASIZE PUSH1 0x1F NOT PUSH1 0x1F DUP3 ADD AND DUP3 ADD DUP1 PUSH1 0x40 MSTORE POP DUP2 ADD SWAP1 PUSH2 0x135E SWAP2 SWAP1 PUSH2 0x196A JUMP JUMPDEST SWAP1 POP DUP1 PUSH2 0x137E JUMPI PUSH1 0x40 MLOAD PUSH4 0x12171D83 PUSH1 0xE3 SHL DUP2 MSTORE PUSH1 0x4 ADD PUSH1 0x40 MLOAD DUP1 SWAP2 SUB SWAP1 REVERT JUMPDEST PUSH1 0x40 DUP1 MLOAD DUP6 DUP2 MSTORE CALLER PUSH1 0x20 DUP3 ADD MSTORE PUSH1 0x1 PUSH1 0x1 PUSH1 0xA0 SHL SUB DUP1 DUP10 AND SWAP3 DUP11 DUP3 AND SWAP3 SWAP2 DUP13 AND SWAP2 PUSH32 0xCEA6068021F706074AF611C2A4B6B08820C5B8223A80149684C64C60CE7BE3CC SWAP2 ADD PUSH1 0x40 MLOAD DUP1 SWAP2 SUB SWAP1 LOG4 POP POP POP POP POP POP POP POP JUMP JUMPDEST CALLVALUE PUSH1 0x0 SUB PUSH2 0x13F5 JUMPI PUSH1 0x40 MLOAD PUSH4 0x76855657 PUSH1 0xE0 SHL DUP2 MSTORE PUSH1 0x4 ADD PUSH1 0x40 MLOAD DUP1 SWAP2 SUB SWAP1 REVERT JUMPDEST CALLER PUSH1 0x0 SWAP1 DUP2 MSTORE PUSH1 0x4 PUSH1 0x20 MSTORE PUSH1 0x40 DUP2 KECCAK256 DUP1 SLOAD CALLVALUE SWAP3 SWAP1 PUSH2 0x1414 SWAP1 DUP5 SWAP1 PUSH2 0x1941 JUMP JUMPDEST SWAP1 SWAP2 SSTORE POP POP PUSH1 0x40 MLOAD CALLVALUE SWAP1 CALLER SWAP1 PUSH32 0x86643F2DC412F1CEECD63D80CC81C9957142C3D9EE29578FAE4BF4D1EF106FB2 SWAP1 PUSH1 0x0 SWAP1 LOG3 JUMP JUMPDEST PUSH2 0x1450 PUSH2 0x179A JUMP JUMPDEST PUSH1 0x1 PUSH1 0x1 PUSH1 0xA0 SHL SUB DUP2 AND PUSH2 0x147A JUMPI PUSH1 0x40 MLOAD PUSH4 0x1E4FBDF7 PUSH1 0xE0 SHL DUP2 MSTORE PUSH1 0x0 PUSH1 0x4 DUP3 ADD MSTORE PUSH1 0x24 ADD PUSH2 0x833 JUMP JUMPDEST PUSH2 0x1483 DUP2 PUSH2 0x17C7 JUMP JUMPDEST POP JUMP JUMPDEST DUP1 PUSH1 0x0 SUB PUSH2 0x14A7 JUMPI PUSH1 0x40 MLOAD PUSH4 0x76855657 PUSH1 0xE0 SHL DUP2 MSTORE PUSH1 0x4 ADD PUSH1 0x40 MLOAD DUP1 SWAP2 SUB SWAP1 REVERT JUMPDEST CALLER PUSH1 0x0 SWAP1 DUP2 MSTORE PUSH1 0x5 PUSH1 0x20 SWAP1 DUP2 MSTORE PUSH1 0x40 DUP1 DUP4 KECCAK256 PUSH1 0x1 PUSH1 0x1 PUSH1 0xA0 SHL SUB DUP7 AND DUP5 MSTORE SWAP1 SWAP2 MSTORE SWAP1 KECCAK256 SLOAD DUP2 GT ISZERO PUSH2 0x151B JUMPI CALLER PUSH1 0x0 SWAP1 DUP2 MSTORE PUSH1 0x5 PUSH1 0x20 SWAP1 DUP2 MSTORE PUSH1 0x40 DUP1 DUP4 KECCAK256 PUSH1 0x1 PUSH1 0x1 PUSH1 0xA0 SHL SUB DUP7 AND DUP5 MSTORE SWAP1 SWAP2 MSTORE SWAP1 DUP2 SWAP1 KECCAK256 SLOAD SWAP1 MLOAD PUSH4 0xCF479181 PUSH1 0xE0 SHL DUP2 MSTORE PUSH1 0x4 DUP2 ADD SWAP2 SWAP1 SWAP2 MSTORE PUSH1 0x24 DUP2 ADD DUP3 SWAP1 MSTORE PUSH1 0x44 ADD PUSH2 0x833 JUMP JUMPDEST CALLER PUSH1 0x0 SWAP1 DUP2 MSTORE PUSH1 0x5 PUSH1 0x20 SWAP1 DUP2 MSTORE PUSH1 0x40 DUP1 DUP4 KECCAK256 PUSH1 0x1 PUSH1 0x1 PUSH1 0xA0 SHL SUB DUP7 AND DUP5 MSTORE SWAP1 SWAP2 MSTORE DUP2 KECCAK256 DUP1 SLOAD DUP4 SWAP3 SWAP1 PUSH2 0x154E SWAP1 DUP5 SWAP1 PUSH2 0x19DE JUMP JUMPDEST SWAP1 SWAP2 SSTORE POP POP PUSH1 0x40 MLOAD PUSH4 0xA9059CBB PUSH1 0xE0 SHL DUP2 MSTORE CALLER PUSH1 0x4 DUP3 ADD MSTORE PUSH1 0x24 DUP2 ADD DUP3 SWAP1 MSTORE PUSH1 0x0 SWAP1 PUSH1 0x1 PUSH1 0x1 PUSH1 0xA0 SHL SUB DUP5 AND SWAP1 PUSH4 0xA9059CBB SWAP1 PUSH1 0x44 ADD PUSH1 0x20 PUSH1 0x40 MLOAD DUP1 DUP4 SUB DUP2 PUSH1 0x0 DUP8 GAS CALL ISZERO DUP1 ISZERO PUSH2 0x15A3 JUMPI RETURNDATASIZE PUSH1 0x0 DUP1 RETURNDATACOPY RETURNDATASIZE PUSH1 0x0 REVERT JUMPDEST POP POP POP POP PUSH1 0x40 MLOAD RETURNDATASIZE PUSH1 0x1F NOT PUSH1 0x1F DUP3 ADD AND DUP3 ADD DUP1 PUSH1 0x40 MSTORE POP DUP2 ADD SWAP1 PUSH2 0x15C7 SWAP2 SWAP1 PUSH2 0x196A JUMP JUMPDEST SWAP1 POP DUP1 PUSH2 0x15E7 JUMPI PUSH1 0x40 MLOAD PUSH4 0x12171D83 PUSH1 0xE3 SHL DUP2 MSTORE PUSH1 0x4 ADD PUSH1 0x40 MLOAD DUP1 SWAP2 SUB SWAP1 REVERT JUMPDEST PUSH4 0x5F5E100 PUSH2 0x15F5 CALLER PUSH2 0xD92 JUMP JUMPDEST LT ISZERO PUSH2 0x1609 JUMPI PUSH4 0x5F5E100 PUSH2 0xC70 CALLER PUSH2 0xD92 JUMP JUMPDEST PUSH1 0x40 MLOAD DUP3 SWAP1 PUSH1 0x1 PUSH1 0x1 PUSH1 0xA0 SHL SUB DUP6 AND SWAP1 CALLER SWAP1 PUSH32 0x9B1BFA7FA9EE420A16E124F794C35AC9F90472ACC99140EB2F6447C714CAD8EB SWAP1 PUSH1 0x0 SWAP1 LOG4 POP POP POP JUMP JUMPDEST PUSH1 0x1 PUSH1 0x1 PUSH1 0xA0 SHL SUB DUP1 DUP5 AND PUSH1 0x0 SWAP1 DUP2 MSTORE PUSH1 0x6 PUSH1 0x20 SWAP1 DUP2 MSTORE PUSH1 0x40 DUP1 DUP4 KECCAK256 SWAP4 DUP7 AND DUP4 MSTORE SWAP3 SWAP1 MSTORE KECCAK256 SLOAD DUP2 GT ISZERO PUSH2 0x16BE JUMPI PUSH1 0x1 PUSH1 0x1 PUSH1 0xA0 SHL SUB DUP4 DUP2 AND PUSH1 0x0 SWAP1 DUP2 MSTORE PUSH1 0x6 PUSH1 0x20 SWAP1 DUP2 MSTORE PUSH1 0x40 DUP1 DUP4 KECCAK256 SWAP4 DUP7 AND DUP4 MSTORE SWAP3 SWAP1 MSTORE DUP2 SWAP1 KECCAK256 SLOAD SWAP1 MLOAD PUSH4 0x49ADCABF PUSH1 0xE0 SHL DUP2 MSTORE PUSH1 0x4 DUP2 ADD SWAP2 SWAP1 SWAP2 MSTORE PUSH1 0x24 DUP2 ADD DUP3 SWAP1 MSTORE PUSH1 0x44 ADD PUSH2 0x833 JUMP JUMPDEST PUSH1 0x40 MLOAD PUSH4 0x23B872DD PUSH1 0xE0 SHL DUP2 MSTORE CALLER PUSH1 0x4 DUP3 ADD MSTORE ADDRESS PUSH1 0x24 DUP3 ADD MSTORE PUSH1 0x44 DUP2 ADD DUP3 SWAP1 MSTORE PUSH1 0x0 SWAP1 PUSH1 0x1 PUSH1 0x1 PUSH1 0xA0 SHL SUB DUP5 AND SWAP1 PUSH4 0x23B872DD SWAP1 PUSH1 0x64 ADD PUSH1 0x20 PUSH1 0x40 MLOAD DUP1 DUP4 SUB DUP2 PUSH1 0x0 DUP8 GAS CALL ISZERO DUP1 ISZERO PUSH2 0x1714 JUMPI RETURNDATASIZE PUSH1 0x0 DUP1 RETURNDATACOPY RETURNDATASIZE PUSH1 0x0 REVERT JUMPDEST POP POP POP POP PUSH1 0x40 MLOAD RETURNDATASIZE PUSH1 0x1F NOT PUSH1 0x1F DUP3 ADD AND DUP3 ADD DUP1 PUSH1 0x40 MSTORE POP DUP2 ADD SWAP1 PUSH2 0x1738 SWAP2 SWAP1 PUSH2 0x196A JUMP JUMPDEST SWAP1 POP DUP1 PUSH2 0x1758 JUMPI PUSH1 0x40 MLOAD PUSH4 0x12171D83 PUSH1 0xE3 SHL DUP2 MSTORE PUSH1 0x4 ADD PUSH1 0x40 MLOAD DUP1 SWAP2 SUB SWAP1 REVERT JUMPDEST PUSH1 0x1 PUSH1 0x1 PUSH1 0xA0 SHL SUB DUP1 DUP6 AND PUSH1 0x0 SWAP1 DUP2 MSTORE PUSH1 0x6 PUSH1 0x20 SWAP1 DUP2 MSTORE PUSH1 0x40 DUP1 DUP4 KECCAK256 SWAP4 DUP8 AND DUP4 MSTORE SWAP3 SWAP1 MSTORE SWAP1 DUP2 KECCAK256 DUP1 SLOAD DUP5 SWAP3 SWAP1 PUSH2 0x178F SWAP1 DUP5 SWAP1 PUSH2 0x19DE JUMP JUMPDEST SWAP1 SWAP2 SSTORE POP POP POP POP POP POP JUMP JUMPDEST PUSH1 0x0 SLOAD PUSH1 0x1 PUSH1 0x1 PUSH1 0xA0 SHL SUB AND CALLER EQ PUSH2 0xE0B JUMPI PUSH1 0x40 MLOAD PUSH4 0x118CDAA7 PUSH1 0xE0 SHL DUP2 MSTORE CALLER PUSH1 0x4 DUP3 ADD MSTORE PUSH1 0x24 ADD PUSH2 0x833 JUMP JUMPDEST PUSH1 0x0 DUP1 SLOAD PUSH1 0x1 PUSH1 0x1 PUSH1 0xA0 SHL SUB DUP4 DUP2 AND PUSH1 0x1 PUSH1 0x1 PUSH1 0xA0 SHL SUB NOT DUP4 AND DUP2 OR DUP5 SSTORE PUSH1 0x40 MLOAD SWAP2 SWAP1 SWAP3 AND SWAP3 DUP4 SWAP2 PUSH32 0x8BE0079C531659141344CD1FD0A4F28419497F9722A3DAAFE3B4186F6B6457E0 SWAP2 SWAP1 LOG3 POP POP JUMP JUMPDEST DUP1 CALLDATALOAD PUSH1 0x1 PUSH1 0x1 PUSH1 0xA0 SHL SUB DUP2 AND DUP2 EQ PUSH2 0x182E JUMPI PUSH1 0x0 DUP1 REVERT JUMPDEST SWAP2 SWAP1 POP JUMP JUMPDEST PUSH1 0x0 PUSH1 0x20 DUP3 DUP5 SUB SLT ISZERO PUSH2 0x1845 JUMPI PUSH1 0x0 DUP1 REVERT JUMPDEST PUSH2 0xAB2 DUP3 PUSH2 0x1817 JUMP JUMPDEST PUSH1 0x0 DUP1 PUSH1 0x40 DUP4 DUP6 SUB SLT ISZERO PUSH2 0x1861 JUMPI PUSH1 0x0 DUP1 REVERT JUMPDEST PUSH2 0x186A DUP4 PUSH2 0x1817 JUMP JUMPDEST SWAP5 PUSH1 0x20 SWAP4 SWAP1 SWAP4 ADD CALLDATALOAD SWAP4 POP POP POP JUMP JUMPDEST PUSH1 0x0 DUP1 PUSH1 0x40 DUP4 DUP6 SUB SLT ISZERO PUSH2 0x188B JUMPI PUSH1 0x0 DUP1 REVERT JUMPDEST PUSH2 0x1894 DUP4 PUSH2 0x1817 JUMP JUMPDEST SWAP2 POP PUSH2 0x18A2 PUSH1 0x20 DUP5 ADD PUSH2 0x1817 JUMP JUMPDEST SWAP1 POP SWAP3 POP SWAP3 SWAP1 POP JUMP JUMPDEST PUSH1 0x0 PUSH1 0x20 DUP3 DUP5 SUB SLT ISZERO PUSH2 0x18BD JUMPI PUSH1 0x0 DUP1 REVERT JUMPDEST POP CALLDATALOAD SWAP2 SWAP1 POP JUMP JUMPDEST PUSH1 0x0 DUP1 PUSH1 0x0 PUSH1 0x60 DUP5 DUP7 SUB SLT ISZERO PUSH2 0x18D9 JUMPI PUSH1 0x0 DUP1 REVERT JUMPDEST PUSH2 0x18E2 DUP5 PUSH2 0x1817 JUMP JUMPDEST SWAP3 POP PUSH2 0x18F0 PUSH1 0x20 DUP6 ADD PUSH2 0x1817 JUMP JUMPDEST SWAP2 POP PUSH2 0x18FE PUSH1 0x40 DUP6 ADD PUSH2 0x1817 JUMP JUMPDEST SWAP1 POP SWAP3 POP SWAP3 POP SWAP3 JUMP JUMPDEST PUSH1 0x0 DUP1 PUSH1 0x40 DUP4 DUP6 SUB SLT ISZERO PUSH2 0x191A JUMPI PUSH1 0x0 DUP1 REVERT JUMPDEST POP POP DUP1 MLOAD PUSH1 0x20 SWAP1 SWAP2 ADD MLOAD SWAP1 SWAP3 SWAP1 SWAP2 POP JUMP JUMPDEST PUSH4 0x4E487B71 PUSH1 0xE0 SHL PUSH1 0x0 MSTORE PUSH1 0x11 PUSH1 0x4 MSTORE PUSH1 0x24 PUSH1 0x0 REVERT JUMPDEST DUP1 DUP3 ADD DUP1 DUP3 GT ISZERO PUSH2 0xD62 JUMPI PUSH2 0xD62 PUSH2 0x192B JUMP JUMPDEST PUSH4 0x4E487B71 PUSH1 0xE0 SHL PUSH1 0x0 MSTORE PUSH1 0x32 PUSH1 0x4 MSTORE PUSH1 0x24 PUSH1 0x0 REVERT JUMPDEST PUSH1 0x0 PUSH1 0x20 DUP3 DUP5 SUB SLT ISZERO PUSH2 0x197C JUMPI PUSH1 0x0 DUP1 REVERT JUMPDEST DUP2 MLOAD DUP1 ISZERO ISZERO DUP2 EQ PUSH2 0xAB2 JUMPI PUSH1 0x0 DUP1 REVERT JUMPDEST DUP1 DUP3 MUL DUP2 ISZERO DUP3 DUP3 DIV DUP5 EQ OR PUSH2 0xD62 JUMPI PUSH2 0xD62 PUSH2 0x192B JUMP JUMPDEST PUSH1 0x0 DUP3 PUSH2 0x19C0 JUMPI PUSH4 0x4E487B71 PUSH1 0xE0 SHL PUSH1 0x0 MSTORE PUSH1 0x12 PUSH1 0x4 MSTORE PUSH1 0x24 PUSH1 0x0 REVERT JUMPDEST POP DIV SWAP1 JUMP JUMPDEST PUSH1 0x0 PUSH1 0x20 DUP3 DUP5 SUB SLT ISZERO PUSH2 0x19D7 JUMPI PUSH1 0x0 DUP1 REVERT JUMPDEST POP MLOAD SWAP2 SWAP1 POP JUMP JUMPDEST DUP2 DUP2 SUB DUP2 DUP2 GT ISZERO PUSH2 0xD62 JUMPI PUSH2 0xD62 PUSH2 0x192B JUMP INVALID LOG2 PUSH5 0x6970667358 0x22 SLT KECCAK256 PUSH30 0x23B8A43801C9576D25F72B838B6124DF8395066CD32975ABBC99825227E7 0xAA PUSH5 0x736F6C6343 STOP ADDMOD AND STOP CALLER "},"gasEstimates":{"creation":{"codeDepositCost":"1339000","executionCost":"27260","totalCost":"1366260"},"external":{"LIQUIDATION_REWARD()":"240","LIQUIDATION_THRESHOLD()":"262","MIN_HEALH_FACTOR()":"239","allowedTokens(uint256)":"4704","borrow(address,uint256)":"infinite","borrows(address,address)":"infinite","calculateBorrowValue(address)":"infinite","calculateDepositValue(address)":"infinite","calculateNativeAssetUSDValue(uint256)":"infinite","calculateNativeAssetValueFromUSD(uint256)":"infinite","calculateTokenValueFromUSD(address,uint256)":"infinite","calculateUSDValue(address,uint256)":"infinite","depositNative()":"26151","depositToken(address,uint256)":"infinite","deposits(address,address)":"infinite","flareAdaptor()":"2403","getTotalContractBalance()":"283","healthFactor(address)":"infinite","liquidate(address,address,address)":"infinite","liquidateForNative(address,address)":"infinite","nativeDeposits(address)":"2651","nativeTokenProxyAddress()":"2449","owner()":"2421","priceFeedOfToken(address)":"2604","readDataFeed(address)":"infinite","renounceOwnership()":"infinite","repay(address,uint256)":"infinite","setNativeTokenProxyAddress(address)":"26824","setTokensAvailable(address,address)":"infinite","transferOwnership(address)":"28421","userInformation(address)":"infinite","withdraw(address,uint256)":"infinite","withdrawNative(uint256)":"infinite"},"internal":{"repayFunction(address,address,uint256)":"infinite"}},"methodIdentifiers":{"LIQUIDATION_REWARD()":"ad0d7594","LIQUIDATION_THRESHOLD()":"90a8ae9b","MIN_HEALH_FACTOR()":"df80eed2","allowedTokens(uint256)":"5e5f2e26","borrow(address,uint256)":"4b8a3529","borrows(address,address)":"6c29219c","calculateBorrowValue(address)":"58013786","calculateDepositValue(address)":"322d7a62","calculateNativeAssetUSDValue(uint256)":"46e303f2","calculateNativeAssetValueFromUSD(uint256)":"8eac6661","calculateTokenValueFromUSD(address,uint256)":"59e71375","calculateUSDValue(address,uint256)":"ac4ffcdf","depositNative()":"db6b5246","depositToken(address,uint256)":"338b5dea","deposits(address,address)":"8f601f66","flareAdaptor()":"eaed04b5","getTotalContractBalance()":"d9e3fd64","healthFactor(address)":"6ad9f9df","liquidate(address,address,address)":"ca5ce2ec","liquidateForNative(address,address)":"a923da23","nativeDeposits(address)":"f6c6bdee","nativeTokenProxyAddress()":"4cdb66bc","owner()":"8da5cb5b","priceFeedOfToken(address)":"7e0baf87","readDataFeed(address)":"072c7dde","renounceOwnership()":"715018a6","repay(address,uint256)":"22867d78","setNativeTokenProxyAddress(address)":"79a71a87","setTokensAvailable(address,address)":"3e0fd70f","transferOwnership(address)":"f2fde38b","userInformation(address)":"7d2e227d","withdraw(address,uint256)":"f3fef3a3","withdrawNative(uint256)":"84276d81"}},"storageLayout":{"storage":[{"astId":1533,"contract":"contracts/Borrow.sol:BorrowLend","label":"_owner","offset":0,"slot":"0","type":"t_address"},{"astId":2430,"contract":"contracts/Borrow.sol:BorrowLend","label":"flareAdaptor","offset":0,"slot":"1","type":"t_contract(IFlareAdaptor)2371"},{"astId":2433,"contract":"contracts/Borrow.sol:BorrowLend","label":"allowedTokens","offset":0,"slot":"2","type":"t_array(t_address)dyn_storage"},{"astId":2437,"contract":"contracts/Borrow.sol:BorrowLend","label":"priceFeedOfToken","offset":0,"slot":"3","type":"t_mapping(t_address,t_address)"},{"astId":2441,"contract":"contracts/Borrow.sol:BorrowLend","label":"nativeDeposits","offset":0,"slot":"4","type":"t_mapping(t_address,t_uint256)"},{"astId":2447,"contract":"contracts/Borrow.sol:BorrowLend","label":"deposits","offset":0,"slot":"5","type":"t_mapping(t_address,t_mapping(t_address,t_uint256))"},{"astId":2453,"contract":"contracts/Borrow.sol:BorrowLend","label":"borrows","offset":0,"slot":"6","type":"t_mapping(t_address,t_mapping(t_address,t_uint256))"},{"astId":2455,"contract":"contracts/Borrow.sol:BorrowLend","label":"nativeTokenProxyAddress","offset":0,"slot":"7","type":"t_address"}],"types":{"t_address":{"encoding":"inplace","label":"address","numberOfBytes":"20"},"t_array(t_address)dyn_storage":{"base":"t_address","encoding":"dynamic_array","label":"address[]","numberOfBytes":"32"},"t_contract(IFlareAdaptor)2371":{"encoding":"inplace","label":"contract IFlareAdaptor","numberOfBytes":"20"},"t_mapping(t_address,t_address)":{"encoding":"mapping","key":"t_address","label":"mapping(address => address)","numberOfBytes":"32","value":"t_address"},"t_mapping(t_address,t_mapping(t_address,t_uint256))":{"encoding":"mapping","key":"t_address","label":"mapping(address => mapping(address => uint256))","numberOfBytes":"32","value":"t_mapping(t_address,t_uint256)"},"t_mapping(t_address,t_uint256)":{"encoding":"mapping","key":"t_address","label":"mapping(address => uint256)","numberOfBytes":"32","value":"t_uint256"},"t_uint256":{"encoding":"inplace","label":"uint256","numberOfBytes":"32"}}},"userdoc":{"kind":"user","methods":{},"version":1}}}}