{"contracts/Adaptor.sol":{"FlareAdaptor":{"abi":[{"inputs":[],"stateMutability":"nonpayable","type":"constructor"},{"inputs":[{"internalType":"uint256","name":"","type":"uint256"}],"name":"feedIndexes","outputs":[{"internalType":"uint256","name":"","type":"uint256"}],"stateMutability":"view","type":"function"},{"inputs":[],"name":"getFtsoV2CurrentFeedValues","outputs":[{"internalType":"uint256[]","name":"_feedValues","type":"uint256[]"},{"internalType":"int8[]","name":"_decimals","type":"int8[]"},{"internalType":"uint64","name":"_timestamp","type":"uint64"}],"stateMutability":"view","type":"function"},{"inputs":[],"name":"read","outputs":[{"internalType":"uint256","name":"","type":"uint256"},{"internalType":"uint256","name":"","type":"uint256"}],"stateMutability":"view","type":"function"}],"devdoc":{"kind":"dev","methods":{},"version":1},"evm":{"bytecode":{"linkReferences":{},"object":"60a0604052600960809081526100199060029060016100ee565b5034801561002657600080fd5b50600080546001600160a01b03191673ad67fe66660fb8dfe9d6b1b4240d8650e30f601990811790915560405163413b07e560e11b815260206004820152600b60248201526a2330b9ba2ab83230ba32b960a91b60448201526382760fca90606401602060405180830381865afa1580156100a5573d6000803e3d6000fd5b505050506040513d601f19601f820116820180604052508101906100c99190610153565b600180546001600160a01b0319166001600160a01b0392909216919091179055610183565b82805482825590600052602060002090810192821561012e579160200282015b8281111561012e578251829060ff1690559160200191906001019061010e565b5061013a92915061013e565b5090565b5b8082111561013a576000815560010161013f565b60006020828403121561016557600080fd5b81516001600160a01b038116811461017c57600080fd5b9392505050565b6106cf806101926000396000f3fe608060405234801561001057600080fd5b50600436106100415760003560e01c806357de26a414610046578063dae2f4bc14610068578063f601bc8b14610089575b600080fd5b61004e6100a0565b604080519283526020830191909152015b60405180910390f35b61007b61007636600461021f565b61016b565b60405190815260200161005f565b61009161018c565b60405161005f93929190610238565b60008060008060006100b061018c565b9250925092506000836000815181106100cb576100cb6102ce565b602002602001015190506000836000815181106100ea576100ea6102ce565b602002602001015190506000808260000b126101275761010b8260126102fa565b61011690600a6103fd565b6101209084610413565b9050610153565b6101308261042a565b61013b906012610448565b61014690600a6103fd565b6101509084610461565b90505b9767ffffffffffffffff909316965091945050505050565b6002818154811061017b57600080fd5b600091825260209091200154905081565b600154604051631168574f60e21b815260609182916000918291829182916001600160a01b03909116906345a15d3c906101cb90600290600401610483565b600060405180830381865afa1580156101e8573d6000803e3d6000fd5b505050506040513d6000823e601f3d908101601f1916820160405261021091908101906105cd565b91989097509095509350505050565b60006020828403121561023157600080fd5b5035919050565b60608082528451908201819052600090602090608084019082880184805b8381101561027257825185529385019391850191600101610256565b5086840385880152885180855289860194860193509150805b828110156102a9578451820b8452938501939285019260010161028b565b50505067ffffffffffffffff8616604086015292506102c6915050565b949350505050565b634e487b7160e01b600052603260045260246000fd5b634e487b7160e01b600052601160045260246000fd5b60ff8281168282160390811115610313576103136102e4565b92915050565b600181815b8085111561035457816000190482111561033a5761033a6102e4565b8085161561034757918102915b93841c939080029061031e565b509250929050565b60008261036b57506001610313565b8161037857506000610313565b816001811461038e5760028114610398576103b4565b6001915050610313565b60ff8411156103a9576103a96102e4565b50506001821b610313565b5060208310610133831016604e8410600b84101617156103d7575081810a610313565b6103e18383610319565b80600019048211156103f5576103f56102e4565b029392505050565b600061040c60ff84168361035c565b9392505050565b8082028115828204841417610313576103136102e4565b600081810b6080810161043f5761043f6102e4565b60000392915050565b60ff8181168382160190811115610313576103136102e4565b60008261047e57634e487b7160e01b600052601260045260246000fd5b500490565b6020808252825482820181905260008481528281209092916040850190845b818110156104be578354835260019384019392850192016104a2565b50909695505050505050565b634e487b7160e01b600052604160045260246000fd5b604051601f8201601f1916810167ffffffffffffffff81118282101715610509576105096104ca565b604052919050565b600067ffffffffffffffff82111561052b5761052b6104ca565b5060051b60200190565b600082601f83011261054657600080fd5b8151602061055b61055683610511565b6104e0565b82815260059290921b8401810191818101908684111561057a57600080fd5b8286015b848110156105a5578051600081810b8214610597578081fd5b50835291830191830161057e565b509695505050505050565b805167ffffffffffffffff811681146105c857600080fd5b919050565b6000806000606084860312156105e257600080fd5b835167ffffffffffffffff808211156105fa57600080fd5b818601915086601f83011261060e57600080fd5b8151602061061e61055683610511565b82815260059290921b8401810191818101908a84111561063d57600080fd5b948201945b8386101561065b57855182529482019490820190610642565b9189015191975090935050508082111561067457600080fd5b5061068186828701610535565b925050610690604085016105b0565b9050925092509256fea26469706673582212206f7dcde343ba4985f930fded8189d40494ad7fba7af4b22d632295eee23c62d564736f6c63430008130033","opcodes":"PUSH1 0xA0 PUSH1 0x40 MSTORE PUSH1 0x9 PUSH1 0x80 SWAP1 DUP2 MSTORE PUSH2 0x19 SWAP1 PUSH1 0x2 SWAP1 PUSH1 0x1 PUSH2 0xEE JUMP JUMPDEST POP CALLVALUE DUP1 ISZERO PUSH2 0x26 JUMPI PUSH1 0x0 DUP1 REVERT JUMPDEST POP PUSH1 0x0 DUP1 SLOAD PUSH1 0x1 PUSH1 0x1 PUSH1 0xA0 SHL SUB NOT AND PUSH20 0xAD67FE66660FB8DFE9D6B1B4240D8650E30F6019 SWAP1 DUP2 OR SWAP1 SWAP2 SSTORE PUSH1 0x40 MLOAD PUSH4 0x413B07E5 PUSH1 0xE1 SHL DUP2 MSTORE PUSH1 0x20 PUSH1 0x4 DUP3 ADD MSTORE PUSH1 0xB PUSH1 0x24 DUP3 ADD MSTORE PUSH11 0x2330B9BA2AB83230BA32B9 PUSH1 0xA9 SHL PUSH1 0x44 DUP3 ADD MSTORE PUSH4 0x82760FCA SWAP1 PUSH1 0x64 ADD PUSH1 0x20 PUSH1 0x40 MLOAD DUP1 DUP4 SUB DUP2 DUP7 GAS STATICCALL ISZERO DUP1 ISZERO PUSH2 0xA5 JUMPI RETURNDATASIZE PUSH1 0x0 DUP1 RETURNDATACOPY RETURNDATASIZE PUSH1 0x0 REVERT JUMPDEST POP POP POP POP PUSH1 0x40 MLOAD RETURNDATASIZE PUSH1 0x1F NOT PUSH1 0x1F DUP3 ADD AND DUP3 ADD DUP1 PUSH1 0x40 MSTORE POP DUP2 ADD SWAP1 PUSH2 0xC9 SWAP2 SWAP1 PUSH2 0x153 JUMP JUMPDEST PUSH1 0x1 DUP1 SLOAD PUSH1 0x1 PUSH1 0x1 PUSH1 0xA0 SHL SUB NOT AND PUSH1 0x1 PUSH1 0x1 PUSH1 0xA0 SHL SUB SWAP3 SWAP1 SWAP3 AND SWAP2 SWAP1 SWAP2 OR SWAP1 SSTORE PUSH2 0x183 JUMP JUMPDEST DUP3 DUP1 SLOAD DUP3 DUP3 SSTORE SWAP1 PUSH1 0x0 MSTORE PUSH1 0x20 PUSH1 0x0 KECCAK256 SWAP1 DUP2 ADD SWAP3 DUP3 ISZERO PUSH2 0x12E JUMPI SWAP2 PUSH1 0x20 MUL DUP3 ADD JUMPDEST DUP3 DUP2 GT ISZERO PUSH2 0x12E JUMPI DUP3 MLOAD DUP3 SWAP1 PUSH1 0xFF AND SWAP1 SSTORE SWAP2 PUSH1 0x20 ADD SWAP2 SWAP1 PUSH1 0x1 ADD SWAP1 PUSH2 0x10E JUMP JUMPDEST POP PUSH2 0x13A SWAP3 SWAP2 POP PUSH2 0x13E JUMP JUMPDEST POP SWAP1 JUMP JUMPDEST JUMPDEST DUP1 DUP3 GT ISZERO PUSH2 0x13A JUMPI PUSH1 0x0 DUP2 SSTORE PUSH1 0x1 ADD PUSH2 0x13F JUMP JUMPDEST PUSH1 0x0 PUSH1 0x20 DUP3 DUP5 SUB SLT ISZERO PUSH2 0x165 JUMPI PUSH1 0x0 DUP1 REVERT JUMPDEST DUP2 MLOAD PUSH1 0x1 PUSH1 0x1 PUSH1 0xA0 SHL SUB DUP2 AND DUP2 EQ PUSH2 0x17C JUMPI PUSH1 0x0 DUP1 REVERT JUMPDEST SWAP4 SWAP3 POP POP POP JUMP JUMPDEST PUSH2 0x6CF DUP1 PUSH2 0x192 PUSH1 0x0 CODECOPY PUSH1 0x0 RETURN INVALID PUSH1 0x80 PUSH1 0x40 MSTORE CALLVALUE DUP1 ISZERO PUSH2 0x10 JUMPI PUSH1 0x0 DUP1 REVERT JUMPDEST POP PUSH1 0x4 CALLDATASIZE LT PUSH2 0x41 JUMPI PUSH1 0x0 CALLDATALOAD PUSH1 0xE0 SHR DUP1 PUSH4 0x57DE26A4 EQ PUSH2 0x46 JUMPI DUP1 PUSH4 0xDAE2F4BC EQ PUSH2 0x68 JUMPI DUP1 PUSH4 0xF601BC8B EQ PUSH2 0x89 JUMPI JUMPDEST PUSH1 0x0 DUP1 REVERT JUMPDEST PUSH2 0x4E PUSH2 0xA0 JUMP JUMPDEST PUSH1 0x40 DUP1 MLOAD SWAP3 DUP4 MSTORE PUSH1 0x20 DUP4 ADD SWAP2 SWAP1 SWAP2 MSTORE ADD JUMPDEST PUSH1 0x40 MLOAD DUP1 SWAP2 SUB SWAP1 RETURN JUMPDEST PUSH2 0x7B PUSH2 0x76 CALLDATASIZE PUSH1 0x4 PUSH2 0x21F JUMP JUMPDEST PUSH2 0x16B JUMP JUMPDEST PUSH1 0x40 MLOAD SWAP1 DUP2 MSTORE PUSH1 0x20 ADD PUSH2 0x5F JUMP JUMPDEST PUSH2 0x91 PUSH2 0x18C JUMP JUMPDEST PUSH1 0x40 MLOAD PUSH2 0x5F SWAP4 SWAP3 SWAP2 SWAP1 PUSH2 0x238 JUMP JUMPDEST PUSH1 0x0 DUP1 PUSH1 0x0 DUP1 PUSH1 0x0 PUSH2 0xB0 PUSH2 0x18C JUMP JUMPDEST SWAP3 POP SWAP3 POP SWAP3 POP PUSH1 0x0 DUP4 PUSH1 0x0 DUP2 MLOAD DUP2 LT PUSH2 0xCB JUMPI PUSH2 0xCB PUSH2 0x2CE JUMP JUMPDEST PUSH1 0x20 MUL PUSH1 0x20 ADD ADD MLOAD SWAP1 POP PUSH1 0x0 DUP4 PUSH1 0x0 DUP2 MLOAD DUP2 LT PUSH2 0xEA JUMPI PUSH2 0xEA PUSH2 0x2CE JUMP JUMPDEST PUSH1 0x20 MUL PUSH1 0x20 ADD ADD MLOAD SWAP1 POP PUSH1 0x0 DUP1 DUP3 PUSH1 0x0 SIGNEXTEND SLT PUSH2 0x127 JUMPI PUSH2 0x10B DUP3 PUSH1 0x12 PUSH2 0x2FA JUMP JUMPDEST PUSH2 0x116 SWAP1 PUSH1 0xA PUSH2 0x3FD JUMP JUMPDEST PUSH2 0x120 SWAP1 DUP5 PUSH2 0x413 JUMP JUMPDEST SWAP1 POP PUSH2 0x153 JUMP JUMPDEST PUSH2 0x130 DUP3 PUSH2 0x42A JUMP JUMPDEST PUSH2 0x13B SWAP1 PUSH1 0x12 PUSH2 0x448 JUMP JUMPDEST PUSH2 0x146 SWAP1 PUSH1 0xA PUSH2 0x3FD JUMP JUMPDEST PUSH2 0x150 SWAP1 DUP5 PUSH2 0x461 JUMP JUMPDEST SWAP1 POP JUMPDEST SWAP8 PUSH8 0xFFFFFFFFFFFFFFFF SWAP1 SWAP4 AND SWAP7 POP SWAP2 SWAP5 POP POP POP POP POP JUMP JUMPDEST PUSH1 0x2 DUP2 DUP2 SLOAD DUP2 LT PUSH2 0x17B JUMPI PUSH1 0x0 DUP1 REVERT JUMPDEST PUSH1 0x0 SWAP2 DUP3 MSTORE PUSH1 0x20 SWAP1 SWAP2 KECCAK256 ADD SLOAD SWAP1 POP DUP2 JUMP JUMPDEST PUSH1 0x1 SLOAD PUSH1 0x40 MLOAD PUSH4 0x1168574F PUSH1 0xE2 SHL DUP2 MSTORE PUSH1 0x60 SWAP2 DUP3 SWAP2 PUSH1 0x0 SWAP2 DUP3 SWAP2 DUP3 SWAP2 DUP3 SWAP2 PUSH1 0x1 PUSH1 0x1 PUSH1 0xA0 SHL SUB SWAP1 SWAP2 AND SWAP1 PUSH4 0x45A15D3C SWAP1 PUSH2 0x1CB SWAP1 PUSH1 0x2 SWAP1 PUSH1 0x4 ADD PUSH2 0x483 JUMP JUMPDEST PUSH1 0x0 PUSH1 0x40 MLOAD DUP1 DUP4 SUB DUP2 DUP7 GAS STATICCALL ISZERO DUP1 ISZERO PUSH2 0x1E8 JUMPI RETURNDATASIZE PUSH1 0x0 DUP1 RETURNDATACOPY RETURNDATASIZE PUSH1 0x0 REVERT JUMPDEST POP POP POP POP PUSH1 0x40 MLOAD RETURNDATASIZE PUSH1 0x0 DUP3 RETURNDATACOPY PUSH1 0x1F RETURNDATASIZE SWAP1 DUP2 ADD PUSH1 0x1F NOT AND DUP3 ADD PUSH1 0x40 MSTORE PUSH2 0x210 SWAP2 SWAP1 DUP2 ADD SWAP1 PUSH2 0x5CD JUMP JUMPDEST SWAP2 SWAP9 SWAP1 SWAP8 POP SWAP1 SWAP6 POP SWAP4 POP POP POP POP JUMP JUMPDEST PUSH1 0x0 PUSH1 0x20 DUP3 DUP5 SUB SLT ISZERO PUSH2 0x231 JUMPI PUSH1 0x0 DUP1 REVERT JUMPDEST POP CALLDATALOAD SWAP2 SWAP1 POP JUMP JUMPDEST PUSH1 0x60 DUP1 DUP3 MSTORE DUP5 MLOAD SWAP1 DUP3 ADD DUP2 SWAP1 MSTORE PUSH1 0x0 SWAP1 PUSH1 0x20 SWAP1 PUSH1 0x80 DUP5 ADD SWAP1 DUP3 DUP9 ADD DUP5 DUP1 JUMPDEST DUP4 DUP2 LT ISZERO PUSH2 0x272 JUMPI DUP3 MLOAD DUP6 MSTORE SWAP4 DUP6 ADD SWAP4 SWAP2 DUP6 ADD SWAP2 PUSH1 0x1 ADD PUSH2 0x256 JUMP JUMPDEST POP DUP7 DUP5 SUB DUP6 DUP9 ADD MSTORE DUP9 MLOAD DUP1 DUP6 MSTORE DUP10 DUP7 ADD SWAP5 DUP7 ADD SWAP4 POP SWAP2 POP DUP1 JUMPDEST DUP3 DUP2 LT ISZERO PUSH2 0x2A9 JUMPI DUP5 MLOAD DUP3 SIGNEXTEND DUP5 MSTORE SWAP4 DUP6 ADD SWAP4 SWAP3 DUP6 ADD SWAP3 PUSH1 0x1 ADD PUSH2 0x28B JUMP JUMPDEST POP POP POP PUSH8 0xFFFFFFFFFFFFFFFF DUP7 AND PUSH1 0x40 DUP7 ADD MSTORE SWAP3 POP PUSH2 0x2C6 SWAP2 POP POP JUMP JUMPDEST SWAP5 SWAP4 POP POP POP POP JUMP JUMPDEST PUSH4 0x4E487B71 PUSH1 0xE0 SHL PUSH1 0x0 MSTORE PUSH1 0x32 PUSH1 0x4 MSTORE PUSH1 0x24 PUSH1 0x0 REVERT JUMPDEST PUSH4 0x4E487B71 PUSH1 0xE0 SHL PUSH1 0x0 MSTORE PUSH1 0x11 PUSH1 0x4 MSTORE PUSH1 0x24 PUSH1 0x0 REVERT JUMPDEST PUSH1 0xFF DUP3 DUP2 AND DUP3 DUP3 AND SUB SWAP1 DUP2 GT ISZERO PUSH2 0x313 JUMPI PUSH2 0x313 PUSH2 0x2E4 JUMP JUMPDEST SWAP3 SWAP2 POP POP JUMP JUMPDEST PUSH1 0x1 DUP2 DUP2 JUMPDEST DUP1 DUP6 GT ISZERO PUSH2 0x354 JUMPI DUP2 PUSH1 0x0 NOT DIV DUP3 GT ISZERO PUSH2 0x33A JUMPI PUSH2 0x33A PUSH2 0x2E4 JUMP JUMPDEST DUP1 DUP6 AND ISZERO PUSH2 0x347 JUMPI SWAP2 DUP2 MUL SWAP2 JUMPDEST SWAP4 DUP5 SHR SWAP4 SWAP1 DUP1 MUL SWAP1 PUSH2 0x31E JUMP JUMPDEST POP SWAP3 POP SWAP3 SWAP1 POP JUMP JUMPDEST PUSH1 0x0 DUP3 PUSH2 0x36B JUMPI POP PUSH1 0x1 PUSH2 0x313 JUMP JUMPDEST DUP2 PUSH2 0x378 JUMPI POP PUSH1 0x0 PUSH2 0x313 JUMP JUMPDEST DUP2 PUSH1 0x1 DUP2 EQ PUSH2 0x38E JUMPI PUSH1 0x2 DUP2 EQ PUSH2 0x398 JUMPI PUSH2 0x3B4 JUMP JUMPDEST PUSH1 0x1 SWAP2 POP POP PUSH2 0x313 JUMP JUMPDEST PUSH1 0xFF DUP5 GT ISZERO PUSH2 0x3A9 JUMPI PUSH2 0x3A9 PUSH2 0x2E4 JUMP JUMPDEST POP POP PUSH1 0x1 DUP3 SHL PUSH2 0x313 JUMP JUMPDEST POP PUSH1 0x20 DUP4 LT PUSH2 0x133 DUP4 LT AND PUSH1 0x4E DUP5 LT PUSH1 0xB DUP5 LT AND OR ISZERO PUSH2 0x3D7 JUMPI POP DUP2 DUP2 EXP PUSH2 0x313 JUMP JUMPDEST PUSH2 0x3E1 DUP4 DUP4 PUSH2 0x319 JUMP JUMPDEST DUP1 PUSH1 0x0 NOT DIV DUP3 GT ISZERO PUSH2 0x3F5 JUMPI PUSH2 0x3F5 PUSH2 0x2E4 JUMP JUMPDEST MUL SWAP4 SWAP3 POP POP POP JUMP JUMPDEST PUSH1 0x0 PUSH2 0x40C PUSH1 0xFF DUP5 AND DUP4 PUSH2 0x35C JUMP JUMPDEST SWAP4 SWAP3 POP POP POP JUMP JUMPDEST DUP1 DUP3 MUL DUP2 ISZERO DUP3 DUP3 DIV DUP5 EQ OR PUSH2 0x313 JUMPI PUSH2 0x313 PUSH2 0x2E4 JUMP JUMPDEST PUSH1 0x0 DUP2 DUP2 SIGNEXTEND PUSH1 0x80 DUP2 ADD PUSH2 0x43F JUMPI PUSH2 0x43F PUSH2 0x2E4 JUMP JUMPDEST PUSH1 0x0 SUB SWAP3 SWAP2 POP POP JUMP JUMPDEST PUSH1 0xFF DUP2 DUP2 AND DUP4 DUP3 AND ADD SWAP1 DUP2 GT ISZERO PUSH2 0x313 JUMPI PUSH2 0x313 PUSH2 0x2E4 JUMP JUMPDEST PUSH1 0x0 DUP3 PUSH2 0x47E JUMPI PUSH4 0x4E487B71 PUSH1 0xE0 SHL PUSH1 0x0 MSTORE PUSH1 0x12 PUSH1 0x4 MSTORE PUSH1 0x24 PUSH1 0x0 REVERT JUMPDEST POP DIV SWAP1 JUMP JUMPDEST PUSH1 0x20 DUP1 DUP3 MSTORE DUP3 SLOAD DUP3 DUP3 ADD DUP2 SWAP1 MSTORE PUSH1 0x0 DUP5 DUP2 MSTORE DUP3 DUP2 KECCAK256 SWAP1 SWAP3 SWAP2 PUSH1 0x40 DUP6 ADD SWAP1 DUP5 JUMPDEST DUP2 DUP2 LT ISZERO PUSH2 0x4BE JUMPI DUP4 SLOAD DUP4 MSTORE PUSH1 0x1 SWAP4 DUP5 ADD SWAP4 SWAP3 DUP6 ADD SWAP3 ADD PUSH2 0x4A2 JUMP JUMPDEST POP SWAP1 SWAP7 SWAP6 POP POP POP POP POP POP JUMP JUMPDEST PUSH4 0x4E487B71 PUSH1 0xE0 SHL PUSH1 0x0 MSTORE PUSH1 0x41 PUSH1 0x4 MSTORE PUSH1 0x24 PUSH1 0x0 REVERT JUMPDEST PUSH1 0x40 MLOAD PUSH1 0x1F DUP3 ADD PUSH1 0x1F NOT AND DUP2 ADD PUSH8 0xFFFFFFFFFFFFFFFF DUP2 GT DUP3 DUP3 LT OR ISZERO PUSH2 0x509 JUMPI PUSH2 0x509 PUSH2 0x4CA JUMP JUMPDEST PUSH1 0x40 MSTORE SWAP2 SWAP1 POP JUMP JUMPDEST PUSH1 0x0 PUSH8 0xFFFFFFFFFFFFFFFF DUP3 GT ISZERO PUSH2 0x52B JUMPI PUSH2 0x52B PUSH2 0x4CA JUMP JUMPDEST POP PUSH1 0x5 SHL PUSH1 0x20 ADD SWAP1 JUMP JUMPDEST PUSH1 0x0 DUP3 PUSH1 0x1F DUP4 ADD SLT PUSH2 0x546 JUMPI PUSH1 0x0 DUP1 REVERT JUMPDEST DUP2 MLOAD PUSH1 0x20 PUSH2 0x55B PUSH2 0x556 DUP4 PUSH2 0x511 JUMP JUMPDEST PUSH2 0x4E0 JUMP JUMPDEST DUP3 DUP2 MSTORE PUSH1 0x5 SWAP3 SWAP1 SWAP3 SHL DUP5 ADD DUP2 ADD SWAP2 DUP2 DUP2 ADD SWAP1 DUP7 DUP5 GT ISZERO PUSH2 0x57A JUMPI PUSH1 0x0 DUP1 REVERT JUMPDEST DUP3 DUP7 ADD JUMPDEST DUP5 DUP2 LT ISZERO PUSH2 0x5A5 JUMPI DUP1 MLOAD PUSH1 0x0 DUP2 DUP2 SIGNEXTEND DUP3 EQ PUSH2 0x597 JUMPI DUP1 DUP2 REVERT JUMPDEST POP DUP4 MSTORE SWAP2 DUP4 ADD SWAP2 DUP4 ADD PUSH2 0x57E JUMP JUMPDEST POP SWAP7 SWAP6 POP POP POP POP POP POP JUMP JUMPDEST DUP1 MLOAD PUSH8 0xFFFFFFFFFFFFFFFF DUP2 AND DUP2 EQ PUSH2 0x5C8 JUMPI PUSH1 0x0 DUP1 REVERT JUMPDEST SWAP2 SWAP1 POP JUMP JUMPDEST PUSH1 0x0 DUP1 PUSH1 0x0 PUSH1 0x60 DUP5 DUP7 SUB SLT ISZERO PUSH2 0x5E2 JUMPI PUSH1 0x0 DUP1 REVERT JUMPDEST DUP4 MLOAD PUSH8 0xFFFFFFFFFFFFFFFF DUP1 DUP3 GT ISZERO PUSH2 0x5FA JUMPI PUSH1 0x0 DUP1 REVERT JUMPDEST DUP2 DUP7 ADD SWAP2 POP DUP7 PUSH1 0x1F DUP4 ADD SLT PUSH2 0x60E JUMPI PUSH1 0x0 DUP1 REVERT JUMPDEST DUP2 MLOAD PUSH1 0x20 PUSH2 0x61E PUSH2 0x556 DUP4 PUSH2 0x511 JUMP JUMPDEST DUP3 DUP2 MSTORE PUSH1 0x5 SWAP3 SWAP1 SWAP3 SHL DUP5 ADD DUP2 ADD SWAP2 DUP2 DUP2 ADD SWAP1 DUP11 DUP5 GT ISZERO PUSH2 0x63D JUMPI PUSH1 0x0 DUP1 REVERT JUMPDEST SWAP5 DUP3 ADD SWAP5 JUMPDEST DUP4 DUP7 LT ISZERO PUSH2 0x65B JUMPI DUP6 MLOAD DUP3 MSTORE SWAP5 DUP3 ADD SWAP5 SWAP1 DUP3 ADD SWAP1 PUSH2 0x642 JUMP JUMPDEST SWAP2 DUP10 ADD MLOAD SWAP2 SWAP8 POP SWAP1 SWAP4 POP POP POP DUP1 DUP3 GT ISZERO PUSH2 0x674 JUMPI PUSH1 0x0 DUP1 REVERT JUMPDEST POP PUSH2 0x681 DUP7 DUP3 DUP8 ADD PUSH2 0x535 JUMP JUMPDEST SWAP3 POP POP PUSH2 0x690 PUSH1 0x40 DUP6 ADD PUSH2 0x5B0 JUMP JUMPDEST SWAP1 POP SWAP3 POP SWAP3 POP SWAP3 JUMP INVALID LOG2 PUSH5 0x6970667358 0x22 SLT KECCAK256 PUSH16 0x7DCDE343BA4985F930FDED8189D40494 0xAD PUSH32 0xBA7AF4B22D632295EEE23C62D564736F6C634300081300330000000000000000 "},"gasEstimates":{"creation":{"codeDepositCost":"348600","executionCost":"infinite","totalCost":"infinite"},"external":{"feedIndexes(uint256)":"4575","getFtsoV2CurrentFeedValues()":"infinite","read()":"infinite"}},"methodIdentifiers":{"feedIndexes(uint256)":"dae2f4bc","getFtsoV2CurrentFeedValues()":"f601bc8b","read()":"57de26a4"}},"storageLayout":{"storage":[{"astId":227,"contract":"contracts/Adaptor.sol:FlareAdaptor","label":"contractRegistry","offset":0,"slot":"0","type":"t_contract(IFlareContractRegistry)218"},{"astId":230,"contract":"contracts/Adaptor.sol:FlareAdaptor","label":"ftsoV2","offset":0,"slot":"1","type":"t_contract(IFastUpdater)154"},{"astId":235,"contract":"contracts/Adaptor.sol:FlareAdaptor","label":"feedIndexes","offset":0,"slot":"2","type":"t_array(t_uint256)dyn_storage"}],"types":{"t_array(t_uint256)dyn_storage":{"base":"t_uint256","encoding":"dynamic_array","label":"uint256[]","numberOfBytes":"32"},"t_contract(IFastUpdater)154":{"encoding":"inplace","label":"contract IFastUpdater","numberOfBytes":"20"},"t_contract(IFlareContractRegistry)218":{"encoding":"inplace","label":"contract IFlareContractRegistry","numberOfBytes":"20"},"t_uint256":{"encoding":"inplace","label":"uint256","numberOfBytes":"32"}}},"userdoc":{"kind":"user","methods":{},"version":1}}}}