{"contracts/MyOApp.sol":{"MyOApp":{"abi":[{"inputs":[{"internalType":"address","name":"_endpoint","type":"address"},{"internalType":"address","name":"_delegate","type":"address"}],"stateMutability":"nonpayable","type":"constructor"},{"inputs":[{"internalType":"address","name":"target","type":"address"}],"name":"AddressEmptyCode","type":"error"},{"inputs":[{"internalType":"address","name":"account","type":"address"}],"name":"AddressInsufficientBalance","type":"error"},{"inputs":[],"name":"FailedInnerCall","type":"error"},{"inputs":[],"name":"InvalidDelegate","type":"error"},{"inputs":[],"name":"InvalidEndpointCall","type":"error"},{"inputs":[],"name":"LzTokenUnavailable","type":"error"},{"inputs":[{"internalType":"uint32","name":"eid","type":"uint32"}],"name":"NoPeer","type":"error"},{"inputs":[{"internalType":"uint256","name":"msgValue","type":"uint256"}],"name":"NotEnoughNative","type":"error"},{"inputs":[{"internalType":"address","name":"addr","type":"address"}],"name":"OnlyEndpoint","type":"error"},{"inputs":[{"internalType":"uint32","name":"eid","type":"uint32"},{"internalType":"bytes32","name":"sender","type":"bytes32"}],"name":"OnlyPeer","type":"error"},{"inputs":[{"internalType":"address","name":"owner","type":"address"}],"name":"OwnableInvalidOwner","type":"error"},{"inputs":[{"internalType":"address","name":"account","type":"address"}],"name":"OwnableUnauthorizedAccount","type":"error"},{"inputs":[{"internalType":"address","name":"token","type":"address"}],"name":"SafeERC20FailedOperation","type":"error"},{"anonymous":false,"inputs":[{"indexed":true,"internalType":"address","name":"previousOwner","type":"address"},{"indexed":true,"internalType":"address","name":"newOwner","type":"address"}],"name":"OwnershipTransferred","type":"event"},{"anonymous":false,"inputs":[{"indexed":false,"internalType":"uint32","name":"eid","type":"uint32"},{"indexed":false,"internalType":"bytes32","name":"peer","type":"bytes32"}],"name":"PeerSet","type":"event"},{"inputs":[{"components":[{"internalType":"uint32","name":"srcEid","type":"uint32"},{"internalType":"bytes32","name":"sender","type":"bytes32"},{"internalType":"uint64","name":"nonce","type":"uint64"}],"internalType":"struct Origin","name":"origin","type":"tuple"}],"name":"allowInitializePath","outputs":[{"internalType":"bool","name":"","type":"bool"}],"stateMutability":"view","type":"function"},{"inputs":[],"name":"data","outputs":[{"internalType":"string","name":"","type":"string"}],"stateMutability":"view","type":"function"},{"inputs":[],"name":"endpoint","outputs":[{"internalType":"contract ILayerZeroEndpointV2","name":"","type":"address"}],"stateMutability":"view","type":"function"},{"inputs":[{"components":[{"internalType":"uint32","name":"srcEid","type":"uint32"},{"internalType":"bytes32","name":"sender","type":"bytes32"},{"internalType":"uint64","name":"nonce","type":"uint64"}],"internalType":"struct Origin","name":"","type":"tuple"},{"internalType":"bytes","name":"","type":"bytes"},{"internalType":"address","name":"_sender","type":"address"}],"name":"isComposeMsgSender","outputs":[{"internalType":"bool","name":"","type":"bool"}],"stateMutability":"view","type":"function"},{"inputs":[{"components":[{"internalType":"uint32","name":"srcEid","type":"uint32"},{"internalType":"bytes32","name":"sender","type":"bytes32"},{"internalType":"uint64","name":"nonce","type":"uint64"}],"internalType":"struct Origin","name":"_origin","type":"tuple"},{"internalType":"bytes32","name":"_guid","type":"bytes32"},{"internalType":"bytes","name":"_message","type":"bytes"},{"internalType":"address","name":"_executor","type":"address"},{"internalType":"bytes","name":"_extraData","type":"bytes"}],"name":"lzReceive","outputs":[],"stateMutability":"payable","type":"function"},{"inputs":[{"internalType":"uint32","name":"","type":"uint32"},{"internalType":"bytes32","name":"","type":"bytes32"}],"name":"nextNonce","outputs":[{"internalType":"uint64","name":"nonce","type":"uint64"}],"stateMutability":"view","type":"function"},{"inputs":[],"name":"oAppVersion","outputs":[{"internalType":"uint64","name":"senderVersion","type":"uint64"},{"internalType":"uint64","name":"receiverVersion","type":"uint64"}],"stateMutability":"pure","type":"function"},{"inputs":[],"name":"owner","outputs":[{"internalType":"address","name":"","type":"address"}],"stateMutability":"view","type":"function"},{"inputs":[{"internalType":"uint32","name":"eid","type":"uint32"}],"name":"peers","outputs":[{"internalType":"bytes32","name":"peer","type":"bytes32"}],"stateMutability":"view","type":"function"},{"inputs":[{"internalType":"uint32","name":"_dstEid","type":"uint32"},{"internalType":"string","name":"_message","type":"string"},{"internalType":"bytes","name":"_options","type":"bytes"},{"internalType":"bool","name":"_payInLzToken","type":"bool"}],"name":"quote","outputs":[{"components":[{"internalType":"uint256","name":"nativeFee","type":"uint256"},{"internalType":"uint256","name":"lzTokenFee","type":"uint256"}],"internalType":"struct MessagingFee","name":"fee","type":"tuple"}],"stateMutability":"view","type":"function"},{"inputs":[],"name":"renounceOwnership","outputs":[],"stateMutability":"nonpayable","type":"function"},{"inputs":[{"internalType":"uint32","name":"_dstEid","type":"uint32"},{"internalType":"string","name":"_message","type":"string"},{"internalType":"bytes","name":"_options","type":"bytes"}],"name":"send","outputs":[{"components":[{"internalType":"bytes32","name":"guid","type":"bytes32"},{"internalType":"uint64","name":"nonce","type":"uint64"},{"components":[{"internalType":"uint256","name":"nativeFee","type":"uint256"},{"internalType":"uint256","name":"lzTokenFee","type":"uint256"}],"internalType":"struct MessagingFee","name":"fee","type":"tuple"}],"internalType":"struct MessagingReceipt","name":"receipt","type":"tuple"}],"stateMutability":"payable","type":"function"},{"inputs":[{"internalType":"address","name":"_delegate","type":"address"}],"name":"setDelegate","outputs":[],"stateMutability":"nonpayable","type":"function"},{"inputs":[{"internalType":"uint32","name":"_eid","type":"uint32"},{"internalType":"bytes32","name":"_peer","type":"bytes32"}],"name":"setPeer","outputs":[],"stateMutability":"nonpayable","type":"function"},{"inputs":[{"internalType":"address","name":"newOwner","type":"address"}],"name":"transferOwnership","outputs":[],"stateMutability":"nonpayable","type":"function"}],"devdoc":{"errors":{"AddressEmptyCode(address)":[{"details":"There's no code at `target` (it is not a contract)."}],"AddressInsufficientBalance(address)":[{"details":"The ETH balance of the account is not enough to perform the operation."}],"FailedInnerCall()":[{"details":"A call to an address target failed. The target may have reverted."}],"OwnableInvalidOwner(address)":[{"details":"The owner is not a valid owner account. (eg. `address(0)`)"}],"OwnableUnauthorizedAccount(address)":[{"details":"The caller account is not authorized to perform an operation."}],"SafeERC20FailedOperation(address)":[{"details":"An operation with an ERC20 token failed."}]},"kind":"dev","methods":{"allowInitializePath((uint32,bytes32,uint64))":{"details":"This indicates to the endpoint that the OApp has enabled msgs for this particular path to be received.This defaults to assuming if a peer has been set, its initialized. Can be overridden by the OApp if there is other logic to determine this.","params":{"origin":"The origin information containing the source endpoint and sender address."},"returns":{"_0":"Whether the path has been initialized."}},"isComposeMsgSender((uint32,bytes32,uint64),bytes,address)":{"details":"_origin The origin information containing the source endpoint and sender address.  - srcEid: The source chain endpoint ID.  - sender: The sender address on the src chain.  - nonce: The nonce of the message._message The lzReceive payload.Applications can optionally choose to implement separate composeMsg senders that are NOT the bridging layer.The default sender IS the OAppReceiver implementer.","params":{"_sender":"The sender address."},"returns":{"_0":"isSender Is a valid sender."}},"lzReceive((uint32,bytes32,uint64),bytes32,bytes,address,bytes)":{"details":"Entry point for receiving messages or packets from the endpoint.Entry point for receiving msg/packet from the LayerZero endpoint.","params":{"_executor":"The address of the executor for the received message.","_extraData":"Additional arbitrary data provided by the corresponding executor.","_guid":"The unique identifier for the received LayerZero message.","_message":"The payload of the received message.","_origin":"The origin information containing the source endpoint and sender address.  - srcEid: The source chain endpoint ID.  - sender: The sender address on the src chain.  - nonce: The nonce of the message."}},"nextNonce(uint32,bytes32)":{"details":"_srcEid The source endpoint ID._sender The sender address.The path nonce starts from 1. If 0 is returned it means that there is NO nonce ordered enforcement.Is required by the off-chain executor to determine the OApp expects msg execution is ordered.This is also enforced by the OApp.By default this is NOT enabled. ie. nextNonce is hardcoded to return 0.","returns":{"nonce":"The next nonce."}},"oAppVersion()":{"returns":{"receiverVersion":"The version of the OAppReceiver.sol implementation.","senderVersion":"The version of the OAppSender.sol implementation."}},"owner()":{"details":"Returns the address of the current owner."},"quote(uint32,string,bytes,bool)":{"params":{"_dstEid":"Destination chain's endpoint ID.","_message":"The message.","_options":"Message execution options (e.g., for sending gas to destination).","_payInLzToken":"Whether to return fee in ZRO token."},"returns":{"fee":"A `MessagingFee` struct containing the calculated gas fee in either the native token or ZRO token."}},"renounceOwnership()":{"details":"Leaves the contract without owner. It will not be possible to call `onlyOwner` functions. Can only be called by the current owner. NOTE: Renouncing ownership will leave the contract without an owner, thereby disabling any functionality that is only available to the owner."},"send(uint32,string,bytes)":{"details":"Encodes the message as bytes and sends it using the `_lzSend` internal function.","params":{"_dstEid":"The endpoint ID of the destination chain.","_message":"The message string to be sent.","_options":"Additional options for message execution."},"returns":{"receipt":"A `MessagingReceipt` struct containing details of the message sent."}},"setDelegate(address)":{"details":"Only the owner/admin of the OApp can call this function.Provides the ability for a delegate to set configs, on behalf of the OApp, directly on the Endpoint contract.","params":{"_delegate":"The address of the delegate to be set."}},"setPeer(uint32,bytes32)":{"details":"Only the owner/admin of the OApp can call this function.Indicates that the peer is trusted to send LayerZero messages to this OApp.Set this to bytes32(0) to remove the peer address.Peer is a bytes32 to accommodate non-evm chains.","params":{"_eid":"The endpoint ID.","_peer":"The address of the peer to be associated with the corresponding endpoint."}},"transferOwnership(address)":{"details":"Transfers ownership of the contract to a new account (`newOwner`). Can only be called by the current owner."}},"version":1},"evm":{"bytecode":{"linkReferences":{},"object":"60e0604052601560a09081527f4e6f7468696e67207265636569766564207965742e000000000000000000000060c0526002906200003e908262000241565b503480156200004c57600080fd5b5060405162001877380380620018778339810160408190526200006f916200032a565b81818181806001600160a01b038116620000a357604051631e4fbdf760e01b81526000600482015260240160405180910390fd5b620000ae816200014a565b506001600160a01b038083166080528116620000dd57604051632d618d8160e21b815260040160405180910390fd5b60805160405163ca5eb5e160e01b81526001600160a01b0383811660048301529091169063ca5eb5e190602401600060405180830381600087803b1580156200012557600080fd5b505af11580156200013a573d6000803e3d6000fd5b5050505050505050505062000362565b600080546001600160a01b038381166001600160a01b0319831681178455604051919092169283917f8be0079c531659141344cd1fd0a4f28419497f9722a3daafe3b4186f6b6457e09190a35050565b634e487b7160e01b600052604160045260246000fd5b600181811c90821680620001c557607f821691505b602082108103620001e657634e487b7160e01b600052602260045260246000fd5b50919050565b601f8211156200023c576000816000526020600020601f850160051c81016020861015620002175750805b601f850160051c820191505b81811015620002385782815560010162000223565b5050505b505050565b81516001600160401b038111156200025d576200025d6200019a565b62000275816200026e8454620001b0565b84620001ec565b602080601f831160018114620002ad5760008415620002945750858301515b600019600386901b1c1916600185901b17855562000238565b600085815260208120601f198616915b82811015620002de57888601518255948401946001909101908401620002bd565b5085821015620002fd5787850151600019600388901b60f8161c191681555b5050505050600190811b01905550565b80516001600160a01b03811681146200032557600080fd5b919050565b600080604083850312156200033e57600080fd5b62000349836200030d565b915062000359602084016200030d565b90509250929050565b6080516114cf620003a86000396000818161015b0152818161034b015281816104f1015281816107f5015281816108e3015281816109da0152610a9101526114cf6000f3fe6080604052600436106100e85760003560e01c806382413eac1161008a578063e0539e5811610059578063e0539e58146102bc578063f2fde38b146102dc578063f77e5dd3146102fc578063ff7bd03d1461032957600080fd5b806382413eac146102045780638da5cb5b14610243578063bb0b6a5314610261578063ca5eb5e11461029c57600080fd5b80635e280f11116100c65780635e280f1114610149578063715018a61461019557806373d4a13a146101aa5780637d25a05e146101cc57600080fd5b806313137d65146100ed57806317442b70146101025780633400288b14610129575b600080fd5b6101006100fb366004610d5a565b610349565b005b34801561010e57600080fd5b50604080516001815260026020820152015b60405180910390f35b34801561013557600080fd5b50610100610144366004610e12565b610409565b34801561015557600080fd5b5061017d7f000000000000000000000000000000000000000000000000000000000000000081565b6040516001600160a01b039091168152602001610120565b3480156101a157600080fd5b5061010061041f565b3480156101b657600080fd5b506101bf610433565b6040516101209190610e8c565b3480156101d857600080fd5b506101ec6101e7366004610e12565b6104c1565b6040516001600160401b039091168152602001610120565b34801561021057600080fd5b5061023361021f366004610e9f565b6001600160a01b0381163014949350505050565b6040519015158152602001610120565b34801561024f57600080fd5b506000546001600160a01b031661017d565b34801561026d57600080fd5b5061028e61027c366004610f05565b60016020526000908152604090205481565b604051908152602001610120565b3480156102a857600080fd5b506101006102b7366004610f20565b6104ca565b6102cf6102ca366004610fe8565b610550565b604051610120919061105e565b3480156102e857600080fd5b506101006102f7366004610f20565b6105d9565b34801561030857600080fd5b5061031c6103173660046110ae565b610617565b604051610120919061113d565b34801561033557600080fd5b50610233610344366004611154565b61065b565b7f00000000000000000000000000000000000000000000000000000000000000006001600160a01b03163314610399576040516391ac5e4f60e01b81523360048201526024015b60405180910390fd5b602087018035906103b3906103ae908a610f05565b610691565b146103f1576103c56020880188610f05565b60405163309afaf360e21b815263ffffffff909116600482015260208801356024820152604401610390565b610400878787878787876106cd565b50505050505050565b6104116106f0565b61041b828261071d565b5050565b6104276106f0565b6104316000610772565b565b6002805461044090611170565b80601f016020809104026020016040519081016040528092919081815260200182805461046c90611170565b80156104b95780601f1061048e576101008083540402835291602001916104b9565b820191906000526020600020905b81548152906001019060200180831161049c57829003601f168201915b505050505081565b60005b92915050565b6104d26106f0565b60405163ca5eb5e160e01b81526001600160a01b0382811660048301527f0000000000000000000000000000000000000000000000000000000000000000169063ca5eb5e190602401600060405180830381600087803b15801561053557600080fd5b505af1158015610549573d6000803e3d6000fd5b5050505050565b610558610c9e565b60008460405160200161056b9190610e8c565b60408051601f198184030181526020601f870181900481028401810190925285835292506105cf9188918491908890889081908401838280828437600092018290525060408051808201909152348152602081019190915292503391506107c29050565b9695505050505050565b6105e16106f0565b6001600160a01b03811661060b57604051631e4fbdf760e01b815260006004820152602401610390565b61061481610772565b50565b604080518082019091526000808252602082015260008460405160200161063e9190610e8c565b60405160208183030381529060405290506105cf868286866108cd565b60006020820180359060019083906106739086610f05565b63ffffffff1681526020810191909152604001600020541492915050565b63ffffffff8116600090815260016020526040812054806104c45760405163f6ff4fb760e01b815263ffffffff84166004820152602401610390565b6106d9848601866111a4565b6002906106e69082611230565b5050505050505050565b6000546001600160a01b031633146104315760405163118cdaa760e01b8152336004820152602401610390565b63ffffffff8216600081815260016020908152604091829020849055815192835282018390527f238399d427b947898edb290f5ff0f9109849b1c3ba196a42e35f00c50a54b98b910160405180910390a15050565b600080546001600160a01b038381166001600160a01b0319831681178455604051919092169283917f8be0079c531659141344cd1fd0a4f28419497f9722a3daafe3b4186f6b6457e09190a35050565b6107ca610c9e565b60006107d984600001516109ae565b6020850151909150156107f3576107f384602001516109d6565b7f00000000000000000000000000000000000000000000000000000000000000006001600160a01b0316632637a450826040518060a001604052808b63ffffffff1681526020016108438c610691565b81526020018a815260200189815260200160008960200151111515815250866040518463ffffffff1660e01b815260040161087f9291906112ef565b60806040518083038185885af115801561089d573d6000803e3d6000fd5b50505050506040513d601f19601f820116820180604052508101906108c291906113b6565b979650505050505050565b60408051808201909152600080825260208201527f00000000000000000000000000000000000000000000000000000000000000006001600160a01b031663ddc28c586040518060a001604052808863ffffffff16815260200161093089610691565b8152602001878152602001868152602001851515815250306040518363ffffffff1660e01b81526004016109659291906112ef565b6040805180830381865afa158015610981573d6000803e3d6000fd5b505050506040513d601f19601f820116820180604052508101906109a59190611427565b95945050505050565b60008134146109d2576040516304fb820960e51b8152346004820152602401610390565b5090565b60007f00000000000000000000000000000000000000000000000000000000000000006001600160a01b031663e4fe1d946040518163ffffffff1660e01b8152600401602060405180830381865afa158015610a36573d6000803e3d6000fd5b505050506040513d601f19601f82011682018060405250810190610a5a9190611443565b90506001600160a01b038116610a83576040516329b99a9560e11b815260040160405180910390fd5b6040805133602482018190527f00000000000000000000000000000000000000000000000000000000000000006001600160a01b03818116604485015260648085018890528551808603909101815260849094019094526020830180516001600160e01b03166323b872dd60e01b17905261041b938516928690610b08908590610b0e565b50505050565b6000610b236001600160a01b03841683610b76565b90508051600014158015610b48575080806020019051810190610b469190611460565b155b15610b7157604051635274afe760e01b81526001600160a01b0384166004820152602401610390565b505050565b6060610b8483836000610b8b565b9392505050565b606081471015610bb05760405163cd78605960e01b8152306004820152602401610390565b600080856001600160a01b03168486604051610bcc919061147d565b60006040518083038185875af1925050503d8060008114610c09576040519150601f19603f3d011682016040523d82523d6000602084013e610c0e565b606091505b50915091506105cf868383606082610c2e57610c2982610c75565b610b84565b8151158015610c4557506001600160a01b0384163b155b15610c6e57604051639996b31560e01b81526001600160a01b0385166004820152602401610390565b5080610b84565b805115610c855780518082602001fd5b604051630a12f52160e11b815260040160405180910390fd5b60405180606001604052806000801916815260200160006001600160401b03168152602001610ce0604051806040016040528060008152602001600081525090565b905290565b600060608284031215610cf757600080fd5b50919050565b60008083601f840112610d0f57600080fd5b5081356001600160401b03811115610d2657600080fd5b602083019150836020828501011115610d3e57600080fd5b9250929050565b6001600160a01b038116811461061457600080fd5b600080600080600080600060e0888a031215610d7557600080fd5b610d7f8989610ce5565b96506060880135955060808801356001600160401b0380821115610da257600080fd5b610dae8b838c01610cfd565b909750955060a08a01359150610dc382610d45565b90935060c08901359080821115610dd957600080fd5b50610de68a828b01610cfd565b989b979a50959850939692959293505050565b803563ffffffff81168114610e0d57600080fd5b919050565b60008060408385031215610e2557600080fd5b610e2e83610df9565b946020939093013593505050565b60005b83811015610e57578181015183820152602001610e3f565b50506000910152565b60008151808452610e78816020860160208601610e3c565b601f01601f19169290920160200192915050565b602081526000610b846020830184610e60565b60008060008060a08587031215610eb557600080fd5b610ebf8686610ce5565b935060608501356001600160401b03811115610eda57600080fd5b610ee687828801610cfd565b9094509250506080850135610efa81610d45565b939692955090935050565b600060208284031215610f1757600080fd5b610b8482610df9565b600060208284031215610f3257600080fd5b8135610b8481610d45565b634e487b7160e01b600052604160045260246000fd5b60006001600160401b0380841115610f6d57610f6d610f3d565b604051601f8501601f19908116603f01168101908282118183101715610f9557610f95610f3d565b81604052809350858152868686011115610fae57600080fd5b858560208301376000602087830101525050509392505050565b600082601f830112610fd957600080fd5b610b8483833560208501610f53565b60008060008060608587031215610ffe57600080fd5b61100785610df9565b935060208501356001600160401b038082111561102357600080fd5b61102f88838901610fc8565b9450604087013591508082111561104557600080fd5b5061105287828801610cfd565b95989497509550505050565b6000608082019050825182526001600160401b0360208401511660208301526040830151611099604084018280518252602090810151910152565b5092915050565b801515811461061457600080fd5b600080600080608085870312156110c457600080fd5b6110cd85610df9565b935060208501356001600160401b03808211156110e957600080fd5b6110f588838901610fc8565b9450604087013591508082111561110b57600080fd5b508501601f8101871361111d57600080fd5b61112c87823560208401610f53565b9250506060850135610efa816110a0565b8151815260208083015190820152604081016104c4565b60006060828403121561116657600080fd5b610b848383610ce5565b600181811c9082168061118457607f821691505b602082108103610cf757634e487b7160e01b600052602260045260246000fd5b6000602082840312156111b657600080fd5b81356001600160401b038111156111cc57600080fd5b6111d884828501610fc8565b949350505050565b601f821115610b71576000816000526020600020601f850160051c810160208610156112095750805b601f850160051c820191505b8181101561122857828155600101611215565b505050505050565b81516001600160401b0381111561124957611249610f3d565b61125d816112578454611170565b846111e0565b602080601f831160018114611292576000841561127a5750858301515b600019600386901b1c1916600185901b178555611228565b600085815260208120601f198616915b828110156112c1578886015182559484019460019091019084016112a2565b50858210156112df5787850151600019600388901b60f8161c191681555b5050505050600190811b01905550565b6040815263ffffffff8351166040820152602083015160608201526000604084015160a0608084015261132560e0840182610e60565b90506060850151603f198483030160a08501526113428282610e60565b60809690960151151560c08501525050506001600160a01b039190911660209091015290565b60006040828403121561137a57600080fd5b604051604081018181106001600160401b038211171561139c5761139c610f3d565b604052825181526020928301519281019290925250919050565b6000608082840312156113c857600080fd5b604051606081016001600160401b0382821081831117156113eb576113eb610f3d565b816040528451835260208501519150808216821461140857600080fd5b50602082015261141b8460408501611368565b60408201529392505050565b60006040828403121561143957600080fd5b610b848383611368565b60006020828403121561145557600080fd5b8151610b8481610d45565b60006020828403121561147257600080fd5b8151610b84816110a0565b6000825161148f818460208701610e3c565b919091019291505056fea2646970667358221220e3e2fb5cdd932b59a19beef54093f75d7717f22119eef5bd3eb168fae778680b64736f6c63430008160033","opcodes":"PUSH1 0xE0 PUSH1 0x40 MSTORE PUSH1 0x15 PUSH1 0xA0 SWAP1 DUP2 MSTORE PUSH32 0x4E6F7468696E67207265636569766564207965742E0000000000000000000000 PUSH1 0xC0 MSTORE PUSH1 0x2 SWAP1 PUSH3 0x3E SWAP1 DUP3 PUSH3 0x241 JUMP JUMPDEST POP CALLVALUE DUP1 ISZERO PUSH3 0x4C JUMPI PUSH1 0x0 DUP1 REVERT JUMPDEST POP PUSH1 0x40 MLOAD PUSH3 0x1877 CODESIZE SUB DUP1 PUSH3 0x1877 DUP4 CODECOPY DUP2 ADD PUSH1 0x40 DUP2 SWAP1 MSTORE PUSH3 0x6F SWAP2 PUSH3 0x32A JUMP JUMPDEST DUP2 DUP2 DUP2 DUP2 DUP1 PUSH1 0x1 PUSH1 0x1 PUSH1 0xA0 SHL SUB DUP2 AND PUSH3 0xA3 JUMPI PUSH1 0x40 MLOAD PUSH4 0x1E4FBDF7 PUSH1 0xE0 SHL DUP2 MSTORE PUSH1 0x0 PUSH1 0x4 DUP3 ADD MSTORE PUSH1 0x24 ADD PUSH1 0x40 MLOAD DUP1 SWAP2 SUB SWAP1 REVERT JUMPDEST PUSH3 0xAE DUP2 PUSH3 0x14A JUMP JUMPDEST POP PUSH1 0x1 PUSH1 0x1 PUSH1 0xA0 SHL SUB DUP1 DUP4 AND PUSH1 0x80 MSTORE DUP2 AND PUSH3 0xDD JUMPI PUSH1 0x40 MLOAD PUSH4 0x2D618D81 PUSH1 0xE2 SHL DUP2 MSTORE PUSH1 0x4 ADD PUSH1 0x40 MLOAD DUP1 SWAP2 SUB SWAP1 REVERT JUMPDEST PUSH1 0x80 MLOAD PUSH1 0x40 MLOAD PUSH4 0xCA5EB5E1 PUSH1 0xE0 SHL DUP2 MSTORE PUSH1 0x1 PUSH1 0x1 PUSH1 0xA0 SHL SUB DUP4 DUP2 AND PUSH1 0x4 DUP4 ADD MSTORE SWAP1 SWAP2 AND SWAP1 PUSH4 0xCA5EB5E1 SWAP1 PUSH1 0x24 ADD PUSH1 0x0 PUSH1 0x40 MLOAD DUP1 DUP4 SUB DUP2 PUSH1 0x0 DUP8 DUP1 EXTCODESIZE ISZERO DUP1 ISZERO PUSH3 0x125 JUMPI PUSH1 0x0 DUP1 REVERT JUMPDEST POP GAS CALL ISZERO DUP1 ISZERO PUSH3 0x13A JUMPI RETURNDATASIZE PUSH1 0x0 DUP1 RETURNDATACOPY RETURNDATASIZE PUSH1 0x0 REVERT JUMPDEST POP POP POP POP POP POP POP POP POP POP PUSH3 0x362 JUMP JUMPDEST PUSH1 0x0 DUP1 SLOAD PUSH1 0x1 PUSH1 0x1 PUSH1 0xA0 SHL SUB DUP4 DUP2 AND PUSH1 0x1 PUSH1 0x1 PUSH1 0xA0 SHL SUB NOT DUP4 AND DUP2 OR DUP5 SSTORE PUSH1 0x40 MLOAD SWAP2 SWAP1 SWAP3 AND SWAP3 DUP4 SWAP2 PUSH32 0x8BE0079C531659141344CD1FD0A4F28419497F9722A3DAAFE3B4186F6B6457E0 SWAP2 SWAP1 LOG3 POP POP JUMP JUMPDEST PUSH4 0x4E487B71 PUSH1 0xE0 SHL PUSH1 0x0 MSTORE PUSH1 0x41 PUSH1 0x4 MSTORE PUSH1 0x24 PUSH1 0x0 REVERT JUMPDEST PUSH1 0x1 DUP2 DUP2 SHR SWAP1 DUP3 AND DUP1 PUSH3 0x1C5 JUMPI PUSH1 0x7F DUP3 AND SWAP2 POP JUMPDEST PUSH1 0x20 DUP3 LT DUP2 SUB PUSH3 0x1E6 JUMPI PUSH4 0x4E487B71 PUSH1 0xE0 SHL PUSH1 0x0 MSTORE PUSH1 0x22 PUSH1 0x4 MSTORE PUSH1 0x24 PUSH1 0x0 REVERT JUMPDEST POP SWAP2 SWAP1 POP JUMP JUMPDEST PUSH1 0x1F DUP3 GT ISZERO PUSH3 0x23C JUMPI PUSH1 0x0 DUP2 PUSH1 0x0 MSTORE PUSH1 0x20 PUSH1 0x0 KECCAK256 PUSH1 0x1F DUP6 ADD PUSH1 0x5 SHR DUP2 ADD PUSH1 0x20 DUP7 LT ISZERO PUSH3 0x217 JUMPI POP DUP1 JUMPDEST PUSH1 0x1F DUP6 ADD PUSH1 0x5 SHR DUP3 ADD SWAP2 POP JUMPDEST DUP2 DUP2 LT ISZERO PUSH3 0x238 JUMPI DUP3 DUP2 SSTORE PUSH1 0x1 ADD PUSH3 0x223 JUMP JUMPDEST POP POP POP JUMPDEST POP POP POP JUMP JUMPDEST DUP2 MLOAD PUSH1 0x1 PUSH1 0x1 PUSH1 0x40 SHL SUB DUP2 GT ISZERO PUSH3 0x25D JUMPI PUSH3 0x25D PUSH3 0x19A JUMP JUMPDEST PUSH3 0x275 DUP2 PUSH3 0x26E DUP5 SLOAD PUSH3 0x1B0 JUMP JUMPDEST DUP5 PUSH3 0x1EC JUMP JUMPDEST PUSH1 0x20 DUP1 PUSH1 0x1F DUP4 GT PUSH1 0x1 DUP2 EQ PUSH3 0x2AD JUMPI PUSH1 0x0 DUP5 ISZERO PUSH3 0x294 JUMPI POP DUP6 DUP4 ADD MLOAD JUMPDEST PUSH1 0x0 NOT PUSH1 0x3 DUP7 SWAP1 SHL SHR NOT AND PUSH1 0x1 DUP6 SWAP1 SHL OR DUP6 SSTORE PUSH3 0x238 JUMP JUMPDEST PUSH1 0x0 DUP6 DUP2 MSTORE PUSH1 0x20 DUP2 KECCAK256 PUSH1 0x1F NOT DUP7 AND SWAP2 JUMPDEST DUP3 DUP2 LT ISZERO PUSH3 0x2DE JUMPI DUP9 DUP7 ADD MLOAD DUP3 SSTORE SWAP5 DUP5 ADD SWAP5 PUSH1 0x1 SWAP1 SWAP2 ADD SWAP1 DUP5 ADD PUSH3 0x2BD JUMP JUMPDEST POP DUP6 DUP3 LT ISZERO PUSH3 0x2FD JUMPI DUP8 DUP6 ADD MLOAD PUSH1 0x0 NOT PUSH1 0x3 DUP9 SWAP1 SHL PUSH1 0xF8 AND SHR NOT AND DUP2 SSTORE JUMPDEST POP POP POP POP POP PUSH1 0x1 SWAP1 DUP2 SHL ADD SWAP1 SSTORE POP JUMP JUMPDEST DUP1 MLOAD PUSH1 0x1 PUSH1 0x1 PUSH1 0xA0 SHL SUB DUP2 AND DUP2 EQ PUSH3 0x325 JUMPI PUSH1 0x0 DUP1 REVERT JUMPDEST SWAP2 SWAP1 POP JUMP JUMPDEST PUSH1 0x0 DUP1 PUSH1 0x40 DUP4 DUP6 SUB SLT ISZERO PUSH3 0x33E JUMPI PUSH1 0x0 DUP1 REVERT JUMPDEST PUSH3 0x349 DUP4 PUSH3 0x30D JUMP JUMPDEST SWAP2 POP PUSH3 0x359 PUSH1 0x20 DUP5 ADD PUSH3 0x30D JUMP JUMPDEST SWAP1 POP SWAP3 POP SWAP3 SWAP1 POP JUMP JUMPDEST PUSH1 0x80 MLOAD PUSH2 0x14CF PUSH3 0x3A8 PUSH1 0x0 CODECOPY PUSH1 0x0 DUP2 DUP2 PUSH2 0x15B ADD MSTORE DUP2 DUP2 PUSH2 0x34B ADD MSTORE DUP2 DUP2 PUSH2 0x4F1 ADD MSTORE DUP2 DUP2 PUSH2 0x7F5 ADD MSTORE DUP2 DUP2 PUSH2 0x8E3 ADD MSTORE DUP2 DUP2 PUSH2 0x9DA ADD MSTORE PUSH2 0xA91 ADD MSTORE PUSH2 0x14CF PUSH1 0x0 RETURN INVALID PUSH1 0x80 PUSH1 0x40 MSTORE PUSH1 0x4 CALLDATASIZE LT PUSH2 0xE8 JUMPI PUSH1 0x0 CALLDATALOAD PUSH1 0xE0 SHR DUP1 PUSH4 0x82413EAC GT PUSH2 0x8A JUMPI DUP1 PUSH4 0xE0539E58 GT PUSH2 0x59 JUMPI DUP1 PUSH4 0xE0539E58 EQ PUSH2 0x2BC JUMPI DUP1 PUSH4 0xF2FDE38B EQ PUSH2 0x2DC JUMPI DUP1 PUSH4 0xF77E5DD3 EQ PUSH2 0x2FC JUMPI DUP1 PUSH4 0xFF7BD03D EQ PUSH2 0x329 JUMPI PUSH1 0x0 DUP1 REVERT JUMPDEST DUP1 PUSH4 0x82413EAC EQ PUSH2 0x204 JUMPI DUP1 PUSH4 0x8DA5CB5B EQ PUSH2 0x243 JUMPI DUP1 PUSH4 0xBB0B6A53 EQ PUSH2 0x261 JUMPI DUP1 PUSH4 0xCA5EB5E1 EQ PUSH2 0x29C JUMPI PUSH1 0x0 DUP1 REVERT JUMPDEST DUP1 PUSH4 0x5E280F11 GT PUSH2 0xC6 JUMPI DUP1 PUSH4 0x5E280F11 EQ PUSH2 0x149 JUMPI DUP1 PUSH4 0x715018A6 EQ PUSH2 0x195 JUMPI DUP1 PUSH4 0x73D4A13A EQ PUSH2 0x1AA JUMPI DUP1 PUSH4 0x7D25A05E EQ PUSH2 0x1CC JUMPI PUSH1 0x0 DUP1 REVERT JUMPDEST DUP1 PUSH4 0x13137D65 EQ PUSH2 0xED JUMPI DUP1 PUSH4 0x17442B70 EQ PUSH2 0x102 JUMPI DUP1 PUSH4 0x3400288B EQ PUSH2 0x129 JUMPI JUMPDEST PUSH1 0x0 DUP1 REVERT JUMPDEST PUSH2 0x100 PUSH2 0xFB CALLDATASIZE PUSH1 0x4 PUSH2 0xD5A JUMP JUMPDEST PUSH2 0x349 JUMP JUMPDEST STOP JUMPDEST CALLVALUE DUP1 ISZERO PUSH2 0x10E JUMPI PUSH1 0x0 DUP1 REVERT JUMPDEST POP PUSH1 0x40 DUP1 MLOAD PUSH1 0x1 DUP2 MSTORE PUSH1 0x2 PUSH1 0x20 DUP3 ADD MSTORE ADD JUMPDEST PUSH1 0x40 MLOAD DUP1 SWAP2 SUB SWAP1 RETURN JUMPDEST CALLVALUE DUP1 ISZERO PUSH2 0x135 JUMPI PUSH1 0x0 DUP1 REVERT JUMPDEST POP PUSH2 0x100 PUSH2 0x144 CALLDATASIZE PUSH1 0x4 PUSH2 0xE12 JUMP JUMPDEST PUSH2 0x409 JUMP JUMPDEST CALLVALUE DUP1 ISZERO PUSH2 0x155 JUMPI PUSH1 0x0 DUP1 REVERT JUMPDEST POP PUSH2 0x17D PUSH32 0x0 DUP2 JUMP JUMPDEST PUSH1 0x40 MLOAD PUSH1 0x1 PUSH1 0x1 PUSH1 0xA0 SHL SUB SWAP1 SWAP2 AND DUP2 MSTORE PUSH1 0x20 ADD PUSH2 0x120 JUMP JUMPDEST CALLVALUE DUP1 ISZERO PUSH2 0x1A1 JUMPI PUSH1 0x0 DUP1 REVERT JUMPDEST POP PUSH2 0x100 PUSH2 0x41F JUMP JUMPDEST CALLVALUE DUP1 ISZERO PUSH2 0x1B6 JUMPI PUSH1 0x0 DUP1 REVERT JUMPDEST POP PUSH2 0x1BF PUSH2 0x433 JUMP JUMPDEST PUSH1 0x40 MLOAD PUSH2 0x120 SWAP2 SWAP1 PUSH2 0xE8C JUMP JUMPDEST CALLVALUE DUP1 ISZERO PUSH2 0x1D8 JUMPI PUSH1 0x0 DUP1 REVERT JUMPDEST POP PUSH2 0x1EC PUSH2 0x1E7 CALLDATASIZE PUSH1 0x4 PUSH2 0xE12 JUMP JUMPDEST PUSH2 0x4C1 JUMP JUMPDEST PUSH1 0x40 MLOAD PUSH1 0x1 PUSH1 0x1 PUSH1 0x40 SHL SUB SWAP1 SWAP2 AND DUP2 MSTORE PUSH1 0x20 ADD PUSH2 0x120 JUMP JUMPDEST CALLVALUE DUP1 ISZERO PUSH2 0x210 JUMPI PUSH1 0x0 DUP1 REVERT JUMPDEST POP PUSH2 0x233 PUSH2 0x21F CALLDATASIZE PUSH1 0x4 PUSH2 0xE9F JUMP JUMPDEST PUSH1 0x1 PUSH1 0x1 PUSH1 0xA0 SHL SUB DUP2 AND ADDRESS EQ SWAP5 SWAP4 POP POP POP POP JUMP JUMPDEST PUSH1 0x40 MLOAD SWAP1 ISZERO ISZERO DUP2 MSTORE PUSH1 0x20 ADD PUSH2 0x120 JUMP JUMPDEST CALLVALUE DUP1 ISZERO PUSH2 0x24F JUMPI PUSH1 0x0 DUP1 REVERT JUMPDEST POP PUSH1 0x0 SLOAD PUSH1 0x1 PUSH1 0x1 PUSH1 0xA0 SHL SUB AND PUSH2 0x17D JUMP JUMPDEST CALLVALUE DUP1 ISZERO PUSH2 0x26D JUMPI PUSH1 0x0 DUP1 REVERT JUMPDEST POP PUSH2 0x28E PUSH2 0x27C CALLDATASIZE PUSH1 0x4 PUSH2 0xF05 JUMP JUMPDEST PUSH1 0x1 PUSH1 0x20 MSTORE PUSH1 0x0 SWAP1 DUP2 MSTORE PUSH1 0x40 SWAP1 KECCAK256 SLOAD DUP2 JUMP JUMPDEST PUSH1 0x40 MLOAD SWAP1 DUP2 MSTORE PUSH1 0x20 ADD PUSH2 0x120 JUMP JUMPDEST CALLVALUE DUP1 ISZERO PUSH2 0x2A8 JUMPI PUSH1 0x0 DUP1 REVERT JUMPDEST POP PUSH2 0x100 PUSH2 0x2B7 CALLDATASIZE PUSH1 0x4 PUSH2 0xF20 JUMP JUMPDEST PUSH2 0x4CA JUMP JUMPDEST PUSH2 0x2CF PUSH2 0x2CA CALLDATASIZE PUSH1 0x4 PUSH2 0xFE8 JUMP JUMPDEST PUSH2 0x550 JUMP JUMPDEST PUSH1 0x40 MLOAD PUSH2 0x120 SWAP2 SWAP1 PUSH2 0x105E JUMP JUMPDEST CALLVALUE DUP1 ISZERO PUSH2 0x2E8 JUMPI PUSH1 0x0 DUP1 REVERT JUMPDEST POP PUSH2 0x100 PUSH2 0x2F7 CALLDATASIZE PUSH1 0x4 PUSH2 0xF20 JUMP JUMPDEST PUSH2 0x5D9 JUMP JUMPDEST CALLVALUE DUP1 ISZERO PUSH2 0x308 JUMPI PUSH1 0x0 DUP1 REVERT JUMPDEST POP PUSH2 0x31C PUSH2 0x317 CALLDATASIZE PUSH1 0x4 PUSH2 0x10AE JUMP JUMPDEST PUSH2 0x617 JUMP JUMPDEST PUSH1 0x40 MLOAD PUSH2 0x120 SWAP2 SWAP1 PUSH2 0x113D JUMP JUMPDEST CALLVALUE DUP1 ISZERO PUSH2 0x335 JUMPI PUSH1 0x0 DUP1 REVERT JUMPDEST POP PUSH2 0x233 PUSH2 0x344 CALLDATASIZE PUSH1 0x4 PUSH2 0x1154 JUMP JUMPDEST PUSH2 0x65B JUMP JUMPDEST PUSH32 0x0 PUSH1 0x1 PUSH1 0x1 PUSH1 0xA0 SHL SUB AND CALLER EQ PUSH2 0x399 JUMPI PUSH1 0x40 MLOAD PUSH4 0x91AC5E4F PUSH1 0xE0 SHL DUP2 MSTORE CALLER PUSH1 0x4 DUP3 ADD MSTORE PUSH1 0x24 ADD JUMPDEST PUSH1 0x40 MLOAD DUP1 SWAP2 SUB SWAP1 REVERT JUMPDEST PUSH1 0x20 DUP8 ADD DUP1 CALLDATALOAD SWAP1 PUSH2 0x3B3 SWAP1 PUSH2 0x3AE SWAP1 DUP11 PUSH2 0xF05 JUMP JUMPDEST PUSH2 0x691 JUMP JUMPDEST EQ PUSH2 0x3F1 JUMPI PUSH2 0x3C5 PUSH1 0x20 DUP9 ADD DUP9 PUSH2 0xF05 JUMP JUMPDEST PUSH1 0x40 MLOAD PUSH4 0x309AFAF3 PUSH1 0xE2 SHL DUP2 MSTORE PUSH4 0xFFFFFFFF SWAP1 SWAP2 AND PUSH1 0x4 DUP3 ADD MSTORE PUSH1 0x20 DUP9 ADD CALLDATALOAD PUSH1 0x24 DUP3 ADD MSTORE PUSH1 0x44 ADD PUSH2 0x390 JUMP JUMPDEST PUSH2 0x400 DUP8 DUP8 DUP8 DUP8 DUP8 DUP8 DUP8 PUSH2 0x6CD JUMP JUMPDEST POP POP POP POP POP POP POP JUMP JUMPDEST PUSH2 0x411 PUSH2 0x6F0 JUMP JUMPDEST PUSH2 0x41B DUP3 DUP3 PUSH2 0x71D JUMP JUMPDEST POP POP JUMP JUMPDEST PUSH2 0x427 PUSH2 0x6F0 JUMP JUMPDEST PUSH2 0x431 PUSH1 0x0 PUSH2 0x772 JUMP JUMPDEST JUMP JUMPDEST PUSH1 0x2 DUP1 SLOAD PUSH2 0x440 SWAP1 PUSH2 0x1170 JUMP JUMPDEST DUP1 PUSH1 0x1F ADD PUSH1 0x20 DUP1 SWAP2 DIV MUL PUSH1 0x20 ADD PUSH1 0x40 MLOAD SWAP1 DUP2 ADD PUSH1 0x40 MSTORE DUP1 SWAP3 SWAP2 SWAP1 DUP2 DUP2 MSTORE PUSH1 0x20 ADD DUP3 DUP1 SLOAD PUSH2 0x46C SWAP1 PUSH2 0x1170 JUMP JUMPDEST DUP1 ISZERO PUSH2 0x4B9 JUMPI DUP1 PUSH1 0x1F LT PUSH2 0x48E JUMPI PUSH2 0x100 DUP1 DUP4 SLOAD DIV MUL DUP4 MSTORE SWAP2 PUSH1 0x20 ADD SWAP2 PUSH2 0x4B9 JUMP JUMPDEST DUP3 ADD SWAP2 SWAP1 PUSH1 0x0 MSTORE PUSH1 0x20 PUSH1 0x0 KECCAK256 SWAP1 JUMPDEST DUP2 SLOAD DUP2 MSTORE SWAP1 PUSH1 0x1 ADD SWAP1 PUSH1 0x20 ADD DUP1 DUP4 GT PUSH2 0x49C JUMPI DUP3 SWAP1 SUB PUSH1 0x1F AND DUP3 ADD SWAP2 JUMPDEST POP POP POP POP POP DUP2 JUMP JUMPDEST PUSH1 0x0 JUMPDEST SWAP3 SWAP2 POP POP JUMP JUMPDEST PUSH2 0x4D2 PUSH2 0x6F0 JUMP JUMPDEST PUSH1 0x40 MLOAD PUSH4 0xCA5EB5E1 PUSH1 0xE0 SHL DUP2 MSTORE PUSH1 0x1 PUSH1 0x1 PUSH1 0xA0 SHL SUB DUP3 DUP2 AND PUSH1 0x4 DUP4 ADD MSTORE PUSH32 0x0 AND SWAP1 PUSH4 0xCA5EB5E1 SWAP1 PUSH1 0x24 ADD PUSH1 0x0 PUSH1 0x40 MLOAD DUP1 DUP4 SUB DUP2 PUSH1 0x0 DUP8 DUP1 EXTCODESIZE ISZERO DUP1 ISZERO PUSH2 0x535 JUMPI PUSH1 0x0 DUP1 REVERT JUMPDEST POP GAS CALL ISZERO DUP1 ISZERO PUSH2 0x549 JUMPI RETURNDATASIZE PUSH1 0x0 DUP1 RETURNDATACOPY RETURNDATASIZE PUSH1 0x0 REVERT JUMPDEST POP POP POP POP POP JUMP JUMPDEST PUSH2 0x558 PUSH2 0xC9E JUMP JUMPDEST PUSH1 0x0 DUP5 PUSH1 0x40 MLOAD PUSH1 0x20 ADD PUSH2 0x56B SWAP2 SWAP1 PUSH2 0xE8C JUMP JUMPDEST PUSH1 0x40 DUP1 MLOAD PUSH1 0x1F NOT DUP2 DUP5 SUB ADD DUP2 MSTORE PUSH1 0x20 PUSH1 0x1F DUP8 ADD DUP2 SWAP1 DIV DUP2 MUL DUP5 ADD DUP2 ADD SWAP1 SWAP3 MSTORE DUP6 DUP4 MSTORE SWAP3 POP PUSH2 0x5CF SWAP2 DUP9 SWAP2 DUP5 SWAP2 SWAP1 DUP9 SWAP1 DUP9 SWAP1 DUP2 SWAP1 DUP5 ADD DUP4 DUP3 DUP1 DUP3 DUP5 CALLDATACOPY PUSH1 0x0 SWAP3 ADD DUP3 SWAP1 MSTORE POP PUSH1 0x40 DUP1 MLOAD DUP1 DUP3 ADD SWAP1 SWAP2 MSTORE CALLVALUE DUP2 MSTORE PUSH1 0x20 DUP2 ADD SWAP2 SWAP1 SWAP2 MSTORE SWAP3 POP CALLER SWAP2 POP PUSH2 0x7C2 SWAP1 POP JUMP JUMPDEST SWAP7 SWAP6 POP POP POP POP POP POP JUMP JUMPDEST PUSH2 0x5E1 PUSH2 0x6F0 JUMP JUMPDEST PUSH1 0x1 PUSH1 0x1 PUSH1 0xA0 SHL SUB DUP2 AND PUSH2 0x60B JUMPI PUSH1 0x40 MLOAD PUSH4 0x1E4FBDF7 PUSH1 0xE0 SHL DUP2 MSTORE PUSH1 0x0 PUSH1 0x4 DUP3 ADD MSTORE PUSH1 0x24 ADD PUSH2 0x390 JUMP JUMPDEST PUSH2 0x614 DUP2 PUSH2 0x772 JUMP JUMPDEST POP JUMP JUMPDEST PUSH1 0x40 DUP1 MLOAD DUP1 DUP3 ADD SWAP1 SWAP2 MSTORE PUSH1 0x0 DUP1 DUP3 MSTORE PUSH1 0x20 DUP3 ADD MSTORE PUSH1 0x0 DUP5 PUSH1 0x40 MLOAD PUSH1 0x20 ADD PUSH2 0x63E SWAP2 SWAP1 PUSH2 0xE8C JUMP JUMPDEST PUSH1 0x40 MLOAD PUSH1 0x20 DUP2 DUP4 SUB SUB DUP2 MSTORE SWAP1 PUSH1 0x40 MSTORE SWAP1 POP PUSH2 0x5CF DUP7 DUP3 DUP7 DUP7 PUSH2 0x8CD JUMP JUMPDEST PUSH1 0x0 PUSH1 0x20 DUP3 ADD DUP1 CALLDATALOAD SWAP1 PUSH1 0x1 SWAP1 DUP4 SWAP1 PUSH2 0x673 SWAP1 DUP7 PUSH2 0xF05 JUMP JUMPDEST PUSH4 0xFFFFFFFF AND DUP2 MSTORE PUSH1 0x20 DUP2 ADD SWAP2 SWAP1 SWAP2 MSTORE PUSH1 0x40 ADD PUSH1 0x0 KECCAK256 SLOAD EQ SWAP3 SWAP2 POP POP JUMP JUMPDEST PUSH4 0xFFFFFFFF DUP2 AND PUSH1 0x0 SWAP1 DUP2 MSTORE PUSH1 0x1 PUSH1 0x20 MSTORE PUSH1 0x40 DUP2 KECCAK256 SLOAD DUP1 PUSH2 0x4C4 JUMPI PUSH1 0x40 MLOAD PUSH4 0xF6FF4FB7 PUSH1 0xE0 SHL DUP2 MSTORE PUSH4 0xFFFFFFFF DUP5 AND PUSH1 0x4 DUP3 ADD MSTORE PUSH1 0x24 ADD PUSH2 0x390 JUMP JUMPDEST PUSH2 0x6D9 DUP5 DUP7 ADD DUP7 PUSH2 0x11A4 JUMP JUMPDEST PUSH1 0x2 SWAP1 PUSH2 0x6E6 SWAP1 DUP3 PUSH2 0x1230 JUMP JUMPDEST POP POP POP POP POP POP POP POP JUMP JUMPDEST PUSH1 0x0 SLOAD PUSH1 0x1 PUSH1 0x1 PUSH1 0xA0 SHL SUB AND CALLER EQ PUSH2 0x431 JUMPI PUSH1 0x40 MLOAD PUSH4 0x118CDAA7 PUSH1 0xE0 SHL DUP2 MSTORE CALLER PUSH1 0x4 DUP3 ADD MSTORE PUSH1 0x24 ADD PUSH2 0x390 JUMP JUMPDEST PUSH4 0xFFFFFFFF DUP3 AND PUSH1 0x0 DUP2 DUP2 MSTORE PUSH1 0x1 PUSH1 0x20 SWAP1 DUP2 MSTORE PUSH1 0x40 SWAP2 DUP3 SWAP1 KECCAK256 DUP5 SWAP1 SSTORE DUP2 MLOAD SWAP3 DUP4 MSTORE DUP3 ADD DUP4 SWAP1 MSTORE PUSH32 0x238399D427B947898EDB290F5FF0F9109849B1C3BA196A42E35F00C50A54B98B SWAP2 ADD PUSH1 0x40 MLOAD DUP1 SWAP2 SUB SWAP1 LOG1 POP POP JUMP JUMPDEST PUSH1 0x0 DUP1 SLOAD PUSH1 0x1 PUSH1 0x1 PUSH1 0xA0 SHL SUB DUP4 DUP2 AND PUSH1 0x1 PUSH1 0x1 PUSH1 0xA0 SHL SUB NOT DUP4 AND DUP2 OR DUP5 SSTORE PUSH1 0x40 MLOAD SWAP2 SWAP1 SWAP3 AND SWAP3 DUP4 SWAP2 PUSH32 0x8BE0079C531659141344CD1FD0A4F28419497F9722A3DAAFE3B4186F6B6457E0 SWAP2 SWAP1 LOG3 POP POP JUMP JUMPDEST PUSH2 0x7CA PUSH2 0xC9E JUMP JUMPDEST PUSH1 0x0 PUSH2 0x7D9 DUP5 PUSH1 0x0 ADD MLOAD PUSH2 0x9AE JUMP JUMPDEST PUSH1 0x20 DUP6 ADD MLOAD SWAP1 SWAP2 POP ISZERO PUSH2 0x7F3 JUMPI PUSH2 0x7F3 DUP5 PUSH1 0x20 ADD MLOAD PUSH2 0x9D6 JUMP JUMPDEST PUSH32 0x0 PUSH1 0x1 PUSH1 0x1 PUSH1 0xA0 SHL SUB AND PUSH4 0x2637A450 DUP3 PUSH1 0x40 MLOAD DUP1 PUSH1 0xA0 ADD PUSH1 0x40 MSTORE DUP1 DUP12 PUSH4 0xFFFFFFFF AND DUP2 MSTORE PUSH1 0x20 ADD PUSH2 0x843 DUP13 PUSH2 0x691 JUMP JUMPDEST DUP2 MSTORE PUSH1 0x20 ADD DUP11 DUP2 MSTORE PUSH1 0x20 ADD DUP10 DUP2 MSTORE PUSH1 0x20 ADD PUSH1 0x0 DUP10 PUSH1 0x20 ADD MLOAD GT ISZERO ISZERO DUP2 MSTORE POP DUP7 PUSH1 0x40 MLOAD DUP5 PUSH4 0xFFFFFFFF AND PUSH1 0xE0 SHL DUP2 MSTORE PUSH1 0x4 ADD PUSH2 0x87F SWAP3 SWAP2 SWAP1 PUSH2 0x12EF JUMP JUMPDEST PUSH1 0x80 PUSH1 0x40 MLOAD DUP1 DUP4 SUB DUP2 DUP6 DUP9 GAS CALL ISZERO DUP1 ISZERO PUSH2 0x89D JUMPI RETURNDATASIZE PUSH1 0x0 DUP1 RETURNDATACOPY RETURNDATASIZE PUSH1 0x0 REVERT JUMPDEST POP POP POP POP POP PUSH1 0x40 MLOAD RETURNDATASIZE PUSH1 0x1F NOT PUSH1 0x1F DUP3 ADD AND DUP3 ADD DUP1 PUSH1 0x40 MSTORE POP DUP2 ADD SWAP1 PUSH2 0x8C2 SWAP2 SWAP1 PUSH2 0x13B6 JUMP JUMPDEST SWAP8 SWAP7 POP POP POP POP POP POP POP JUMP JUMPDEST PUSH1 0x40 DUP1 MLOAD DUP1 DUP3 ADD SWAP1 SWAP2 MSTORE PUSH1 0x0 DUP1 DUP3 MSTORE PUSH1 0x20 DUP3 ADD MSTORE PUSH32 0x0 PUSH1 0x1 PUSH1 0x1 PUSH1 0xA0 SHL SUB AND PUSH4 0xDDC28C58 PUSH1 0x40 MLOAD DUP1 PUSH1 0xA0 ADD PUSH1 0x40 MSTORE DUP1 DUP9 PUSH4 0xFFFFFFFF AND DUP2 MSTORE PUSH1 0x20 ADD PUSH2 0x930 DUP10 PUSH2 0x691 JUMP JUMPDEST DUP2 MSTORE PUSH1 0x20 ADD DUP8 DUP2 MSTORE PUSH1 0x20 ADD DUP7 DUP2 MSTORE PUSH1 0x20 ADD DUP6 ISZERO ISZERO DUP2 MSTORE POP ADDRESS PUSH1 0x40 MLOAD DUP4 PUSH4 0xFFFFFFFF AND PUSH1 0xE0 SHL DUP2 MSTORE PUSH1 0x4 ADD PUSH2 0x965 SWAP3 SWAP2 SWAP1 PUSH2 0x12EF JUMP JUMPDEST PUSH1 0x40 DUP1 MLOAD DUP1 DUP4 SUB DUP2 DUP7 GAS STATICCALL ISZERO DUP1 ISZERO PUSH2 0x981 JUMPI RETURNDATASIZE PUSH1 0x0 DUP1 RETURNDATACOPY RETURNDATASIZE PUSH1 0x0 REVERT JUMPDEST POP POP POP POP PUSH1 0x40 MLOAD RETURNDATASIZE PUSH1 0x1F NOT PUSH1 0x1F DUP3 ADD AND DUP3 ADD DUP1 PUSH1 0x40 MSTORE POP DUP2 ADD SWAP1 PUSH2 0x9A5 SWAP2 SWAP1 PUSH2 0x1427 JUMP JUMPDEST SWAP6 SWAP5 POP POP POP POP POP JUMP JUMPDEST PUSH1 0x0 DUP2 CALLVALUE EQ PUSH2 0x9D2 JUMPI PUSH1 0x40 MLOAD PUSH4 0x4FB8209 PUSH1 0xE5 SHL DUP2 MSTORE CALLVALUE PUSH1 0x4 DUP3 ADD MSTORE PUSH1 0x24 ADD PUSH2 0x390 JUMP JUMPDEST POP SWAP1 JUMP JUMPDEST PUSH1 0x0 PUSH32 0x0 PUSH1 0x1 PUSH1 0x1 PUSH1 0xA0 SHL SUB AND PUSH4 0xE4FE1D94 PUSH1 0x40 MLOAD DUP2 PUSH4 0xFFFFFFFF AND PUSH1 0xE0 SHL DUP2 MSTORE PUSH1 0x4 ADD PUSH1 0x20 PUSH1 0x40 MLOAD DUP1 DUP4 SUB DUP2 DUP7 GAS STATICCALL ISZERO DUP1 ISZERO PUSH2 0xA36 JUMPI RETURNDATASIZE PUSH1 0x0 DUP1 RETURNDATACOPY RETURNDATASIZE PUSH1 0x0 REVERT JUMPDEST POP POP POP POP PUSH1 0x40 MLOAD RETURNDATASIZE PUSH1 0x1F NOT PUSH1 0x1F DUP3 ADD AND DUP3 ADD DUP1 PUSH1 0x40 MSTORE POP DUP2 ADD SWAP1 PUSH2 0xA5A SWAP2 SWAP1 PUSH2 0x1443 JUMP JUMPDEST SWAP1 POP PUSH1 0x1 PUSH1 0x1 PUSH1 0xA0 SHL SUB DUP2 AND PUSH2 0xA83 JUMPI PUSH1 0x40 MLOAD PUSH4 0x29B99A95 PUSH1 0xE1 SHL DUP2 MSTORE PUSH1 0x4 ADD PUSH1 0x40 MLOAD DUP1 SWAP2 SUB SWAP1 REVERT JUMPDEST PUSH1 0x40 DUP1 MLOAD CALLER PUSH1 0x24 DUP3 ADD DUP2 SWAP1 MSTORE PUSH32 0x0 PUSH1 0x1 PUSH1 0x1 PUSH1 0xA0 SHL SUB DUP2 DUP2 AND PUSH1 0x44 DUP6 ADD MSTORE PUSH1 0x64 DUP1 DUP6 ADD DUP9 SWAP1 MSTORE DUP6 MLOAD DUP1 DUP7 SUB SWAP1 SWAP2 ADD DUP2 MSTORE PUSH1 0x84 SWAP1 SWAP5 ADD SWAP1 SWAP5 MSTORE PUSH1 0x20 DUP4 ADD DUP1 MLOAD PUSH1 0x1 PUSH1 0x1 PUSH1 0xE0 SHL SUB AND PUSH4 0x23B872DD PUSH1 0xE0 SHL OR SWAP1 MSTORE PUSH2 0x41B SWAP4 DUP6 AND SWAP3 DUP7 SWAP1 PUSH2 0xB08 SWAP1 DUP6 SWAP1 PUSH2 0xB0E JUMP JUMPDEST POP POP POP POP JUMP JUMPDEST PUSH1 0x0 PUSH2 0xB23 PUSH1 0x1 PUSH1 0x1 PUSH1 0xA0 SHL SUB DUP5 AND DUP4 PUSH2 0xB76 JUMP JUMPDEST SWAP1 POP DUP1 MLOAD PUSH1 0x0 EQ ISZERO DUP1 ISZERO PUSH2 0xB48 JUMPI POP DUP1 DUP1 PUSH1 0x20 ADD SWAP1 MLOAD DUP2 ADD SWAP1 PUSH2 0xB46 SWAP2 SWAP1 PUSH2 0x1460 JUMP JUMPDEST ISZERO JUMPDEST ISZERO PUSH2 0xB71 JUMPI PUSH1 0x40 MLOAD PUSH4 0x5274AFE7 PUSH1 0xE0 SHL DUP2 MSTORE PUSH1 0x1 PUSH1 0x1 PUSH1 0xA0 SHL SUB DUP5 AND PUSH1 0x4 DUP3 ADD MSTORE PUSH1 0x24 ADD PUSH2 0x390 JUMP JUMPDEST POP POP POP JUMP JUMPDEST PUSH1 0x60 PUSH2 0xB84 DUP4 DUP4 PUSH1 0x0 PUSH2 0xB8B JUMP JUMPDEST SWAP4 SWAP3 POP POP POP JUMP JUMPDEST PUSH1 0x60 DUP2 SELFBALANCE LT ISZERO PUSH2 0xBB0 JUMPI PUSH1 0x40 MLOAD PUSH4 0xCD786059 PUSH1 0xE0 SHL DUP2 MSTORE ADDRESS PUSH1 0x4 DUP3 ADD MSTORE PUSH1 0x24 ADD PUSH2 0x390 JUMP JUMPDEST PUSH1 0x0 DUP1 DUP6 PUSH1 0x1 PUSH1 0x1 PUSH1 0xA0 SHL SUB AND DUP5 DUP7 PUSH1 0x40 MLOAD PUSH2 0xBCC SWAP2 SWAP1 PUSH2 0x147D JUMP JUMPDEST PUSH1 0x0 PUSH1 0x40 MLOAD DUP1 DUP4 SUB DUP2 DUP6 DUP8 GAS CALL SWAP3 POP POP POP RETURNDATASIZE DUP1 PUSH1 0x0 DUP2 EQ PUSH2 0xC09 JUMPI PUSH1 0x40 MLOAD SWAP2 POP PUSH1 0x1F NOT PUSH1 0x3F RETURNDATASIZE ADD AND DUP3 ADD PUSH1 0x40 MSTORE RETURNDATASIZE DUP3 MSTORE RETURNDATASIZE PUSH1 0x0 PUSH1 0x20 DUP5 ADD RETURNDATACOPY PUSH2 0xC0E JUMP JUMPDEST PUSH1 0x60 SWAP2 POP JUMPDEST POP SWAP2 POP SWAP2 POP PUSH2 0x5CF DUP7 DUP4 DUP4 PUSH1 0x60 DUP3 PUSH2 0xC2E JUMPI PUSH2 0xC29 DUP3 PUSH2 0xC75 JUMP JUMPDEST PUSH2 0xB84 JUMP JUMPDEST DUP2 MLOAD ISZERO DUP1 ISZERO PUSH2 0xC45 JUMPI POP PUSH1 0x1 PUSH1 0x1 PUSH1 0xA0 SHL SUB DUP5 AND EXTCODESIZE ISZERO JUMPDEST ISZERO PUSH2 0xC6E JUMPI PUSH1 0x40 MLOAD PUSH4 0x9996B315 PUSH1 0xE0 SHL DUP2 MSTORE PUSH1 0x1 PUSH1 0x1 PUSH1 0xA0 SHL SUB DUP6 AND PUSH1 0x4 DUP3 ADD MSTORE PUSH1 0x24 ADD PUSH2 0x390 JUMP JUMPDEST POP DUP1 PUSH2 0xB84 JUMP JUMPDEST DUP1 MLOAD ISZERO PUSH2 0xC85 JUMPI DUP1 MLOAD DUP1 DUP3 PUSH1 0x20 ADD REVERT JUMPDEST PUSH1 0x40 MLOAD PUSH4 0xA12F521 PUSH1 0xE1 SHL DUP2 MSTORE PUSH1 0x4 ADD PUSH1 0x40 MLOAD DUP1 SWAP2 SUB SWAP1 REVERT JUMPDEST PUSH1 0x40 MLOAD DUP1 PUSH1 0x60 ADD PUSH1 0x40 MSTORE DUP1 PUSH1 0x0 DUP1 NOT AND DUP2 MSTORE PUSH1 0x20 ADD PUSH1 0x0 PUSH1 0x1 PUSH1 0x1 PUSH1 0x40 SHL SUB AND DUP2 MSTORE PUSH1 0x20 ADD PUSH2 0xCE0 PUSH1 0x40 MLOAD DUP1 PUSH1 0x40 ADD PUSH1 0x40 MSTORE DUP1 PUSH1 0x0 DUP2 MSTORE PUSH1 0x20 ADD PUSH1 0x0 DUP2 MSTORE POP SWAP1 JUMP JUMPDEST SWAP1 MSTORE SWAP1 JUMP JUMPDEST PUSH1 0x0 PUSH1 0x60 DUP3 DUP5 SUB SLT ISZERO PUSH2 0xCF7 JUMPI PUSH1 0x0 DUP1 REVERT JUMPDEST POP SWAP2 SWAP1 POP JUMP JUMPDEST PUSH1 0x0 DUP1 DUP4 PUSH1 0x1F DUP5 ADD SLT PUSH2 0xD0F JUMPI PUSH1 0x0 DUP1 REVERT JUMPDEST POP DUP2 CALLDATALOAD PUSH1 0x1 PUSH1 0x1 PUSH1 0x40 SHL SUB DUP2 GT ISZERO PUSH2 0xD26 JUMPI PUSH1 0x0 DUP1 REVERT JUMPDEST PUSH1 0x20 DUP4 ADD SWAP2 POP DUP4 PUSH1 0x20 DUP3 DUP6 ADD ADD GT ISZERO PUSH2 0xD3E JUMPI PUSH1 0x0 DUP1 REVERT JUMPDEST SWAP3 POP SWAP3 SWAP1 POP JUMP JUMPDEST PUSH1 0x1 PUSH1 0x1 PUSH1 0xA0 SHL SUB DUP2 AND DUP2 EQ PUSH2 0x614 JUMPI PUSH1 0x0 DUP1 REVERT JUMPDEST PUSH1 0x0 DUP1 PUSH1 0x0 DUP1 PUSH1 0x0 DUP1 PUSH1 0x0 PUSH1 0xE0 DUP9 DUP11 SUB SLT ISZERO PUSH2 0xD75 JUMPI PUSH1 0x0 DUP1 REVERT JUMPDEST PUSH2 0xD7F DUP10 DUP10 PUSH2 0xCE5 JUMP JUMPDEST SWAP7 POP PUSH1 0x60 DUP9 ADD CALLDATALOAD SWAP6 POP PUSH1 0x80 DUP9 ADD CALLDATALOAD PUSH1 0x1 PUSH1 0x1 PUSH1 0x40 SHL SUB DUP1 DUP3 GT ISZERO PUSH2 0xDA2 JUMPI PUSH1 0x0 DUP1 REVERT JUMPDEST PUSH2 0xDAE DUP12 DUP4 DUP13 ADD PUSH2 0xCFD JUMP JUMPDEST SWAP1 SWAP8 POP SWAP6 POP PUSH1 0xA0 DUP11 ADD CALLDATALOAD SWAP2 POP PUSH2 0xDC3 DUP3 PUSH2 0xD45 JUMP JUMPDEST SWAP1 SWAP4 POP PUSH1 0xC0 DUP10 ADD CALLDATALOAD SWAP1 DUP1 DUP3 GT ISZERO PUSH2 0xDD9 JUMPI PUSH1 0x0 DUP1 REVERT JUMPDEST POP PUSH2 0xDE6 DUP11 DUP3 DUP12 ADD PUSH2 0xCFD JUMP JUMPDEST SWAP9 SWAP12 SWAP8 SWAP11 POP SWAP6 SWAP9 POP SWAP4 SWAP7 SWAP3 SWAP6 SWAP3 SWAP4 POP POP POP JUMP JUMPDEST DUP1 CALLDATALOAD PUSH4 0xFFFFFFFF DUP2 AND DUP2 EQ PUSH2 0xE0D JUMPI PUSH1 0x0 DUP1 REVERT JUMPDEST SWAP2 SWAP1 POP JUMP JUMPDEST PUSH1 0x0 DUP1 PUSH1 0x40 DUP4 DUP6 SUB SLT ISZERO PUSH2 0xE25 JUMPI PUSH1 0x0 DUP1 REVERT JUMPDEST PUSH2 0xE2E DUP4 PUSH2 0xDF9 JUMP JUMPDEST SWAP5 PUSH1 0x20 SWAP4 SWAP1 SWAP4 ADD CALLDATALOAD SWAP4 POP POP POP JUMP JUMPDEST PUSH1 0x0 JUMPDEST DUP4 DUP2 LT ISZERO PUSH2 0xE57 JUMPI DUP2 DUP2 ADD MLOAD DUP4 DUP3 ADD MSTORE PUSH1 0x20 ADD PUSH2 0xE3F JUMP JUMPDEST POP POP PUSH1 0x0 SWAP2 ADD MSTORE JUMP JUMPDEST PUSH1 0x0 DUP2 MLOAD DUP1 DUP5 MSTORE PUSH2 0xE78 DUP2 PUSH1 0x20 DUP7 ADD PUSH1 0x20 DUP7 ADD PUSH2 0xE3C JUMP JUMPDEST PUSH1 0x1F ADD PUSH1 0x1F NOT AND SWAP3 SWAP1 SWAP3 ADD PUSH1 0x20 ADD SWAP3 SWAP2 POP POP JUMP JUMPDEST PUSH1 0x20 DUP2 MSTORE PUSH1 0x0 PUSH2 0xB84 PUSH1 0x20 DUP4 ADD DUP5 PUSH2 0xE60 JUMP JUMPDEST PUSH1 0x0 DUP1 PUSH1 0x0 DUP1 PUSH1 0xA0 DUP6 DUP8 SUB SLT ISZERO PUSH2 0xEB5 JUMPI PUSH1 0x0 DUP1 REVERT JUMPDEST PUSH2 0xEBF DUP7 DUP7 PUSH2 0xCE5 JUMP JUMPDEST SWAP4 POP PUSH1 0x60 DUP6 ADD CALLDATALOAD PUSH1 0x1 PUSH1 0x1 PUSH1 0x40 SHL SUB DUP2 GT ISZERO PUSH2 0xEDA JUMPI PUSH1 0x0 DUP1 REVERT JUMPDEST PUSH2 0xEE6 DUP8 DUP3 DUP9 ADD PUSH2 0xCFD JUMP JUMPDEST SWAP1 SWAP5 POP SWAP3 POP POP PUSH1 0x80 DUP6 ADD CALLDATALOAD PUSH2 0xEFA DUP2 PUSH2 0xD45 JUMP JUMPDEST SWAP4 SWAP7 SWAP3 SWAP6 POP SWAP1 SWAP4 POP POP JUMP JUMPDEST PUSH1 0x0 PUSH1 0x20 DUP3 DUP5 SUB SLT ISZERO PUSH2 0xF17 JUMPI PUSH1 0x0 DUP1 REVERT JUMPDEST PUSH2 0xB84 DUP3 PUSH2 0xDF9 JUMP JUMPDEST PUSH1 0x0 PUSH1 0x20 DUP3 DUP5 SUB SLT ISZERO PUSH2 0xF32 JUMPI PUSH1 0x0 DUP1 REVERT JUMPDEST DUP2 CALLDATALOAD PUSH2 0xB84 DUP2 PUSH2 0xD45 JUMP JUMPDEST PUSH4 0x4E487B71 PUSH1 0xE0 SHL PUSH1 0x0 MSTORE PUSH1 0x41 PUSH1 0x4 MSTORE PUSH1 0x24 PUSH1 0x0 REVERT JUMPDEST PUSH1 0x0 PUSH1 0x1 PUSH1 0x1 PUSH1 0x40 SHL SUB DUP1 DUP5 GT ISZERO PUSH2 0xF6D JUMPI PUSH2 0xF6D PUSH2 0xF3D JUMP JUMPDEST PUSH1 0x40 MLOAD PUSH1 0x1F DUP6 ADD PUSH1 0x1F NOT SWAP1 DUP2 AND PUSH1 0x3F ADD AND DUP2 ADD SWAP1 DUP3 DUP3 GT DUP2 DUP4 LT OR ISZERO PUSH2 0xF95 JUMPI PUSH2 0xF95 PUSH2 0xF3D JUMP JUMPDEST DUP2 PUSH1 0x40 MSTORE DUP1 SWAP4 POP DUP6 DUP2 MSTORE DUP7 DUP7 DUP7 ADD GT ISZERO PUSH2 0xFAE JUMPI PUSH1 0x0 DUP1 REVERT JUMPDEST DUP6 DUP6 PUSH1 0x20 DUP4 ADD CALLDATACOPY PUSH1 0x0 PUSH1 0x20 DUP8 DUP4 ADD ADD MSTORE POP POP POP SWAP4 SWAP3 POP POP POP JUMP JUMPDEST PUSH1 0x0 DUP3 PUSH1 0x1F DUP4 ADD SLT PUSH2 0xFD9 JUMPI PUSH1 0x0 DUP1 REVERT JUMPDEST PUSH2 0xB84 DUP4 DUP4 CALLDATALOAD PUSH1 0x20 DUP6 ADD PUSH2 0xF53 JUMP JUMPDEST PUSH1 0x0 DUP1 PUSH1 0x0 DUP1 PUSH1 0x60 DUP6 DUP8 SUB SLT ISZERO PUSH2 0xFFE JUMPI PUSH1 0x0 DUP1 REVERT JUMPDEST PUSH2 0x1007 DUP6 PUSH2 0xDF9 JUMP JUMPDEST SWAP4 POP PUSH1 0x20 DUP6 ADD CALLDATALOAD PUSH1 0x1 PUSH1 0x1 PUSH1 0x40 SHL SUB DUP1 DUP3 GT ISZERO PUSH2 0x1023 JUMPI PUSH1 0x0 DUP1 REVERT JUMPDEST PUSH2 0x102F DUP9 DUP4 DUP10 ADD PUSH2 0xFC8 JUMP JUMPDEST SWAP5 POP PUSH1 0x40 DUP8 ADD CALLDATALOAD SWAP2 POP DUP1 DUP3 GT ISZERO PUSH2 0x1045 JUMPI PUSH1 0x0 DUP1 REVERT JUMPDEST POP PUSH2 0x1052 DUP8 DUP3 DUP9 ADD PUSH2 0xCFD JUMP JUMPDEST SWAP6 SWAP9 SWAP5 SWAP8 POP SWAP6 POP POP POP POP JUMP JUMPDEST PUSH1 0x0 PUSH1 0x80 DUP3 ADD SWAP1 POP DUP3 MLOAD DUP3 MSTORE PUSH1 0x1 PUSH1 0x1 PUSH1 0x40 SHL SUB PUSH1 0x20 DUP5 ADD MLOAD AND PUSH1 0x20 DUP4 ADD MSTORE PUSH1 0x40 DUP4 ADD MLOAD PUSH2 0x1099 PUSH1 0x40 DUP5 ADD DUP3 DUP1 MLOAD DUP3 MSTORE PUSH1 0x20 SWAP1 DUP2 ADD MLOAD SWAP2 ADD MSTORE JUMP JUMPDEST POP SWAP3 SWAP2 POP POP JUMP JUMPDEST DUP1 ISZERO ISZERO DUP2 EQ PUSH2 0x614 JUMPI PUSH1 0x0 DUP1 REVERT JUMPDEST PUSH1 0x0 DUP1 PUSH1 0x0 DUP1 PUSH1 0x80 DUP6 DUP8 SUB SLT ISZERO PUSH2 0x10C4 JUMPI PUSH1 0x0 DUP1 REVERT JUMPDEST PUSH2 0x10CD DUP6 PUSH2 0xDF9 JUMP JUMPDEST SWAP4 POP PUSH1 0x20 DUP6 ADD CALLDATALOAD PUSH1 0x1 PUSH1 0x1 PUSH1 0x40 SHL SUB DUP1 DUP3 GT ISZERO PUSH2 0x10E9 JUMPI PUSH1 0x0 DUP1 REVERT JUMPDEST PUSH2 0x10F5 DUP9 DUP4 DUP10 ADD PUSH2 0xFC8 JUMP JUMPDEST SWAP5 POP PUSH1 0x40 DUP8 ADD CALLDATALOAD SWAP2 POP DUP1 DUP3 GT ISZERO PUSH2 0x110B JUMPI PUSH1 0x0 DUP1 REVERT JUMPDEST POP DUP6 ADD PUSH1 0x1F DUP2 ADD DUP8 SGT PUSH2 0x111D JUMPI PUSH1 0x0 DUP1 REVERT JUMPDEST PUSH2 0x112C DUP8 DUP3 CALLDATALOAD PUSH1 0x20 DUP5 ADD PUSH2 0xF53 JUMP JUMPDEST SWAP3 POP POP PUSH1 0x60 DUP6 ADD CALLDATALOAD PUSH2 0xEFA DUP2 PUSH2 0x10A0 JUMP JUMPDEST DUP2 MLOAD DUP2 MSTORE PUSH1 0x20 DUP1 DUP4 ADD MLOAD SWAP1 DUP3 ADD MSTORE PUSH1 0x40 DUP2 ADD PUSH2 0x4C4 JUMP JUMPDEST PUSH1 0x0 PUSH1 0x60 DUP3 DUP5 SUB SLT ISZERO PUSH2 0x1166 JUMPI PUSH1 0x0 DUP1 REVERT JUMPDEST PUSH2 0xB84 DUP4 DUP4 PUSH2 0xCE5 JUMP JUMPDEST PUSH1 0x1 DUP2 DUP2 SHR SWAP1 DUP3 AND DUP1 PUSH2 0x1184 JUMPI PUSH1 0x7F DUP3 AND SWAP2 POP JUMPDEST PUSH1 0x20 DUP3 LT DUP2 SUB PUSH2 0xCF7 JUMPI PUSH4 0x4E487B71 PUSH1 0xE0 SHL PUSH1 0x0 MSTORE PUSH1 0x22 PUSH1 0x4 MSTORE PUSH1 0x24 PUSH1 0x0 REVERT JUMPDEST PUSH1 0x0 PUSH1 0x20 DUP3 DUP5 SUB SLT ISZERO PUSH2 0x11B6 JUMPI PUSH1 0x0 DUP1 REVERT JUMPDEST DUP2 CALLDATALOAD PUSH1 0x1 PUSH1 0x1 PUSH1 0x40 SHL SUB DUP2 GT ISZERO PUSH2 0x11CC JUMPI PUSH1 0x0 DUP1 REVERT JUMPDEST PUSH2 0x11D8 DUP5 DUP3 DUP6 ADD PUSH2 0xFC8 JUMP JUMPDEST SWAP5 SWAP4 POP POP POP POP JUMP JUMPDEST PUSH1 0x1F DUP3 GT ISZERO PUSH2 0xB71 JUMPI PUSH1 0x0 DUP2 PUSH1 0x0 MSTORE PUSH1 0x20 PUSH1 0x0 KECCAK256 PUSH1 0x1F DUP6 ADD PUSH1 0x5 SHR DUP2 ADD PUSH1 0x20 DUP7 LT ISZERO PUSH2 0x1209 JUMPI POP DUP1 JUMPDEST PUSH1 0x1F DUP6 ADD PUSH1 0x5 SHR DUP3 ADD SWAP2 POP JUMPDEST DUP2 DUP2 LT ISZERO PUSH2 0x1228 JUMPI DUP3 DUP2 SSTORE PUSH1 0x1 ADD PUSH2 0x1215 JUMP JUMPDEST POP POP POP POP POP POP JUMP JUMPDEST DUP2 MLOAD PUSH1 0x1 PUSH1 0x1 PUSH1 0x40 SHL SUB DUP2 GT ISZERO PUSH2 0x1249 JUMPI PUSH2 0x1249 PUSH2 0xF3D JUMP JUMPDEST PUSH2 0x125D DUP2 PUSH2 0x1257 DUP5 SLOAD PUSH2 0x1170 JUMP JUMPDEST DUP5 PUSH2 0x11E0 JUMP JUMPDEST PUSH1 0x20 DUP1 PUSH1 0x1F DUP4 GT PUSH1 0x1 DUP2 EQ PUSH2 0x1292 JUMPI PUSH1 0x0 DUP5 ISZERO PUSH2 0x127A JUMPI POP DUP6 DUP4 ADD MLOAD JUMPDEST PUSH1 0x0 NOT PUSH1 0x3 DUP7 SWAP1 SHL SHR NOT AND PUSH1 0x1 DUP6 SWAP1 SHL OR DUP6 SSTORE PUSH2 0x1228 JUMP JUMPDEST PUSH1 0x0 DUP6 DUP2 MSTORE PUSH1 0x20 DUP2 KECCAK256 PUSH1 0x1F NOT DUP7 AND SWAP2 JUMPDEST DUP3 DUP2 LT ISZERO PUSH2 0x12C1 JUMPI DUP9 DUP7 ADD MLOAD DUP3 SSTORE SWAP5 DUP5 ADD SWAP5 PUSH1 0x1 SWAP1 SWAP2 ADD SWAP1 DUP5 ADD PUSH2 0x12A2 JUMP JUMPDEST POP DUP6 DUP3 LT ISZERO PUSH2 0x12DF JUMPI DUP8 DUP6 ADD MLOAD PUSH1 0x0 NOT PUSH1 0x3 DUP9 SWAP1 SHL PUSH1 0xF8 AND SHR NOT AND DUP2 SSTORE JUMPDEST POP POP POP POP POP PUSH1 0x1 SWAP1 DUP2 SHL ADD SWAP1 SSTORE POP JUMP JUMPDEST PUSH1 0x40 DUP2 MSTORE PUSH4 0xFFFFFFFF DUP4 MLOAD AND PUSH1 0x40 DUP3 ADD MSTORE PUSH1 0x20 DUP4 ADD MLOAD PUSH1 0x60 DUP3 ADD MSTORE PUSH1 0x0 PUSH1 0x40 DUP5 ADD MLOAD PUSH1 0xA0 PUSH1 0x80 DUP5 ADD MSTORE PUSH2 0x1325 PUSH1 0xE0 DUP5 ADD DUP3 PUSH2 0xE60 JUMP JUMPDEST SWAP1 POP PUSH1 0x60 DUP6 ADD MLOAD PUSH1 0x3F NOT DUP5 DUP4 SUB ADD PUSH1 0xA0 DUP6 ADD MSTORE PUSH2 0x1342 DUP3 DUP3 PUSH2 0xE60 JUMP JUMPDEST PUSH1 0x80 SWAP7 SWAP1 SWAP7 ADD MLOAD ISZERO ISZERO PUSH1 0xC0 DUP6 ADD MSTORE POP POP POP PUSH1 0x1 PUSH1 0x1 PUSH1 0xA0 SHL SUB SWAP2 SWAP1 SWAP2 AND PUSH1 0x20 SWAP1 SWAP2 ADD MSTORE SWAP1 JUMP JUMPDEST PUSH1 0x0 PUSH1 0x40 DUP3 DUP5 SUB SLT ISZERO PUSH2 0x137A JUMPI PUSH1 0x0 DUP1 REVERT JUMPDEST PUSH1 0x40 MLOAD PUSH1 0x40 DUP2 ADD DUP2 DUP2 LT PUSH1 0x1 PUSH1 0x1 PUSH1 0x40 SHL SUB DUP3 GT OR ISZERO PUSH2 0x139C JUMPI PUSH2 0x139C PUSH2 0xF3D JUMP JUMPDEST PUSH1 0x40 MSTORE DUP3 MLOAD DUP2 MSTORE PUSH1 0x20 SWAP3 DUP4 ADD MLOAD SWAP3 DUP2 ADD SWAP3 SWAP1 SWAP3 MSTORE POP SWAP2 SWAP1 POP JUMP JUMPDEST PUSH1 0x0 PUSH1 0x80 DUP3 DUP5 SUB SLT ISZERO PUSH2 0x13C8 JUMPI PUSH1 0x0 DUP1 REVERT JUMPDEST PUSH1 0x40 MLOAD PUSH1 0x60 DUP2 ADD PUSH1 0x1 PUSH1 0x1 PUSH1 0x40 SHL SUB DUP3 DUP3 LT DUP2 DUP4 GT OR ISZERO PUSH2 0x13EB JUMPI PUSH2 0x13EB PUSH2 0xF3D JUMP JUMPDEST DUP2 PUSH1 0x40 MSTORE DUP5 MLOAD DUP4 MSTORE PUSH1 0x20 DUP6 ADD MLOAD SWAP2 POP DUP1 DUP3 AND DUP3 EQ PUSH2 0x1408 JUMPI PUSH1 0x0 DUP1 REVERT JUMPDEST POP PUSH1 0x20 DUP3 ADD MSTORE PUSH2 0x141B DUP5 PUSH1 0x40 DUP6 ADD PUSH2 0x1368 JUMP JUMPDEST PUSH1 0x40 DUP3 ADD MSTORE SWAP4 SWAP3 POP POP POP JUMP JUMPDEST PUSH1 0x0 PUSH1 0x40 DUP3 DUP5 SUB SLT ISZERO PUSH2 0x1439 JUMPI PUSH1 0x0 DUP1 REVERT JUMPDEST PUSH2 0xB84 DUP4 DUP4 PUSH2 0x1368 JUMP JUMPDEST PUSH1 0x0 PUSH1 0x20 DUP3 DUP5 SUB SLT ISZERO PUSH2 0x1455 JUMPI PUSH1 0x0 DUP1 REVERT JUMPDEST DUP2 MLOAD PUSH2 0xB84 DUP2 PUSH2 0xD45 JUMP JUMPDEST PUSH1 0x0 PUSH1 0x20 DUP3 DUP5 SUB SLT ISZERO PUSH2 0x1472 JUMPI PUSH1 0x0 DUP1 REVERT JUMPDEST DUP2 MLOAD PUSH2 0xB84 DUP2 PUSH2 0x10A0 JUMP JUMPDEST PUSH1 0x0 DUP3 MLOAD PUSH2 0x148F DUP2 DUP5 PUSH1 0x20 DUP8 ADD PUSH2 0xE3C JUMP JUMPDEST SWAP2 SWAP1 SWAP2 ADD SWAP3 SWAP2 POP POP JUMP INVALID LOG2 PUSH5 0x6970667358 0x22 SLT KECCAK256 0xE3 0xE2 0xFB 0x5C 0xDD SWAP4 0x2B MSIZE LOG1 SWAP12 0xEE CREATE2 BLOCKHASH SWAP4 0xF7 0x5D PUSH24 0x17F22119EEF5BD3EB168FAE778680B64736F6C6343000816 STOP CALLER "},"gasEstimates":{"creation":{"codeDepositCost":"1065400","executionCost":"infinite","totalCost":"infinite"},"external":{"allowInitializePath((uint32,bytes32,uint64))":"infinite","data()":"infinite","endpoint()":"infinite","isComposeMsgSender((uint32,bytes32,uint64),bytes,address)":"764","lzReceive((uint32,bytes32,uint64),bytes32,bytes,address,bytes)":"infinite","nextNonce(uint32,bytes32)":"492","oAppVersion()":"230","owner()":"2376","peers(uint32)":"2574","quote(uint32,string,bytes,bool)":"infinite","renounceOwnership()":"infinite","send(uint32,string,bytes)":"infinite","setDelegate(address)":"infinite","setPeer(uint32,bytes32)":"26105","transferOwnership(address)":"infinite"},"internal":{"_lzReceive(struct Origin calldata,bytes32,bytes calldata,address,bytes calldata)":"infinite"}},"methodIdentifiers":{"allowInitializePath((uint32,bytes32,uint64))":"ff7bd03d","data()":"73d4a13a","endpoint()":"5e280f11","isComposeMsgSender((uint32,bytes32,uint64),bytes,address)":"82413eac","lzReceive((uint32,bytes32,uint64),bytes32,bytes,address,bytes)":"13137d65","nextNonce(uint32,bytes32)":"7d25a05e","oAppVersion()":"17442b70","owner()":"8da5cb5b","peers(uint32)":"bb0b6a53","quote(uint32,string,bytes,bool)":"f77e5dd3","renounceOwnership()":"715018a6","send(uint32,string,bytes)":"e0539e58","setDelegate(address)":"ca5eb5e1","setPeer(uint32,bytes32)":"3400288b","transferOwnership(address)":"f2fde38b"}},"storageLayout":{"storage":[{"astId":1754,"contract":"contracts/MyOApp.sol:MyOApp","label":"_owner","offset":0,"slot":"0","type":"t_address"},{"astId":285,"contract":"contracts/MyOApp.sol:MyOApp","label":"peers","offset":0,"slot":"1","type":"t_mapping(t_uint32,t_bytes32)"},{"astId":4878,"contract":"contracts/MyOApp.sol:MyOApp","label":"data","offset":0,"slot":"2","type":"t_string_storage"}],"types":{"t_address":{"encoding":"inplace","label":"address","numberOfBytes":"20"},"t_bytes32":{"encoding":"inplace","label":"bytes32","numberOfBytes":"32"},"t_mapping(t_uint32,t_bytes32)":{"encoding":"mapping","key":"t_uint32","label":"mapping(uint32 => bytes32)","numberOfBytes":"32","value":"t_bytes32"},"t_string_storage":{"encoding":"bytes","label":"string","numberOfBytes":"32"},"t_uint32":{"encoding":"inplace","label":"uint32","numberOfBytes":"4"}}},"userdoc":{"kind":"user","methods":{"allowInitializePath((uint32,bytes32,uint64))":{"notice":"Checks if the path initialization is allowed based on the provided origin."},"endpoint()":{"notice":"Retrieves the LayerZero endpoint associated with the OApp."},"isComposeMsgSender((uint32,bytes32,uint64),bytes,address)":{"notice":"Indicates whether an address is an approved composeMsg sender to the Endpoint."},"nextNonce(uint32,bytes32)":{"notice":"Retrieves the next nonce for a given source endpoint and sender address."},"oAppVersion()":{"notice":"Retrieves the OApp version information."},"peers(uint32)":{"notice":"Retrieves the peer (OApp) associated with a corresponding endpoint."},"quote(uint32,string,bytes,bool)":{"notice":"Quotes the gas needed to pay for the full omnichain transaction in native gas or ZRO token."},"send(uint32,string,bytes)":{"notice":"Sends a message from the source chain to a destination chain."},"setDelegate(address)":{"notice":"Sets the delegate address for the OApp."},"setPeer(uint32,bytes32)":{"notice":"Sets the peer address (OApp instance) for a corresponding endpoint."}},"version":1}}}}