{
  "_format": "hh-sol-artifact-1",
  "contractName": "FtsoV2FeedConsumer",
  "sourceName": "contracts/FlareOracle.sol",
  "abi": [
    {
      "inputs": [],
      "stateMutability": "nonpayable",
      "type": "constructor"
    },
    {
      "inputs": [
        {
          "internalType": "uint256",
          "name": "",
          "type": "uint256"
        }
      ],
      "name": "feedIndexes",
      "outputs": [
        {
          "internalType": "uint256",
          "name": "",
          "type": "uint256"
        }
      ],
      "stateMutability": "view",
      "type": "function"
    },
    {
      "inputs": [],
      "name": "getFtsoV2CurrentFeedValues",
      "outputs": [
        {
          "internalType": "uint256[]",
          "name": "_feedValues",
          "type": "uint256[]"
        },
        {
          "internalType": "int8[]",
          "name": "_decimals",
          "type": "int8[]"
        },
        {
          "internalType": "uint64",
          "name": "_timestamp",
          "type": "uint64"
        }
      ],
      "stateMutability": "view",
      "type": "function"
    }
  ],
  "bytecode": "0x60a0604052600960809081526100199060029060016100ee565b5034801561002657600080fd5b50600080546001600160a01b03191673ad67fe66660fb8dfe9d6b1b4240d8650e30f601990811790915560405163413b07e560e11b815260206004820152600b60248201526a2330b9ba2ab83230ba32b960a91b60448201526382760fca90606401602060405180830381865afa1580156100a5573d6000803e3d6000fd5b505050506040513d601f19601f820116820180604052508101906100c99190610153565b600180546001600160a01b0319166001600160a01b0392909216919091179055610183565b82805482825590600052602060002090810192821561012e579160200282015b8281111561012e578251829060ff1690559160200191906001019061010e565b5061013a92915061013e565b5090565b5b8082111561013a576000815560010161013f565b60006020828403121561016557600080fd5b81516001600160a01b038116811461017c57600080fd5b9392505050565b610427806101926000396000f3fe608060405234801561001057600080fd5b50600436106100365760003560e01c8063dae2f4bc1461003b578063f601bc8b14610061575b600080fd5b61004e61004936600461012c565b610078565b6040519081526020015b60405180910390f35b610069610099565b60405161005893929190610145565b6002818154811061008857600080fd5b600091825260209091200154905081565b600154604051631168574f60e21b815260609182916000918291829182916001600160a01b03909116906345a15d3c906100d8906002906004016101db565b600060405180830381865afa1580156100f5573d6000803e3d6000fd5b505050506040513d6000823e601f3d908101601f1916820160405261011d9190810190610325565b91989097509095509350505050565b60006020828403121561013e57600080fd5b5035919050565b60608082528451908201819052600090602090608084019082880184805b8381101561017f57825185529385019391850191600101610163565b5086840385880152885180855289860194860193509150805b828110156101b6578451820b84529385019392850192600101610198565b50505067ffffffffffffffff8616604086015292506101d3915050565b949350505050565b6020808252825482820181905260008481528281209092916040850190845b81811015610216578354835260019384019392850192016101fa565b50909695505050505050565b634e487b7160e01b600052604160045260246000fd5b604051601f8201601f1916810167ffffffffffffffff8111828210171561026157610261610222565b604052919050565b600067ffffffffffffffff82111561028357610283610222565b5060051b60200190565b600082601f83011261029e57600080fd5b815160206102b36102ae83610269565b610238565b82815260059290921b840181019181810190868411156102d257600080fd5b8286015b848110156102fd578051600081810b82146102ef578081fd5b5083529183019183016102d6565b509695505050505050565b805167ffffffffffffffff8116811461032057600080fd5b919050565b60008060006060848603121561033a57600080fd5b835167ffffffffffffffff8082111561035257600080fd5b818601915086601f83011261036657600080fd5b815160206103766102ae83610269565b82815260059290921b8401810191818101908a84111561039557600080fd5b948201945b838610156103b35785518252948201949082019061039a565b918901519197509093505050808211156103cc57600080fd5b506103d98682870161028d565b9250506103e860408501610308565b9050925092509256fea2646970667358221220f73fce6d7c5340f4b491a6910d18d693cacd9f43608a7e423d6258df88ea93f264736f6c63430008130033",
  "linkReferences": {},
  "deployedLinkReferences": {}
}