{
  "_format": "hh-sol-artifact-1",
  "contractName": "BorrowLend",
  "sourceName": "contracts/Borrow.sol",
  "abi": [
    {
      "inputs": [],
      "stateMutability": "nonpayable",
      "type": "constructor"
    },
    {
      "inputs": [
        {
          "internalType": "uint256",
          "name": "available",
          "type": "uint256"
        },
        {
          "internalType": "uint256",
          "name": "required",
          "type": "uint256"
        }
      ],
      "name": "ContractUnderFunded",
      "type": "error"
    },
    {
      "inputs": [
        {
          "internalType": "address",
          "name": "token",
          "type": "address"
        }
      ],
      "name": "IncorrectRepaymentToken",
      "type": "error"
    },
    {
      "inputs": [
        {
          "internalType": "uint256",
          "name": "available",
          "type": "uint256"
        },
        {
          "internalType": "uint256",
          "name": "required",
          "type": "uint256"
        }
      ],
      "name": "InsufficientBalance",
      "type": "error"
    },
    {
      "inputs": [
        {
          "internalType": "uint256",
          "name": "rewardAmount",
          "type": "uint256"
        },
        {
          "internalType": "uint256",
          "name": "halfDebtInUSD",
          "type": "uint256"
        }
      ],
      "name": "NoRewardForLiquidation",
      "type": "error"
    },
    {
      "inputs": [
        {
          "internalType": "uint256",
          "name": "healthFactor",
          "type": "uint256"
        },
        {
          "internalType": "uint256",
          "name": "minHealthFactor",
          "type": "uint256"
        }
      ],
      "name": "NotLiquidatable",
      "type": "error"
    },
    {
      "inputs": [
        {
          "internalType": "uint256",
          "name": "maxAllowed",
          "type": "uint256"
        },
        {
          "internalType": "uint256",
          "name": "requested",
          "type": "uint256"
        }
      ],
      "name": "OverLeveraged",
      "type": "error"
    },
    {
      "inputs": [
        {
          "internalType": "uint256",
          "name": "available",
          "type": "uint256"
        },
        {
          "internalType": "uint256",
          "name": "requested",
          "type": "uint256"
        }
      ],
      "name": "Overpayment",
      "type": "error"
    },
    {
      "inputs": [
        {
          "internalType": "address",
          "name": "owner",
          "type": "address"
        }
      ],
      "name": "OwnableInvalidOwner",
      "type": "error"
    },
    {
      "inputs": [
        {
          "internalType": "address",
          "name": "account",
          "type": "address"
        }
      ],
      "name": "OwnableUnauthorizedAccount",
      "type": "error"
    },
    {
      "inputs": [
        {
          "internalType": "address",
          "name": "token",
          "type": "address"
        }
      ],
      "name": "TokenNotAllowed",
      "type": "error"
    },
    {
      "inputs": [],
      "name": "TransferFailed",
      "type": "error"
    },
    {
      "inputs": [],
      "name": "zeroAmount",
      "type": "error"
    },
    {
      "anonymous": false,
      "inputs": [
        {
          "indexed": true,
          "internalType": "address",
          "name": "token",
          "type": "address"
        },
        {
          "indexed": true,
          "internalType": "address",
          "name": "priceFeed",
          "type": "address"
        }
      ],
      "name": "AllowedTokenSet",
      "type": "event"
    },
    {
      "anonymous": false,
      "inputs": [
        {
          "indexed": true,
          "internalType": "address",
          "name": "account",
          "type": "address"
        },
        {
          "indexed": true,
          "internalType": "address",
          "name": "token",
          "type": "address"
        },
        {
          "indexed": true,
          "internalType": "uint256",
          "name": "amount",
          "type": "uint256"
        }
      ],
      "name": "Borrow",
      "type": "event"
    },
    {
      "anonymous": false,
      "inputs": [
        {
          "indexed": true,
          "internalType": "address",
          "name": "account",
          "type": "address"
        },
        {
          "indexed": true,
          "internalType": "uint256",
          "name": "amount",
          "type": "uint256"
        }
      ],
      "name": "DepositedNativeAsset",
      "type": "event"
    },
    {
      "anonymous": false,
      "inputs": [
        {
          "indexed": true,
          "internalType": "address",
          "name": "account",
          "type": "address"
        },
        {
          "indexed": true,
          "internalType": "address",
          "name": "token",
          "type": "address"
        },
        {
          "indexed": true,
          "internalType": "uint256",
          "name": "amount",
          "type": "uint256"
        }
      ],
      "name": "DepositedToken",
      "type": "event"
    },
    {
      "anonymous": false,
      "inputs": [
        {
          "indexed": true,
          "internalType": "address",
          "name": "account",
          "type": "address"
        },
        {
          "indexed": true,
          "internalType": "address",
          "name": "repayToken",
          "type": "address"
        },
        {
          "indexed": true,
          "internalType": "address",
          "name": "rewardToken",
          "type": "address"
        },
        {
          "indexed": false,
          "internalType": "uint256",
          "name": "halfDebtInEth",
          "type": "uint256"
        },
        {
          "indexed": false,
          "internalType": "address",
          "name": "liquidator",
          "type": "address"
        }
      ],
      "name": "Liquidate",
      "type": "event"
    },
    {
      "anonymous": false,
      "inputs": [
        {
          "indexed": true,
          "internalType": "address",
          "name": "account",
          "type": "address"
        },
        {
          "indexed": true,
          "internalType": "address",
          "name": "repayToken",
          "type": "address"
        },
        {
          "indexed": false,
          "internalType": "uint256",
          "name": "halfDebtInEth",
          "type": "uint256"
        },
        {
          "indexed": false,
          "internalType": "address",
          "name": "liquidator",
          "type": "address"
        }
      ],
      "name": "LiquidateForNative",
      "type": "event"
    },
    {
      "anonymous": false,
      "inputs": [
        {
          "indexed": true,
          "internalType": "address",
          "name": "previousOwner",
          "type": "address"
        },
        {
          "indexed": true,
          "internalType": "address",
          "name": "newOwner",
          "type": "address"
        }
      ],
      "name": "OwnershipTransferred",
      "type": "event"
    },
    {
      "anonymous": false,
      "inputs": [
        {
          "indexed": true,
          "internalType": "address",
          "name": "account",
          "type": "address"
        },
        {
          "indexed": true,
          "internalType": "address",
          "name": "token",
          "type": "address"
        },
        {
          "indexed": true,
          "internalType": "uint256",
          "name": "amount",
          "type": "uint256"
        }
      ],
      "name": "Repay",
      "type": "event"
    },
    {
      "anonymous": false,
      "inputs": [
        {
          "indexed": true,
          "internalType": "address",
          "name": "account",
          "type": "address"
        },
        {
          "indexed": true,
          "internalType": "address",
          "name": "token",
          "type": "address"
        },
        {
          "indexed": true,
          "internalType": "uint256",
          "name": "amount",
          "type": "uint256"
        }
      ],
      "name": "Withdraw",
      "type": "event"
    },
    {
      "anonymous": false,
      "inputs": [
        {
          "indexed": true,
          "internalType": "address",
          "name": "account",
          "type": "address"
        },
        {
          "indexed": true,
          "internalType": "uint256",
          "name": "amount",
          "type": "uint256"
        }
      ],
      "name": "WithdrawNative",
      "type": "event"
    },
    {
      "inputs": [],
      "name": "LIQUIDATION_REWARD",
      "outputs": [
        {
          "internalType": "uint256",
          "name": "",
          "type": "uint256"
        }
      ],
      "stateMutability": "view",
      "type": "function"
    },
    {
      "inputs": [],
      "name": "LIQUIDATION_THRESHOLD",
      "outputs": [
        {
          "internalType": "uint256",
          "name": "",
          "type": "uint256"
        }
      ],
      "stateMutability": "view",
      "type": "function"
    },
    {
      "inputs": [],
      "name": "MIN_HEALH_FACTOR",
      "outputs": [
        {
          "internalType": "uint256",
          "name": "",
          "type": "uint256"
        }
      ],
      "stateMutability": "view",
      "type": "function"
    },
    {
      "inputs": [
        {
          "internalType": "uint256",
          "name": "",
          "type": "uint256"
        }
      ],
      "name": "allowedTokens",
      "outputs": [
        {
          "internalType": "address",
          "name": "",
          "type": "address"
        }
      ],
      "stateMutability": "view",
      "type": "function"
    },
    {
      "inputs": [
        {
          "internalType": "address",
          "name": "_token",
          "type": "address"
        },
        {
          "internalType": "uint256",
          "name": "_amount",
          "type": "uint256"
        }
      ],
      "name": "borrow",
      "outputs": [],
      "stateMutability": "nonpayable",
      "type": "function"
    },
    {
      "inputs": [
        {
          "internalType": "address",
          "name": "",
          "type": "address"
        },
        {
          "internalType": "address",
          "name": "",
          "type": "address"
        }
      ],
      "name": "borrows",
      "outputs": [
        {
          "internalType": "uint256",
          "name": "",
          "type": "uint256"
        }
      ],
      "stateMutability": "view",
      "type": "function"
    },
    {
      "inputs": [
        {
          "internalType": "address",
          "name": "_user",
          "type": "address"
        }
      ],
      "name": "calculateBorrowValue",
      "outputs": [
        {
          "internalType": "uint256",
          "name": "",
          "type": "uint256"
        }
      ],
      "stateMutability": "view",
      "type": "function"
    },
    {
      "inputs": [
        {
          "internalType": "address",
          "name": "_user",
          "type": "address"
        }
      ],
      "name": "calculateDepositValue",
      "outputs": [
        {
          "internalType": "uint256",
          "name": "",
          "type": "uint256"
        }
      ],
      "stateMutability": "view",
      "type": "function"
    },
    {
      "inputs": [
        {
          "internalType": "uint256",
          "name": "_amount",
          "type": "uint256"
        }
      ],
      "name": "calculateNativeAssetUSDValue",
      "outputs": [
        {
          "internalType": "uint256",
          "name": "",
          "type": "uint256"
        }
      ],
      "stateMutability": "view",
      "type": "function"
    },
    {
      "inputs": [
        {
          "internalType": "uint256",
          "name": "_amount",
          "type": "uint256"
        }
      ],
      "name": "calculateNativeAssetValueFromUSD",
      "outputs": [
        {
          "internalType": "uint256",
          "name": "",
          "type": "uint256"
        }
      ],
      "stateMutability": "view",
      "type": "function"
    },
    {
      "inputs": [
        {
          "internalType": "address",
          "name": "_token",
          "type": "address"
        },
        {
          "internalType": "uint256",
          "name": "_amount",
          "type": "uint256"
        }
      ],
      "name": "calculateTokenValueFromUSD",
      "outputs": [
        {
          "internalType": "uint256",
          "name": "",
          "type": "uint256"
        }
      ],
      "stateMutability": "view",
      "type": "function"
    },
    {
      "inputs": [
        {
          "internalType": "address",
          "name": "_token",
          "type": "address"
        },
        {
          "internalType": "uint256",
          "name": "_amount",
          "type": "uint256"
        }
      ],
      "name": "calculateUSDValue",
      "outputs": [
        {
          "internalType": "uint256",
          "name": "",
          "type": "uint256"
        }
      ],
      "stateMutability": "view",
      "type": "function"
    },
    {
      "inputs": [],
      "name": "depositNative",
      "outputs": [],
      "stateMutability": "payable",
      "type": "function"
    },
    {
      "inputs": [
        {
          "internalType": "address",
          "name": "_token",
          "type": "address"
        },
        {
          "internalType": "uint256",
          "name": "_amount",
          "type": "uint256"
        }
      ],
      "name": "depositToken",
      "outputs": [],
      "stateMutability": "nonpayable",
      "type": "function"
    },
    {
      "inputs": [
        {
          "internalType": "address",
          "name": "",
          "type": "address"
        },
        {
          "internalType": "address",
          "name": "",
          "type": "address"
        }
      ],
      "name": "deposits",
      "outputs": [
        {
          "internalType": "uint256",
          "name": "",
          "type": "uint256"
        }
      ],
      "stateMutability": "view",
      "type": "function"
    },
    {
      "inputs": [],
      "name": "flareAdaptor",
      "outputs": [
        {
          "internalType": "contract IFlareAdaptor",
          "name": "",
          "type": "address"
        }
      ],
      "stateMutability": "view",
      "type": "function"
    },
    {
      "inputs": [],
      "name": "getTotalContractBalance",
      "outputs": [
        {
          "internalType": "uint256",
          "name": "",
          "type": "uint256"
        }
      ],
      "stateMutability": "view",
      "type": "function"
    },
    {
      "inputs": [
        {
          "internalType": "address",
          "name": "_user",
          "type": "address"
        }
      ],
      "name": "healthFactor",
      "outputs": [
        {
          "internalType": "uint256",
          "name": "",
          "type": "uint256"
        }
      ],
      "stateMutability": "view",
      "type": "function"
    },
    {
      "inputs": [
        {
          "internalType": "address",
          "name": "_account",
          "type": "address"
        },
        {
          "internalType": "address",
          "name": "_tokenToRepay",
          "type": "address"
        },
        {
          "internalType": "address",
          "name": "_rewardToken",
          "type": "address"
        }
      ],
      "name": "liquidate",
      "outputs": [],
      "stateMutability": "payable",
      "type": "function"
    },
    {
      "inputs": [
        {
          "internalType": "address",
          "name": "_account",
          "type": "address"
        },
        {
          "internalType": "address",
          "name": "_tokenToRepay",
          "type": "address"
        }
      ],
      "name": "liquidateForNative",
      "outputs": [],
      "stateMutability": "nonpayable",
      "type": "function"
    },
    {
      "inputs": [
        {
          "internalType": "address",
          "name": "",
          "type": "address"
        }
      ],
      "name": "nativeDeposits",
      "outputs": [
        {
          "internalType": "uint256",
          "name": "",
          "type": "uint256"
        }
      ],
      "stateMutability": "view",
      "type": "function"
    },
    {
      "inputs": [],
      "name": "nativeTokenProxyAddress",
      "outputs": [
        {
          "internalType": "address",
          "name": "",
          "type": "address"
        }
      ],
      "stateMutability": "view",
      "type": "function"
    },
    {
      "inputs": [],
      "name": "owner",
      "outputs": [
        {
          "internalType": "address",
          "name": "",
          "type": "address"
        }
      ],
      "stateMutability": "view",
      "type": "function"
    },
    {
      "inputs": [
        {
          "internalType": "address",
          "name": "",
          "type": "address"
        }
      ],
      "name": "priceFeedOfToken",
      "outputs": [
        {
          "internalType": "address",
          "name": "",
          "type": "address"
        }
      ],
      "stateMutability": "view",
      "type": "function"
    },
    {
      "inputs": [
        {
          "internalType": "address",
          "name": "_priceFeed",
          "type": "address"
        }
      ],
      "name": "readDataFeed",
      "outputs": [
        {
          "internalType": "uint256",
          "name": "",
          "type": "uint256"
        },
        {
          "internalType": "uint256",
          "name": "",
          "type": "uint256"
        }
      ],
      "stateMutability": "view",
      "type": "function"
    },
    {
      "inputs": [],
      "name": "renounceOwnership",
      "outputs": [],
      "stateMutability": "nonpayable",
      "type": "function"
    },
    {
      "inputs": [
        {
          "internalType": "address",
          "name": "_token",
          "type": "address"
        },
        {
          "internalType": "uint256",
          "name": "_amount",
          "type": "uint256"
        }
      ],
      "name": "repay",
      "outputs": [],
      "stateMutability": "payable",
      "type": "function"
    },
    {
      "inputs": [
        {
          "internalType": "address",
          "name": "_nativeTokenProxyAddress",
          "type": "address"
        }
      ],
      "name": "setNativeTokenProxyAddress",
      "outputs": [],
      "stateMutability": "nonpayable",
      "type": "function"
    },
    {
      "inputs": [
        {
          "internalType": "address",
          "name": "_token",
          "type": "address"
        },
        {
          "internalType": "address",
          "name": "_priceFeed",
          "type": "address"
        }
      ],
      "name": "setTokensAvailable",
      "outputs": [],
      "stateMutability": "nonpayable",
      "type": "function"
    },
    {
      "inputs": [
        {
          "internalType": "address",
          "name": "newOwner",
          "type": "address"
        }
      ],
      "name": "transferOwnership",
      "outputs": [],
      "stateMutability": "nonpayable",
      "type": "function"
    },
    {
      "inputs": [
        {
          "internalType": "address",
          "name": "_user",
          "type": "address"
        }
      ],
      "name": "userInformation",
      "outputs": [
        {
          "internalType": "uint256",
          "name": "",
          "type": "uint256"
        },
        {
          "internalType": "uint256",
          "name": "",
          "type": "uint256"
        }
      ],
      "stateMutability": "view",
      "type": "function"
    },
    {
      "inputs": [
        {
          "internalType": "address",
          "name": "_token",
          "type": "address"
        },
        {
          "internalType": "uint256",
          "name": "_amount",
          "type": "uint256"
        }
      ],
      "name": "withdraw",
      "outputs": [],
      "stateMutability": "nonpayable",
      "type": "function"
    },
    {
      "inputs": [
        {
          "internalType": "uint256",
          "name": "_amount",
          "type": "uint256"
        }
      ],
      "name": "withdrawNative",
      "outputs": [],
      "stateMutability": "nonpayable",
      "type": "function"
    }
  ],
  "bytecode": "0x608060405234801561001057600080fd5b50338061003757604051631e4fbdf760e01b81526000600482015260240160405180910390fd5b61004081610046565b50610096565b600080546001600160a01b038381166001600160a01b0319831681178455604051919092169283917f8be0079c531659141344cd1fd0a4f28419497f9722a3daafe3b4186f6b6457e09190a35050565b611a27806100a56000396000f3fe6080604052600436106101ee5760003560e01c80637e0baf871161010d578063ad0d7594116100a0578063df80eed21161006f578063df80eed214610599578063eaed04b5146105b1578063f2fde38b146105d1578063f3fef3a3146105f1578063f6c6bdee1461061157600080fd5b8063ad0d759414610556578063ca5ce2ec1461056b578063d9e3fd641461057e578063db6b52461461059157600080fd5b80638f601f66116100dc5780638f601f66146104c957806390a8ae9b14610501578063a923da2314610516578063ac4ffcdf1461053657600080fd5b80637e0baf871461043557806384276d811461046b5780638da5cb5b1461048b5780638eac6661146104a957600080fd5b806358013786116101855780636c29219c116101545780636c29219c146103a8578063715018a6146103e057806379a71a87146103f55780637d2e227d1461041557600080fd5b8063580137861461032857806359e71375146103485780635e5f2e26146103685780636ad9f9df1461038857600080fd5b80633e0fd70f116101c15780633e0fd70f1461029057806346e303f2146102b05780634b8a3529146102d05780634cdb66bc146102f057600080fd5b8063072c7dde146101f357806322867d781461022d578063322d7a6214610242578063338b5dea14610270575b600080fd5b3480156101ff57600080fd5b5061021361020e366004611833565b61063e565b604080519283526020830191909152015b60405180910390f35b61024061023b36600461184e565b6106b7565b005b34801561024e57600080fd5b5061026261025d366004611833565b61071f565b604051908152602001610224565b34801561027c57600080fd5b5061024061028b36600461184e565b6107f2565b34801561029c57600080fd5b506102406102ab366004611878565b61096d565b3480156102bc57600080fd5b506102626102cb3660046118ab565b610a78565b3480156102dc57600080fd5b506102406102eb36600461184e565b610ab9565b3480156102fc57600080fd5b50600754610310906001600160a01b031681565b6040516001600160a01b039091168152602001610224565b34801561033457600080fd5b50610262610343366004611833565b610c97565b34801561035457600080fd5b5061026261036336600461184e565b610d16565b34801561037457600080fd5b506103106103833660046118ab565b610d68565b34801561039457600080fd5b506102626103a3366004611833565b610d92565b3480156103b457600080fd5b506102626103c3366004611878565b600660209081526000928352604080842090915290825290205481565b3480156103ec57600080fd5b50610240610df9565b34801561040157600080fd5b50610240610410366004611833565b610e0d565b34801561042157600080fd5b50610213610430366004611833565b610e37565b34801561044157600080fd5b50610310610450366004611833565b6003602052600090815260409020546001600160a01b031681565b34801561047757600080fd5b506102406104863660046118ab565b610e5d565b34801561049757600080fd5b506000546001600160a01b0316610310565b3480156104b557600080fd5b506102626104c43660046118ab565b610f80565b3480156104d557600080fd5b506102626104e4366004611878565b600560209081526000928352604080842090915290825290205481565b34801561050d57600080fd5b50610262604681565b34801561052257600080fd5b50610240610531366004611878565b610fb0565b34801561054257600080fd5b5061026261055136600461184e565b611181565b34801561056257600080fd5b50610262600581565b6102406105793660046118c4565b6111bf565b34801561058a57600080fd5b5047610262565b6102406113d4565b3480156105a557600080fd5b506102626305f5e10081565b3480156105bd57600080fd5b50600154610310906001600160a01b031681565b3480156105dd57600080fd5b506102406105ec366004611833565b611448565b3480156105fd57600080fd5b5061024061060c36600461184e565b611486565b34801561061d57600080fd5b5061026261062c366004611833565b60046020526000908152604090205481565b6000806000839050600080826001600160a01b03166357de26a46040518163ffffffff1660e01b81526004016040805180830381865afa158015610686573d6000803e3d6000fd5b505050506040513d601f19601f820116820180604052508101906106aa9190611907565b9097909650945050505050565b806000036106d857604051637685565760e01b815260040160405180910390fd5b6106e3338383611646565b60405181906001600160a01b0384169033907f05f2eeda0e08e4b437f487c8d7d29b14537d15e3488170dc3de5dbdf8dac468490600090a45050565b6001600160a01b03811660009081526004602052604081205481901561076e576001600160a01b03831660009081526004602052604090205461076190610a78565b61076b9082611941565b90505b60005b6002548110156107eb5760006002828154811061079057610790611954565b60009182526020808320909101546001600160a01b0388811684526005835260408085209190921680855292529091205490915080156107e1576107d48282611181565b6107de9085611941565b93505b5050600101610771565b5092915050565b6001600160a01b0380831660009081526003602052604090205483911661083c5760405163094403b760e41b81526001600160a01b03821660048201526024015b60405180910390fd5b8160000361085d57604051637685565760e01b815260040160405180910390fd5b6040516323b872dd60e01b8152336004820152306024820152604481018390526000906001600160a01b038516906323b872dd906064016020604051808303816000875af11580156108b3573d6000803e3d6000fd5b505050506040513d601f19601f820116820180604052508101906108d7919061196a565b9050806108f7576040516312171d8360e31b815260040160405180910390fd5b3360009081526005602090815260408083206001600160a01b03881684529091528120805485929061092a908490611941565b909155505060405183906001600160a01b0386169033907f7a43fc511e5571803e978d5d53bbfb35b899d0c8acdc2039769bfbc77082fa3390600090a450505050565b61097561179a565b600254600090815b818110156109cd57846001600160a01b0316600282815481106109a2576109a2611954565b6000918252602090912001546001600160a01b0316036109c557600192506109cd565b60010161097d565b5081610a1f57600280546001810182556000919091527f405787fa12a823e0f2b7631cc41b3ba8828b3321ca811111fa75cd3aa3bb5ace0180546001600160a01b0319166001600160a01b0386161790555b6001600160a01b0384811660008181526003602052604080822080546001600160a01b0319169488169485179055517f4f9bd0d8360fd59a62c52cf8b386f7c7b65097c9e336e860d08ffb9df34067d19190a350505050565b6007546000908190610a92906001600160a01b031661063e565b509050670de0b6b3a7640000610aa8828561198c565b610ab291906119a3565b9392505050565b6040516370a0823160e01b81523060048201526001600160a01b038316906370a0823190602401602060405180830381865afa158015610afd573d6000803e3d6000fd5b505050506040513d601f19601f82011682018060405250810190610b2191906119c5565b811115610b4a57604051631f39936560e31b815247600482015260248101829052604401610833565b3360009081526006602090815260408083206001600160a01b038616845290915281208054839290610b7d908490611941565b909155505060405163a9059cbb60e01b8152336004820152602481018290526000906001600160a01b0384169063a9059cbb906044016020604051808303816000875af1158015610bd2573d6000803e3d6000fd5b505050506040513d601f19601f82011682018060405250810190610bf6919061196a565b905080610c16576040516312171d8360e31b815260040160405180910390fd5b60405182906001600160a01b0385169033907f312a5e5e1079f5dda4e95dbbd0b908b291fd5b992ef22073643ab691572c5b5290600090a46305f5e100610c5c33610d92565b1015610c92576305f5e100610c7033610d92565b604051635b61fd1360e11b815260048101929092526024820152604401610833565b505050565b600080805b6002548110156107eb57600060028281548110610cbb57610cbb611954565b60009182526020808320909101546001600160a01b038881168452600683526040808520919092168085529252909120549091508015610d0c57610cff8282611181565b610d099085611941565b93505b5050600101610c9c565b6001600160a01b0380831660009081526003602052604081205490918291610d3e911661063e565b50905080610d5484670de0b6b3a764000061198c565b610d5e91906119a3565b9150505b92915050565b60028181548110610d7857600080fd5b6000918252602090912001546001600160a01b0316905081565b6000806000610da084610e37565b909250905060006064610db460468461198c565b610dbe91906119a3565b905082600003610dd757506402540be400949350505050565b82610de6826305f5e10061198c565b610df091906119a3565b95945050505050565b610e0161179a565b610e0b60006117c7565b565b610e1561179a565b600780546001600160a01b0319166001600160a01b0392909216919091179055565b6000806000610e458461071f565b90506000610e5285610c97565b959194509092505050565b80600003610e7e57604051637685565760e01b815260040160405180910390fd5b33600090815260046020526040902054811115610ecb573360009081526004602081905260409182902054915163cf47918160e01b81526108339291849101918252602082015260400190565b3360009081526004602052604081208054839290610eea9084906119de565b9091555050604051600090339083156108fc0290849084818181858888f19350505050905080610f2d576040516312171d8360e31b815260040160405180910390fd5b6305f5e100610f3b33610d92565b1015610f4f576305f5e100610c7033610d92565b604051829033907fde93db11f7aedf7cb3be22dc4d80e7790ab4b59a30aae83e86ac8326245542c590600090a35050565b6007546000908190610f9a906001600160a01b031661063e565b50905080610aa884670de0b6b3a764000061198c565b6305f5e100610fbe83610d92565b10610ff357610fcc82610d92565b604051636c76e19b60e11b815260048101919091526305f5e1006024820152604401610833565b6001600160a01b038083166000908152600660209081526040808320938516835292905290812054611027906002906119a3565b905060006110358383611181565b9050806000036110635760405163f4ba52c560e01b81526001600160a01b0384166004820152602401610833565b6000606461107260058461198c565b61107c91906119a3565b9050600061108d6104c48484611941565b9050806000036110ba57604051636a5b45c360e01b81526004810183905260248101849052604401610833565b6110c5868686611646565b6001600160a01b038616600090815260046020526040812080548392906110ed9084906119de565b9091555050604051600090339083156108fc0290849084818181858888f19350505050905080611130576040516312171d8360e31b815260040160405180910390fd5b604080518581523360208201526001600160a01b0380891692908a16917f6c24c03a659501697397faf17be8c03108f14d28a819340bc38c871c0ac3d346910160405180910390a350505050505050565b6001600160a01b03808316600090815260036020526040812054909182916111a9911661063e565b509050670de0b6b3a7640000610d54828561198c565b6305f5e1006111cd84610d92565b106111db57610fcc83610d92565b6001600160a01b03808416600090815260066020908152604080832093861683529290529081205461120f906002906119a3565b9050600061121d8483611181565b90508060000361124b5760405163f4ba52c560e01b81526001600160a01b0385166004820152602401610833565b6000606461125a60058461198c565b61126491906119a3565b90506000611276856103638585611941565b9050806000036112a357604051636a5b45c360e01b81526004810183905260248101849052604401610833565b6112ae878786611646565b6001600160a01b038088166000908152600560209081526040808320938916835292905290812080548392906112e59084906119de565b909155505060405163a9059cbb60e01b8152336004820152602481018290526000906001600160a01b0387169063a9059cbb906044016020604051808303816000875af115801561133a573d6000803e3d6000fd5b505050506040513d601f19601f8201168201806040525081019061135e919061196a565b90508061137e576040516312171d8360e31b815260040160405180910390fd5b604080518581523360208201526001600160a01b03808916928a821692918c16917fcea6068021f706074af611c2a4b6b08820c5b8223a80149684c64c60ce7be3cc910160405180910390a45050505050505050565b346000036113f557604051637685565760e01b815260040160405180910390fd5b3360009081526004602052604081208054349290611414908490611941565b9091555050604051349033907f86643f2dc412f1ceecd63d80cc81c9957142c3d9ee29578fae4bf4d1ef106fb290600090a3565b61145061179a565b6001600160a01b03811661147a57604051631e4fbdf760e01b815260006004820152602401610833565b611483816117c7565b50565b806000036114a757604051637685565760e01b815260040160405180910390fd5b3360009081526005602090815260408083206001600160a01b038616845290915290205481111561151b573360009081526005602090815260408083206001600160a01b03861684529091529081902054905163cf47918160e01b8152600481019190915260248101829052604401610833565b3360009081526005602090815260408083206001600160a01b03861684529091528120805483929061154e9084906119de565b909155505060405163a9059cbb60e01b8152336004820152602481018290526000906001600160a01b0384169063a9059cbb906044016020604051808303816000875af11580156115a3573d6000803e3d6000fd5b505050506040513d601f19601f820116820180604052508101906115c7919061196a565b9050806115e7576040516312171d8360e31b815260040160405180910390fd5b6305f5e1006115f533610d92565b1015611609576305f5e100610c7033610d92565b60405182906001600160a01b0385169033907f9b1bfa7fa9ee420a16e124f794c35ac9f90472acc99140eb2f6447c714cad8eb90600090a4505050565b6001600160a01b038084166000908152600660209081526040808320938616835292905220548111156116be576001600160a01b03838116600090815260066020908152604080832093861683529290528190205490516349adcabf60e01b8152600481019190915260248101829052604401610833565b6040516323b872dd60e01b8152336004820152306024820152604481018290526000906001600160a01b038416906323b872dd906064016020604051808303816000875af1158015611714573d6000803e3d6000fd5b505050506040513d601f19601f82011682018060405250810190611738919061196a565b905080611758576040516312171d8360e31b815260040160405180910390fd5b6001600160a01b0380851660009081526006602090815260408083209387168352929052908120805484929061178f9084906119de565b909155505050505050565b6000546001600160a01b03163314610e0b5760405163118cdaa760e01b8152336004820152602401610833565b600080546001600160a01b038381166001600160a01b0319831681178455604051919092169283917f8be0079c531659141344cd1fd0a4f28419497f9722a3daafe3b4186f6b6457e09190a35050565b80356001600160a01b038116811461182e57600080fd5b919050565b60006020828403121561184557600080fd5b610ab282611817565b6000806040838503121561186157600080fd5b61186a83611817565b946020939093013593505050565b6000806040838503121561188b57600080fd5b61189483611817565b91506118a260208401611817565b90509250929050565b6000602082840312156118bd57600080fd5b5035919050565b6000806000606084860312156118d957600080fd5b6118e284611817565b92506118f060208501611817565b91506118fe60408501611817565b90509250925092565b6000806040838503121561191a57600080fd5b505080516020909101519092909150565b634e487b7160e01b600052601160045260246000fd5b80820180821115610d6257610d6261192b565b634e487b7160e01b600052603260045260246000fd5b60006020828403121561197c57600080fd5b81518015158114610ab257600080fd5b8082028115828204841417610d6257610d6261192b565b6000826119c057634e487b7160e01b600052601260045260246000fd5b500490565b6000602082840312156119d757600080fd5b5051919050565b81810381811115610d6257610d6261192b56fea26469706673582212207d23b8a43801c9576d25f72b838b6124df8395066cd32975abbc99825227e7aa64736f6c63430008160033",
  "linkReferences": {},
  "deployedLinkReferences": {}
}