{
  "_format": "hh-sol-artifact-1",
  "contractName": "BorrowLend",
  "sourceName": "contracts/Borrow.sol",
  "abi": [
    {
      "inputs": [
        {
          "internalType": "address",
          "name": "_flareAdaptorAddress",
          "type": "address"
        }
      ],
      "stateMutability": "nonpayable",
      "type": "constructor"
    },
    {
      "inputs": [
        {
          "internalType": "uint256",
          "name": "available",
          "type": "uint256"
        },
        {
          "internalType": "uint256",
          "name": "required",
          "type": "uint256"
        }
      ],
      "name": "ContractUnderFunded",
      "type": "error"
    },
    {
      "inputs": [
        {
          "internalType": "address",
          "name": "token",
          "type": "address"
        }
      ],
      "name": "IncorrectRepaymentToken",
      "type": "error"
    },
    {
      "inputs": [
        {
          "internalType": "uint256",
          "name": "available",
          "type": "uint256"
        },
        {
          "internalType": "uint256",
          "name": "required",
          "type": "uint256"
        }
      ],
      "name": "InsufficientBalance",
      "type": "error"
    },
    {
      "inputs": [
        {
          "internalType": "uint256",
          "name": "rewardAmount",
          "type": "uint256"
        },
        {
          "internalType": "uint256",
          "name": "halfDebtInUSD",
          "type": "uint256"
        }
      ],
      "name": "NoRewardForLiquidation",
      "type": "error"
    },
    {
      "inputs": [
        {
          "internalType": "uint256",
          "name": "healthFactor",
          "type": "uint256"
        },
        {
          "internalType": "uint256",
          "name": "minHealthFactor",
          "type": "uint256"
        }
      ],
      "name": "NotLiquidatable",
      "type": "error"
    },
    {
      "inputs": [
        {
          "internalType": "uint256",
          "name": "maxAllowed",
          "type": "uint256"
        },
        {
          "internalType": "uint256",
          "name": "requested",
          "type": "uint256"
        }
      ],
      "name": "OverLeveraged",
      "type": "error"
    },
    {
      "inputs": [
        {
          "internalType": "uint256",
          "name": "available",
          "type": "uint256"
        },
        {
          "internalType": "uint256",
          "name": "requested",
          "type": "uint256"
        }
      ],
      "name": "Overpayment",
      "type": "error"
    },
    {
      "inputs": [
        {
          "internalType": "address",
          "name": "owner",
          "type": "address"
        }
      ],
      "name": "OwnableInvalidOwner",
      "type": "error"
    },
    {
      "inputs": [
        {
          "internalType": "address",
          "name": "account",
          "type": "address"
        }
      ],
      "name": "OwnableUnauthorizedAccount",
      "type": "error"
    },
    {
      "inputs": [
        {
          "internalType": "address",
          "name": "token",
          "type": "address"
        }
      ],
      "name": "TokenNotAllowed",
      "type": "error"
    },
    {
      "inputs": [],
      "name": "TransferFailed",
      "type": "error"
    },
    {
      "inputs": [],
      "name": "zeroAmount",
      "type": "error"
    },
    {
      "anonymous": false,
      "inputs": [
        {
          "indexed": true,
          "internalType": "address",
          "name": "token",
          "type": "address"
        },
        {
          "indexed": true,
          "internalType": "address",
          "name": "priceFeed",
          "type": "address"
        }
      ],
      "name": "AllowedTokenSet",
      "type": "event"
    },
    {
      "anonymous": false,
      "inputs": [
        {
          "indexed": true,
          "internalType": "address",
          "name": "account",
          "type": "address"
        },
        {
          "indexed": true,
          "internalType": "address",
          "name": "token",
          "type": "address"
        },
        {
          "indexed": true,
          "internalType": "uint256",
          "name": "amount",
          "type": "uint256"
        }
      ],
      "name": "Borrow",
      "type": "event"
    },
    {
      "anonymous": false,
      "inputs": [
        {
          "indexed": true,
          "internalType": "address",
          "name": "account",
          "type": "address"
        },
        {
          "indexed": true,
          "internalType": "uint256",
          "name": "amount",
          "type": "uint256"
        }
      ],
      "name": "DepositedNativeAsset",
      "type": "event"
    },
    {
      "anonymous": false,
      "inputs": [
        {
          "indexed": true,
          "internalType": "address",
          "name": "account",
          "type": "address"
        },
        {
          "indexed": true,
          "internalType": "address",
          "name": "token",
          "type": "address"
        },
        {
          "indexed": true,
          "internalType": "uint256",
          "name": "amount",
          "type": "uint256"
        }
      ],
      "name": "DepositedToken",
      "type": "event"
    },
    {
      "anonymous": false,
      "inputs": [
        {
          "indexed": true,
          "internalType": "address",
          "name": "account",
          "type": "address"
        },
        {
          "indexed": true,
          "internalType": "address",
          "name": "repayToken",
          "type": "address"
        },
        {
          "indexed": true,
          "internalType": "address",
          "name": "rewardToken",
          "type": "address"
        },
        {
          "indexed": false,
          "internalType": "uint256",
          "name": "halfDebtInEth",
          "type": "uint256"
        },
        {
          "indexed": false,
          "internalType": "address",
          "name": "liquidator",
          "type": "address"
        }
      ],
      "name": "Liquidate",
      "type": "event"
    },
    {
      "anonymous": false,
      "inputs": [
        {
          "indexed": true,
          "internalType": "address",
          "name": "account",
          "type": "address"
        },
        {
          "indexed": true,
          "internalType": "address",
          "name": "repayToken",
          "type": "address"
        },
        {
          "indexed": false,
          "internalType": "uint256",
          "name": "halfDebtInEth",
          "type": "uint256"
        },
        {
          "indexed": false,
          "internalType": "address",
          "name": "liquidator",
          "type": "address"
        }
      ],
      "name": "LiquidateForNative",
      "type": "event"
    },
    {
      "anonymous": false,
      "inputs": [
        {
          "indexed": true,
          "internalType": "address",
          "name": "previousOwner",
          "type": "address"
        },
        {
          "indexed": true,
          "internalType": "address",
          "name": "newOwner",
          "type": "address"
        }
      ],
      "name": "OwnershipTransferred",
      "type": "event"
    },
    {
      "anonymous": false,
      "inputs": [
        {
          "indexed": true,
          "internalType": "address",
          "name": "account",
          "type": "address"
        },
        {
          "indexed": true,
          "internalType": "address",
          "name": "token",
          "type": "address"
        },
        {
          "indexed": true,
          "internalType": "uint256",
          "name": "amount",
          "type": "uint256"
        }
      ],
      "name": "Repay",
      "type": "event"
    },
    {
      "anonymous": false,
      "inputs": [
        {
          "indexed": true,
          "internalType": "address",
          "name": "account",
          "type": "address"
        },
        {
          "indexed": true,
          "internalType": "address",
          "name": "token",
          "type": "address"
        },
        {
          "indexed": true,
          "internalType": "uint256",
          "name": "amount",
          "type": "uint256"
        }
      ],
      "name": "Withdraw",
      "type": "event"
    },
    {
      "anonymous": false,
      "inputs": [
        {
          "indexed": true,
          "internalType": "address",
          "name": "account",
          "type": "address"
        },
        {
          "indexed": true,
          "internalType": "uint256",
          "name": "amount",
          "type": "uint256"
        }
      ],
      "name": "WithdrawNative",
      "type": "event"
    },
    {
      "inputs": [],
      "name": "LIQUIDATION_REWARD",
      "outputs": [
        {
          "internalType": "uint256",
          "name": "",
          "type": "uint256"
        }
      ],
      "stateMutability": "view",
      "type": "function"
    },
    {
      "inputs": [],
      "name": "LIQUIDATION_THRESHOLD",
      "outputs": [
        {
          "internalType": "uint256",
          "name": "",
          "type": "uint256"
        }
      ],
      "stateMutability": "view",
      "type": "function"
    },
    {
      "inputs": [],
      "name": "MIN_HEALH_FACTOR",
      "outputs": [
        {
          "internalType": "uint256",
          "name": "",
          "type": "uint256"
        }
      ],
      "stateMutability": "view",
      "type": "function"
    },
    {
      "inputs": [
        {
          "internalType": "uint256",
          "name": "",
          "type": "uint256"
        }
      ],
      "name": "allowedTokens",
      "outputs": [
        {
          "internalType": "address",
          "name": "",
          "type": "address"
        }
      ],
      "stateMutability": "view",
      "type": "function"
    },
    {
      "inputs": [
        {
          "internalType": "address",
          "name": "_token",
          "type": "address"
        },
        {
          "internalType": "uint256",
          "name": "_amount",
          "type": "uint256"
        }
      ],
      "name": "borrow",
      "outputs": [],
      "stateMutability": "nonpayable",
      "type": "function"
    },
    {
      "inputs": [
        {
          "internalType": "address",
          "name": "",
          "type": "address"
        },
        {
          "internalType": "address",
          "name": "",
          "type": "address"
        }
      ],
      "name": "borrows",
      "outputs": [
        {
          "internalType": "uint256",
          "name": "",
          "type": "uint256"
        }
      ],
      "stateMutability": "view",
      "type": "function"
    },
    {
      "inputs": [
        {
          "internalType": "address",
          "name": "_user",
          "type": "address"
        }
      ],
      "name": "calculateBorrowValue",
      "outputs": [
        {
          "internalType": "uint256",
          "name": "",
          "type": "uint256"
        }
      ],
      "stateMutability": "view",
      "type": "function"
    },
    {
      "inputs": [
        {
          "internalType": "address",
          "name": "_user",
          "type": "address"
        }
      ],
      "name": "calculateDepositValue",
      "outputs": [
        {
          "internalType": "uint256",
          "name": "",
          "type": "uint256"
        }
      ],
      "stateMutability": "view",
      "type": "function"
    },
    {
      "inputs": [
        {
          "internalType": "uint256",
          "name": "_amount",
          "type": "uint256"
        }
      ],
      "name": "calculateNativeAssetUSDValue",
      "outputs": [
        {
          "internalType": "uint256",
          "name": "",
          "type": "uint256"
        }
      ],
      "stateMutability": "view",
      "type": "function"
    },
    {
      "inputs": [
        {
          "internalType": "uint256",
          "name": "_amount",
          "type": "uint256"
        }
      ],
      "name": "calculateNativeAssetValueFromUSD",
      "outputs": [
        {
          "internalType": "uint256",
          "name": "",
          "type": "uint256"
        }
      ],
      "stateMutability": "view",
      "type": "function"
    },
    {
      "inputs": [
        {
          "internalType": "uint256",
          "name": "_amount",
          "type": "uint256"
        }
      ],
      "name": "calculateTokenValueFromUSD",
      "outputs": [
        {
          "internalType": "uint256",
          "name": "",
          "type": "uint256"
        }
      ],
      "stateMutability": "view",
      "type": "function"
    },
    {
      "inputs": [
        {
          "internalType": "uint256",
          "name": "_amount",
          "type": "uint256"
        }
      ],
      "name": "calculateUSDValue",
      "outputs": [
        {
          "internalType": "uint256",
          "name": "",
          "type": "uint256"
        }
      ],
      "stateMutability": "view",
      "type": "function"
    },
    {
      "inputs": [],
      "name": "depositNative",
      "outputs": [],
      "stateMutability": "payable",
      "type": "function"
    },
    {
      "inputs": [
        {
          "internalType": "address",
          "name": "_token",
          "type": "address"
        },
        {
          "internalType": "uint256",
          "name": "_amount",
          "type": "uint256"
        }
      ],
      "name": "depositToken",
      "outputs": [],
      "stateMutability": "nonpayable",
      "type": "function"
    },
    {
      "inputs": [
        {
          "internalType": "address",
          "name": "",
          "type": "address"
        },
        {
          "internalType": "address",
          "name": "",
          "type": "address"
        }
      ],
      "name": "deposits",
      "outputs": [
        {
          "internalType": "uint256",
          "name": "",
          "type": "uint256"
        }
      ],
      "stateMutability": "view",
      "type": "function"
    },
    {
      "inputs": [],
      "name": "flareAdaptor",
      "outputs": [
        {
          "internalType": "contract IFlareAdaptor",
          "name": "",
          "type": "address"
        }
      ],
      "stateMutability": "view",
      "type": "function"
    },
    {
      "inputs": [],
      "name": "getTotalContractBalance",
      "outputs": [
        {
          "internalType": "uint256",
          "name": "",
          "type": "uint256"
        }
      ],
      "stateMutability": "view",
      "type": "function"
    },
    {
      "inputs": [
        {
          "internalType": "address",
          "name": "_user",
          "type": "address"
        }
      ],
      "name": "healthFactor",
      "outputs": [
        {
          "internalType": "uint256",
          "name": "",
          "type": "uint256"
        }
      ],
      "stateMutability": "view",
      "type": "function"
    },
    {
      "inputs": [
        {
          "internalType": "address",
          "name": "_account",
          "type": "address"
        },
        {
          "internalType": "address",
          "name": "_tokenToRepay",
          "type": "address"
        },
        {
          "internalType": "address",
          "name": "_rewardToken",
          "type": "address"
        }
      ],
      "name": "liquidate",
      "outputs": [],
      "stateMutability": "payable",
      "type": "function"
    },
    {
      "inputs": [
        {
          "internalType": "address",
          "name": "_account",
          "type": "address"
        },
        {
          "internalType": "address",
          "name": "_tokenToRepay",
          "type": "address"
        }
      ],
      "name": "liquidateForNative",
      "outputs": [],
      "stateMutability": "nonpayable",
      "type": "function"
    },
    {
      "inputs": [
        {
          "internalType": "address",
          "name": "",
          "type": "address"
        }
      ],
      "name": "nativeDeposits",
      "outputs": [
        {
          "internalType": "uint256",
          "name": "",
          "type": "uint256"
        }
      ],
      "stateMutability": "view",
      "type": "function"
    },
    {
      "inputs": [],
      "name": "nativeTokenProxyAddress",
      "outputs": [
        {
          "internalType": "address",
          "name": "",
          "type": "address"
        }
      ],
      "stateMutability": "view",
      "type": "function"
    },
    {
      "inputs": [],
      "name": "owner",
      "outputs": [
        {
          "internalType": "address",
          "name": "",
          "type": "address"
        }
      ],
      "stateMutability": "view",
      "type": "function"
    },
    {
      "inputs": [
        {
          "internalType": "address",
          "name": "",
          "type": "address"
        }
      ],
      "name": "priceFeedOfToken",
      "outputs": [
        {
          "internalType": "address",
          "name": "",
          "type": "address"
        }
      ],
      "stateMutability": "view",
      "type": "function"
    },
    {
      "inputs": [],
      "name": "readDataFeed",
      "outputs": [
        {
          "internalType": "uint256",
          "name": "",
          "type": "uint256"
        },
        {
          "internalType": "uint256",
          "name": "",
          "type": "uint256"
        }
      ],
      "stateMutability": "view",
      "type": "function"
    },
    {
      "inputs": [],
      "name": "renounceOwnership",
      "outputs": [],
      "stateMutability": "nonpayable",
      "type": "function"
    },
    {
      "inputs": [
        {
          "internalType": "address",
          "name": "_token",
          "type": "address"
        },
        {
          "internalType": "uint256",
          "name": "_amount",
          "type": "uint256"
        }
      ],
      "name": "repay",
      "outputs": [],
      "stateMutability": "payable",
      "type": "function"
    },
    {
      "inputs": [
        {
          "internalType": "address",
          "name": "_nativeTokenProxyAddress",
          "type": "address"
        }
      ],
      "name": "setNativeTokenProxyAddress",
      "outputs": [],
      "stateMutability": "nonpayable",
      "type": "function"
    },
    {
      "inputs": [
        {
          "internalType": "address",
          "name": "_token",
          "type": "address"
        },
        {
          "internalType": "address",
          "name": "_priceFeed",
          "type": "address"
        }
      ],
      "name": "setTokensAvailable",
      "outputs": [],
      "stateMutability": "nonpayable",
      "type": "function"
    },
    {
      "inputs": [
        {
          "internalType": "address",
          "name": "newOwner",
          "type": "address"
        }
      ],
      "name": "transferOwnership",
      "outputs": [],
      "stateMutability": "nonpayable",
      "type": "function"
    },
    {
      "inputs": [
        {
          "internalType": "address",
          "name": "_user",
          "type": "address"
        }
      ],
      "name": "userInformation",
      "outputs": [
        {
          "internalType": "uint256",
          "name": "",
          "type": "uint256"
        },
        {
          "internalType": "uint256",
          "name": "",
          "type": "uint256"
        }
      ],
      "stateMutability": "view",
      "type": "function"
    },
    {
      "inputs": [
        {
          "internalType": "address",
          "name": "_token",
          "type": "address"
        },
        {
          "internalType": "uint256",
          "name": "_amount",
          "type": "uint256"
        }
      ],
      "name": "withdraw",
      "outputs": [],
      "stateMutability": "nonpayable",
      "type": "function"
    },
    {
      "inputs": [
        {
          "internalType": "uint256",
          "name": "_amount",
          "type": "uint256"
        }
      ],
      "name": "withdrawNative",
      "outputs": [],
      "stateMutability": "nonpayable",
      "type": "function"
    }
  ],
  "bytecode": "0x608060405234801561001057600080fd5b5060405162001a5338038062001a53833981016040819052610031916100d6565b338061005757604051631e4fbdf760e01b81526000600482015260240160405180910390fd5b61006081610086565b50600180546001600160a01b0319166001600160a01b0392909216919091179055610106565b600080546001600160a01b038381166001600160a01b0319831681178455604051919092169283917f8be0079c531659141344cd1fd0a4f28419497f9722a3daafe3b4186f6b6457e09190a35050565b6000602082840312156100e857600080fd5b81516001600160a01b03811681146100ff57600080fd5b9392505050565b61193d80620001166000396000f3fe6080604052600436106101ee5760003560e01c806380eb9be61161010d578063ca5ce2ec116100a0578063eaed04b51161006f578063eaed04b514610566578063f2fde38b14610586578063f3fef3a3146105a6578063f65be0321461047e578063f6c6bdee146105c657600080fd5b8063ca5ce2ec14610520578063d9e3fd6414610533578063db6b524614610546578063df80eed21461054e57600080fd5b80638f601f66116100dc5780638f601f661461049e57806390a8ae9b146104d6578063a923da23146104eb578063ad0d75941461050b57600080fd5b806380eb9be61461042b57806384276d81146104405780638da5cb5b146104605780638eac66611461047e57600080fd5b80635e5f2e261161018557806379a71a871161015457806379a71a87146103a057806379d198b01461027b5780637d2e227d146103c05780637e0baf87146103f557600080fd5b80635e5f2e26146103135780636ad9f9df146103335780636c29219c14610353578063715018a61461038b57600080fd5b806346e303f2116101c157806346e303f21461027b5780634b8a35291461029b5780634cdb66bc146102bb57806358013786146102f357600080fd5b806322867d78146101f3578063322d7a6214610208578063338b5dea1461023b5780633e0fd70f1461025b575b600080fd5b610206610201366004611743565b6105f3565b005b34801561021457600080fd5b5061022861022336600461176d565b61065b565b6040519081526020015b60405180910390f35b34801561024757600080fd5b50610206610256366004611743565b61072d565b34801561026757600080fd5b50610206610276366004611788565b6108a8565b34801561028757600080fd5b506102286102963660046117bb565b6109b3565b3480156102a757600080fd5b506102066102b6366004611743565b6109e5565b3480156102c757600080fd5b506007546102db906001600160a01b031681565b6040516001600160a01b039091168152602001610232565b3480156102ff57600080fd5b5061022861030e36600461176d565b610bc3565b34801561031f57600080fd5b506102db61032e3660046117bb565b610c41565b34801561033f57600080fd5b5061022861034e36600461176d565b610c6b565b34801561035f57600080fd5b5061022861036e366004611788565b600660209081526000928352604080842090915290825290205481565b34801561039757600080fd5b50610206610cd2565b3480156103ac57600080fd5b506102066103bb36600461176d565b610ce6565b3480156103cc57600080fd5b506103e06103db36600461176d565b610d10565b60408051928352602083019190915201610232565b34801561040157600080fd5b506102db61041036600461176d565b6003602052600090815260409020546001600160a01b031681565b34801561043757600080fd5b506103e0610d36565b34801561044c57600080fd5b5061020661045b3660046117bb565b610dbd565b34801561046c57600080fd5b506000546001600160a01b03166102db565b34801561048a57600080fd5b506102286104993660046117bb565b610ee0565b3480156104aa57600080fd5b506102286104b9366004611788565b600560209081526000928352604080842090915290825290205481565b3480156104e257600080fd5b50610228604681565b3480156104f757600080fd5b50610206610506366004611788565b610f01565b34801561051757600080fd5b50610228600581565b61020661052e3660046117d4565b6110d1565b34801561053f57600080fd5b5047610228565b6102066112e4565b34801561055a57600080fd5b506102286305f5e10081565b34801561057257600080fd5b506001546102db906001600160a01b031681565b34801561059257600080fd5b506102066105a136600461176d565b611358565b3480156105b257600080fd5b506102066105c1366004611743565b611396565b3480156105d257600080fd5b506102286105e136600461176d565b60046020526000908152604090205481565b8060000361061457604051637685565760e01b815260040160405180910390fd5b61061f338383611556565b60405181906001600160a01b0384169033907f05f2eeda0e08e4b437f487c8d7d29b14537d15e3488170dc3de5dbdf8dac468490600090a45050565b6001600160a01b0381166000908152600460205260408120548190156106aa576001600160a01b03831660009081526004602052604090205461069d906109b3565b6106a7908261182d565b90505b60005b600254811015610726576000600282815481106106cc576106cc611846565b60009182526020808320909101546001600160a01b03888116845260058352604080852091909216808552925290912054909150801561071c5761070f816109b3565b610719908561182d565b93505b50506001016106ad565b5092915050565b6001600160a01b038083166000908152600360205260409020548391166107775760405163094403b760e41b81526001600160a01b03821660048201526024015b60405180910390fd5b8160000361079857604051637685565760e01b815260040160405180910390fd5b6040516323b872dd60e01b8152336004820152306024820152604481018390526000906001600160a01b038516906323b872dd906064016020604051808303816000875af11580156107ee573d6000803e3d6000fd5b505050506040513d601f19601f82011682018060405250810190610812919061185c565b905080610832576040516312171d8360e31b815260040160405180910390fd5b3360009081526005602090815260408083206001600160a01b03881684529091528120805485929061086590849061182d565b909155505060405183906001600160a01b0386169033907f7a43fc511e5571803e978d5d53bbfb35b899d0c8acdc2039769bfbc77082fa3390600090a450505050565b6108b06116aa565b600254600090815b8181101561090857846001600160a01b0316600282815481106108dd576108dd611846565b6000918252602090912001546001600160a01b0316036109005760019250610908565b6001016108b8565b508161095a57600280546001810182556000919091527f405787fa12a823e0f2b7631cc41b3ba8828b3321ca811111fa75cd3aa3bb5ace0180546001600160a01b0319166001600160a01b0386161790555b6001600160a01b0384811660008181526003602052604080822080546001600160a01b0319169488169485179055517f4f9bd0d8360fd59a62c52cf8b386f7c7b65097c9e336e860d08ffb9df34067d19190a350505050565b6000806109be610d36565b509050670de0b6b3a76400006109d4828561187e565b6109de9190611895565b9392505050565b6040516370a0823160e01b81523060048201526001600160a01b038316906370a0823190602401602060405180830381865afa158015610a29573d6000803e3d6000fd5b505050506040513d601f19601f82011682018060405250810190610a4d91906118b7565b811115610a7657604051631f39936560e31b81524760048201526024810182905260440161076e565b3360009081526006602090815260408083206001600160a01b038616845290915281208054839290610aa990849061182d565b909155505060405163a9059cbb60e01b8152336004820152602481018290526000906001600160a01b0384169063a9059cbb906044016020604051808303816000875af1158015610afe573d6000803e3d6000fd5b505050506040513d601f19601f82011682018060405250810190610b22919061185c565b905080610b42576040516312171d8360e31b815260040160405180910390fd5b60405182906001600160a01b0385169033907f312a5e5e1079f5dda4e95dbbd0b908b291fd5b992ef22073643ab691572c5b5290600090a46305f5e100610b8833610c6b565b1015610bbe576305f5e100610b9c33610c6b565b604051635b61fd1360e11b81526004810192909252602482015260440161076e565b505050565b600080805b60025481101561072657600060028281548110610be757610be7611846565b60009182526020808320909101546001600160a01b038881168452600683526040808520919092168085529252909120549091508015610c3757610c2a816109b3565b610c34908561182d565b93505b5050600101610bc8565b60028181548110610c5157600080fd5b6000918252602090912001546001600160a01b0316905081565b6000806000610c7984610d10565b909250905060006064610c8d60468461187e565b610c979190611895565b905082600003610cb057506402540be400949350505050565b82610cbf826305f5e10061187e565b610cc99190611895565b95945050505050565b610cda6116aa565b610ce460006116d7565b565b610cee6116aa565b600780546001600160a01b0319166001600160a01b0392909216919091179055565b6000806000610d1e8461065b565b90506000610d2b85610bc3565b959194509092505050565b600080600080600160009054906101000a90046001600160a01b03166001600160a01b03166357de26a46040518163ffffffff1660e01b81526004016040805180830381865afa158015610d8e573d6000803e3d6000fd5b505050506040513d601f19601f82011682018060405250810190610db291906118d0565b909590945092505050565b80600003610dde57604051637685565760e01b815260040160405180910390fd5b33600090815260046020526040902054811115610e2b573360009081526004602081905260409182902054915163cf47918160e01b815261076e9291849101918252602082015260400190565b3360009081526004602052604081208054839290610e4a9084906118f4565b9091555050604051600090339083156108fc0290849084818181858888f19350505050905080610e8d576040516312171d8360e31b815260040160405180910390fd5b6305f5e100610e9b33610c6b565b1015610eaf576305f5e100610b9c33610c6b565b604051829033907fde93db11f7aedf7cb3be22dc4d80e7790ab4b59a30aae83e86ac8326245542c590600090a35050565b600080610eeb610d36565b509050806109d484670de0b6b3a764000061187e565b6305f5e100610f0f83610c6b565b10610f4457610f1d82610c6b565b604051636c76e19b60e11b815260048101919091526305f5e100602482015260440161076e565b6001600160a01b038083166000908152600660209081526040808320938516835292905290812054610f7890600290611895565b90506000610f85826109b3565b905080600003610fb35760405163f4ba52c560e01b81526001600160a01b038416600482015260240161076e565b60006064610fc260058461187e565b610fcc9190611895565b90506000610fdd610499848461182d565b90508060000361100a57604051636a5b45c360e01b8152600481018390526024810184905260440161076e565b611015868686611556565b6001600160a01b0386166000908152600460205260408120805483929061103d9084906118f4565b9091555050604051600090339083156108fc0290849084818181858888f19350505050905080611080576040516312171d8360e31b815260040160405180910390fd5b604080518581523360208201526001600160a01b0380891692908a16917f6c24c03a659501697397faf17be8c03108f14d28a819340bc38c871c0ac3d346910160405180910390a350505050505050565b6305f5e1006110df84610c6b565b106110ed57610f1d83610c6b565b6001600160a01b03808416600090815260066020908152604080832093861683529290529081205461112190600290611895565b9050600061112e826109b3565b90508060000361115c5760405163f4ba52c560e01b81526001600160a01b038516600482015260240161076e565b6000606461116b60058461187e565b6111759190611895565b90506000611186610499848461182d565b9050806000036111b357604051636a5b45c360e01b8152600481018390526024810184905260440161076e565b6111be878786611556565b6001600160a01b038088166000908152600560209081526040808320938916835292905290812080548392906111f59084906118f4565b909155505060405163a9059cbb60e01b8152336004820152602481018290526000906001600160a01b0387169063a9059cbb906044016020604051808303816000875af115801561124a573d6000803e3d6000fd5b505050506040513d601f19601f8201168201806040525081019061126e919061185c565b90508061128e576040516312171d8360e31b815260040160405180910390fd5b604080518581523360208201526001600160a01b03808916928a821692918c16917fcea6068021f706074af611c2a4b6b08820c5b8223a80149684c64c60ce7be3cc910160405180910390a45050505050505050565b3460000361130557604051637685565760e01b815260040160405180910390fd5b336000908152600460205260408120805434929061132490849061182d565b9091555050604051349033907f86643f2dc412f1ceecd63d80cc81c9957142c3d9ee29578fae4bf4d1ef106fb290600090a3565b6113606116aa565b6001600160a01b03811661138a57604051631e4fbdf760e01b81526000600482015260240161076e565b611393816116d7565b50565b806000036113b757604051637685565760e01b815260040160405180910390fd5b3360009081526005602090815260408083206001600160a01b038616845290915290205481111561142b573360009081526005602090815260408083206001600160a01b03861684529091529081902054905163cf47918160e01b815260048101919091526024810182905260440161076e565b3360009081526005602090815260408083206001600160a01b03861684529091528120805483929061145e9084906118f4565b909155505060405163a9059cbb60e01b8152336004820152602481018290526000906001600160a01b0384169063a9059cbb906044016020604051808303816000875af11580156114b3573d6000803e3d6000fd5b505050506040513d601f19601f820116820180604052508101906114d7919061185c565b9050806114f7576040516312171d8360e31b815260040160405180910390fd5b6305f5e10061150533610c6b565b1015611519576305f5e100610b9c33610c6b565b60405182906001600160a01b0385169033907f9b1bfa7fa9ee420a16e124f794c35ac9f90472acc99140eb2f6447c714cad8eb90600090a4505050565b6001600160a01b038084166000908152600660209081526040808320938616835292905220548111156115ce576001600160a01b03838116600090815260066020908152604080832093861683529290528190205490516349adcabf60e01b815260048101919091526024810182905260440161076e565b6040516323b872dd60e01b8152336004820152306024820152604481018290526000906001600160a01b038416906323b872dd906064016020604051808303816000875af1158015611624573d6000803e3d6000fd5b505050506040513d601f19601f82011682018060405250810190611648919061185c565b905080611668576040516312171d8360e31b815260040160405180910390fd5b6001600160a01b0380851660009081526006602090815260408083209387168352929052908120805484929061169f9084906118f4565b909155505050505050565b6000546001600160a01b03163314610ce45760405163118cdaa760e01b815233600482015260240161076e565b600080546001600160a01b038381166001600160a01b0319831681178455604051919092169283917f8be0079c531659141344cd1fd0a4f28419497f9722a3daafe3b4186f6b6457e09190a35050565b80356001600160a01b038116811461173e57600080fd5b919050565b6000806040838503121561175657600080fd5b61175f83611727565b946020939093013593505050565b60006020828403121561177f57600080fd5b6109de82611727565b6000806040838503121561179b57600080fd5b6117a483611727565b91506117b260208401611727565b90509250929050565b6000602082840312156117cd57600080fd5b5035919050565b6000806000606084860312156117e957600080fd5b6117f284611727565b925061180060208501611727565b915061180e60408501611727565b90509250925092565b634e487b7160e01b600052601160045260246000fd5b8082018082111561184057611840611817565b92915050565b634e487b7160e01b600052603260045260246000fd5b60006020828403121561186e57600080fd5b815180151581146109de57600080fd5b808202811582820484141761184057611840611817565b6000826118b257634e487b7160e01b600052601260045260246000fd5b500490565b6000602082840312156118c957600080fd5b5051919050565b600080604083850312156118e357600080fd5b505080516020909101519092909150565b818103818111156118405761184061181756fea2646970667358221220d999d38678e16ba2a64575cb3d8e24ea8e46d6b4125a279b74ce1a1a1a13744f64736f6c63430008160033",
  "linkReferences": {},
  "deployedLinkReferences": {}
}